{"contracts/EventTicketNFT.sol":{"EventTicketNFT":{"abi":[{"inputs":[],"stateMutability":"nonpayable","type":"constructor"},{"inputs":[],"name":"ERC721EnumerableForbiddenBatchMint","type":"error"},{"inputs":[{"internalType":"address","name":"sender","type":"address"},{"internalType":"uint256","name":"tokenId","type":"uint256"},{"internalType":"address","name":"owner","type":"address"}],"name":"ERC721IncorrectOwner","type":"error"},{"inputs":[{"internalType":"address","name":"operator","type":"address"},{"internalType":"uint256","name":"tokenId","type":"uint256"}],"name":"ERC721InsufficientApproval","type":"error"},{"inputs":[{"internalType":"address","name":"approver","type":"address"}],"name":"ERC721InvalidApprover","type":"error"},{"inputs":[{"internalType":"address","name":"operator","type":"address"}],"name":"ERC721InvalidOperator","type":"error"},{"inputs":[{"internalType":"address","name":"owner","type":"address"}],"name":"ERC721InvalidOwner","type":"error"},{"inputs":[{"internalType":"address","name":"receiver","type":"address"}],"name":"ERC721InvalidReceiver","type":"error"},{"inputs":[{"internalType":"address","name":"sender","type":"address"}],"name":"ERC721InvalidSender","type":"error"},{"inputs":[{"internalType":"uint256","name":"tokenId","type":"uint256"}],"name":"ERC721NonexistentToken","type":"error"},{"inputs":[{"internalType":"address","name":"owner","type":"address"},{"internalType":"uint256","name":"index","type":"uint256"}],"name":"ERC721OutOfBoundsIndex","type":"error"},{"inputs":[{"internalType":"address","name":"owner","type":"address"}],"name":"OwnableInvalidOwner","type":"error"},{"inputs":[{"internalType":"address","name":"account","type":"address"}],"name":"OwnableUnauthorizedAccount","type":"error"},{"inputs":[],"name":"ReentrancyGuardReentrantCall","type":"error"},{"anonymous":false,"inputs":[{"indexed":true,"internalType":"address","name":"owner","type":"address"},{"indexed":true,"internalType":"address","name":"approved","type":"address"},{"indexed":true,"internalType":"uint256","name":"tokenId","type":"uint256"}],"name":"Approval","type":"event"},{"anonymous":false,"inputs":[{"indexed":true,"internalType":"address","name":"owner","type":"address"},{"indexed":true,"internalType":"address","name":"operator","type":"address"},{"indexed":false,"internalType":"bool","name":"approved","type":"bool"}],"name":"ApprovalForAll","type":"event"},{"anonymous":false,"inputs":[{"indexed":true,"internalType":"uint256","name":"eventId","type":"uint256"},{"indexed":false,"internalType":"string","name":"name","type":"string"},{"indexed":true,"internalType":"address","name":"organizer","type":"address"},{"indexed":false,"internalType":"uint256","name":"ticketPrice","type":"uint256"},{"indexed":false,"internalType":"uint256","name":"maxSupply","type":"uint256"}],"name":"EventCreated","type":"event"},{"anonymous":false,"inputs":[{"indexed":true,"internalType":"address","name":"previousOwner","type":"address"},{"indexed":true,"internalType":"address","name":"newOwner","type":"address"}],"name":"OwnershipTransferred","type":"event"},{"anonymous":false,"inputs":[{"indexed":true,"internalType":"uint256","name":"ticketId","type":"uint256"},{"indexed":true,"internalType":"address","name":"seller","type":"address"},{"indexed":false,"internalType":"uint256","name":"price","type":"uint256"}],"name":"TicketListed","type":"event"},{"anonymous":false,"inputs":[{"indexed":true,"internalType":"uint256","name":"ticketId","type":"uint256"},{"indexed":true,"internalType":"address","name":"seller","type":"address"}],"name":"TicketListingCancelled","type":"event"},{"anonymous":false,"inputs":[{"indexed":true,"internalType":"uint256","name":"ticketId","type":"uint256"},{"indexed":true,"internalType":"uint256","name":"eventId","type":"uint256"},{"indexed":true,"internalType":"address","name":"buyer","type":"address"},{"indexed":false,"internalType":"uint256","name":"ticketNumber","type":"uint256"}],"name":"TicketMinted","type":"event"},{"anonymous":false,"inputs":[{"indexed":true,"internalType":"uint256","name":"ticketId","type":"uint256"},{"indexed":true,"internalType":"address","name":"seller","type":"address"},{"indexed":true,"internalType":"address","name":"buyer","type":"address"},{"indexed":false,"internalType":"uint256","name":"price","type":"uint256"}],"name":"TicketSold","type":"event"},{"anonymous":false,"inputs":[{"indexed":true,"internalType":"address","name":"from","type":"address"},{"indexed":true,"internalType":"address","name":"to","type":"address"},{"indexed":true,"internalType":"uint256","name":"tokenId","type":"uint256"}],"name":"Transfer","type":"event"},{"inputs":[{"internalType":"address","name":"to","type":"address"},{"internalType":"uint256","name":"tokenId","type":"uint256"}],"name":"approve","outputs":[],"stateMutability":"nonpayable","type":"function"},{"inputs":[{"internalType":"address","name":"owner","type":"address"}],"name":"balanceOf","outputs":[{"internalType":"uint256","name":"","type":"uint256"}],"stateMutability":"view","type":"function"},{"inputs":[{"internalType":"uint256","name":"_ticketId","type":"uint256"}],"name":"buyListedTicket","outputs":[],"stateMutability":"payable","type":"function"},{"inputs":[{"internalType":"uint256","name":"_eventId","type":"uint256"}],"name":"buyTicket","outputs":[{"internalType":"uint256","name":"","type":"uint256"}],"stateMutability":"payable","type":"function"},{"inputs":[{"internalType":"uint256","name":"_ticketId","type":"uint256"}],"name":"cancelListing","outputs":[],"stateMutability":"nonpayable","type":"function"},{"inputs":[{"internalType":"string","name":"_name","type":"string"},{"internalType":"string","name":"_description","type":"string"},{"internalType":"uint256","name":"_eventDate","type":"uint256"},{"internalType":"uint256","name":"_ticketPrice","type":"uint256"},{"internalType":"uint256","name":"_maxSupply","type":"uint256"}],"name":"createEvent","outputs":[{"internalType":"uint256","name":"","type":"uint256"}],"stateMutability":"nonpayable","type":"function"},{"inputs":[{"internalType":"uint256","name":"_eventId","type":"uint256"}],"name":"deactivateEvent","outputs":[],"stateMutability":"nonpayable","type":"function"},{"inputs":[],"name":"eventIdCounter","outputs":[{"internalType":"uint256","name":"","type":"uint256"}],"stateMutability":"view","type":"function"},{"inputs":[{"internalType":"uint256","name":"","type":"uint256"}],"name":"events","outputs":[{"internalType":"uint256","name":"id","type":"uint256"},{"internalType":"string","name":"name","type":"string"},{"internalType":"string","name":"description","type":"string"},{"internalType":"uint256","name":"eventDate","type":"uint256"},{"internalType":"uint256","name":"ticketPrice","type":"uint256"},{"internalType":"uint256","name":"maxSupply","type":"uint256"},{"internalType":"uint256","name":"soldTickets","type":"uint256"},{"internalType":"address","name":"organizer","type":"address"},{"internalType":"bool","name":"isActive","type":"bool"}],"stateMutability":"view","type":"function"},{"inputs":[],"name":"getActiveListings","outputs":[{"internalType":"uint256[]","name":"","type":"uint256[]"}],"stateMutability":"view","type":"function"},{"inputs":[],"name":"getAllEvents","outputs":[{"components":[{"internalType":"uint256","name":"id","type":"uint256"},{"internalType":"string","name":"name","type":"string"},{"internalType":"string","name":"description","type":"string"},{"internalType":"uint256","name":"eventDate","type":"uint256"},{"internalType":"uint256","name":"ticketPrice","type":"uint256"},{"internalType":"uint256","name":"maxSupply","type":"uint256"},{"internalType":"uint256","name":"soldTickets","type":"uint256"},{"internalType":"address","name":"organizer","type":"address"},{"internalType":"bool","name":"isActive","type":"bool"}],"internalType":"struct EventTicketNFT.Event[]","name":"","type":"tuple[]"}],"stateMutability":"view","type":"function"},{"inputs":[{"internalType":"uint256","name":"tokenId","type":"uint256"}],"name":"getApproved","outputs":[{"internalType":"address","name":"","type":"address"}],"stateMutability":"view","type":"function"},{"inputs":[{"internalType":"uint256","name":"_eventId","type":"uint256"}],"name":"getEvent","outputs":[{"components":[{"internalType":"uint256","name":"id","type":"uint256"},{"internalType":"string","name":"name","type":"string"},{"internalType":"string","name":"description","type":"string"},{"internalType":"uint256","name":"eventDate","type":"uint256"},{"internalType":"uint256","name":"ticketPrice","type":"uint256"},{"internalType":"uint256","name":"maxSupply","type":"uint256"},{"internalType":"uint256","name":"soldTickets","type":"uint256"},{"internalType":"address","name":"organizer","type":"address"},{"internalType":"bool","name":"isActive","type":"bool"}],"internalType":"struct EventTicketNFT.Event","name":"","type":"tuple"}],"stateMutability":"view","type":"function"},{"inputs":[{"internalType":"uint256","name":"_ticketId","type":"uint256"}],"name":"getMarketplaceListing","outputs":[{"components":[{"internalType":"uint256","name":"ticketId","type":"uint256"},{"internalType":"address","name":"seller","type":"address"},{"internalType":"uint256","name":"price","type":"uint256"},{"internalType":"bool","name":"isActive","type":"bool"}],"internalType":"struct EventTicketNFT.MarketplaceListing","name":"","type":"tuple"}],"stateMutability":"view","type":"function"},{"inputs":[{"internalType":"uint256","name":"_ticketId","type":"uint256"}],"name":"getTicket","outputs":[{"components":[{"internalType":"uint256","name":"id","type":"uint256"},{"internalType":"uint256","name":"eventId","type":"uint256"},{"internalType":"uint256","name":"ticketNumber","type":"uint256"},{"internalType":"string","name":"metadataURI","type":"string"}],"internalType":"struct EventTicketNFT.Ticket","name":"","type":"tuple"}],"stateMutability":"view","type":"function"},{"inputs":[{"internalType":"uint256","name":"_eventId","type":"uint256"},{"internalType":"address","name":"_owner","type":"address"}],"name":"getTicketsByEventAndOwner","outputs":[{"internalType":"uint256[]","name":"","type":"uint256[]"}],"stateMutability":"view","type":"function"},{"inputs":[{"internalType":"address","name":"owner","type":"address"},{"internalType":"address","name":"operator","type":"address"}],"name":"isApprovedForAll","outputs":[{"internalType":"bool","name":"","type":"bool"}],"stateMutability":"view","type":"function"},{"inputs":[{"internalType":"uint256","name":"_ticketId","type":"uint256"},{"internalType":"uint256","name":"_price","type":"uint256"}],"name":"listTicket","outputs":[],"stateMutability":"nonpayable","type":"function"},{"inputs":[{"internalType":"uint256","name":"","type":"uint256"}],"name":"marketplaceListings","outputs":[{"internalType":"uint256","name":"ticketId","type":"uint256"},{"internalType":"address","name":"seller","type":"address"},{"internalType":"uint256","name":"price","type":"uint256"},{"internalType":"bool","name":"isActive","type":"bool"}],"stateMutability":"view","type":"function"},{"inputs":[],"name":"name","outputs":[{"internalType":"string","name":"","type":"string"}],"stateMutability":"view","type":"function"},{"inputs":[],"name":"owner","outputs":[{"internalType":"address","name":"","type":"address"}],"stateMutability":"view","type":"function"},{"inputs":[{"internalType":"uint256","name":"tokenId","type":"uint256"}],"name":"ownerOf","outputs":[{"internalType":"address","name":"","type":"address"}],"stateMutability":"view","type":"function"},{"inputs":[],"name":"renounceOwnership","outputs":[],"stateMutability":"nonpayable","type":"function"},{"inputs":[{"internalType":"address","name":"from","type":"address"},{"internalType":"address","name":"to","type":"address"},{"internalType":"uint256","name":"tokenId","type":"uint256"}],"name":"safeTransferFrom","outputs":[],"stateMutability":"nonpayable","type":"function"},{"inputs":[{"internalType":"address","name":"from","type":"address"},{"internalType":"address","name":"to","type":"address"},{"internalType":"uint256","name":"tokenId","type":"uint256"},{"internalType":"bytes","name":"data","type":"bytes"}],"name":"safeTransferFrom","outputs":[],"stateMutability":"nonpayable","type":"function"},{"inputs":[{"internalType":"address","name":"operator","type":"address"},{"internalType":"bool","name":"approved","type":"bool"}],"name":"setApprovalForAll","outputs":[],"stateMutability":"nonpayable","type":"function"},{"inputs":[{"internalType":"bytes4","name":"interfaceId","type":"bytes4"}],"name":"supportsInterface","outputs":[{"internalType":"bool","name":"","type":"bool"}],"stateMutability":"view","type":"function"},{"inputs":[],"name":"symbol","outputs":[{"internalType":"string","name":"","type":"string"}],"stateMutability":"view","type":"function"},{"inputs":[],"name":"ticketIdCounter","outputs":[{"internalType":"uint256","name":"","type":"uint256"}],"stateMutability":"view","type":"function"},{"inputs":[{"internalType":"uint256","name":"","type":"uint256"}],"name":"ticketToEvent","outputs":[{"internalType":"uint256","name":"","type":"uint256"}],"stateMutability":"view","type":"function"},{"inputs":[{"internalType":"uint256","name":"","type":"uint256"}],"name":"tickets","outputs":[{"internalType":"uint256","name":"id","type":"uint256"},{"internalType":"uint256","name":"eventId","type":"uint256"},{"internalType":"uint256","name":"ticketNumber","type":"uint256"},{"internalType":"string","name":"metadataURI","type":"string"}],"stateMutability":"view","type":"function"},{"inputs":[{"internalType":"uint256","name":"index","type":"uint256"}],"name":"tokenByIndex","outputs":[{"internalType":"uint256","name":"","type":"uint256"}],"stateMutability":"view","type":"function"},{"inputs":[{"internalType":"address","name":"owner","type":"address"},{"internalType":"uint256","name":"index","type":"uint256"}],"name":"tokenOfOwnerByIndex","outputs":[{"internalType":"uint256","name":"","type":"uint256"}],"stateMutability":"view","type":"function"},{"inputs":[{"internalType":"uint256","name":"tokenId","type":"uint256"}],"name":"tokenURI","outputs":[{"internalType":"string","name":"","type":"string"}],"stateMutability":"view","type":"function"},{"inputs":[],"name":"totalSupply","outputs":[{"internalType":"uint256","name":"","type":"uint256"}],"stateMutability":"view","type":"function"},{"inputs":[{"internalType":"address","name":"from","type":"address"},{"internalType":"address","name":"to","type":"address"},{"internalType":"uint256","name":"tokenId","type":"uint256"}],"name":"transferFrom","outputs":[],"stateMutability":"nonpayable","type":"function"},{"inputs":[{"internalType":"address","name":"newOwner","type":"address"}],"name":"transferOwnership","outputs":[],"stateMutability":"nonpayable","type":"function"}],"devdoc":{"details":"NFT-based event ticketing system with marketplace functionality","errors":{"ERC721EnumerableForbiddenBatchMint()":[{"details":"Batch mint is not allowed."}],"ERC721IncorrectOwner(address,uint256,address)":[{"details":"Indicates an error related to the ownership over a particular token. Used in transfers.","params":{"owner":"Address of the current owner of a token.","sender":"Address whose tokens are being transferred.","tokenId":"Identifier number of a token."}}],"ERC721InsufficientApproval(address,uint256)":[{"details":"Indicates a failure with the `operator`’s approval. Used in transfers.","params":{"operator":"Address that may be allowed to operate on tokens without being their owner.","tokenId":"Identifier number of a token."}}],"ERC721InvalidApprover(address)":[{"details":"Indicates a failure with the `approver` of a token to be approved. Used in approvals.","params":{"approver":"Address initiating an approval operation."}}],"ERC721InvalidOperator(address)":[{"details":"Indicates a failure with the `operator` to be approved. Used in approvals.","params":{"operator":"Address that may be allowed to operate on tokens without being their owner."}}],"ERC721InvalidOwner(address)":[{"details":"Indicates that an address can't be an owner. For example, `address(0)` is a forbidden owner in EIP-20. Used in balance queries.","params":{"owner":"Address of the current owner of a token."}}],"ERC721InvalidReceiver(address)":[{"details":"Indicates a failure with the token `receiver`. Used in transfers.","params":{"receiver":"Address to which tokens are being transferred."}}],"ERC721InvalidSender(address)":[{"details":"Indicates a failure with the token `sender`. Used in transfers.","params":{"sender":"Address whose tokens are being transferred."}}],"ERC721NonexistentToken(uint256)":[{"details":"Indicates a `tokenId` whose `owner` is the zero address.","params":{"tokenId":"Identifier number of a token."}}],"ERC721OutOfBoundsIndex(address,uint256)":[{"details":"An `owner`'s token query was out of bounds for `index`. NOTE: The owner being `address(0)` indicates a global out of bounds index."}],"OwnableInvalidOwner(address)":[{"details":"The owner is not a valid owner account. (eg. `address(0)`)"}],"OwnableUnauthorizedAccount(address)":[{"details":"The caller account is not authorized to perform an operation."}],"ReentrancyGuardReentrantCall()":[{"details":"Unauthorized reentrant call."}]},"events":{"Approval(address,address,uint256)":{"details":"Emitted when `owner` enables `approved` to manage the `tokenId` token."},"ApprovalForAll(address,address,bool)":{"details":"Emitted when `owner` enables or disables (`approved`) `operator` to manage all of its assets."},"Transfer(address,address,uint256)":{"details":"Emitted when `tokenId` token is transferred from `from` to `to`."}},"kind":"dev","methods":{"approve(address,uint256)":{"details":"See {IERC721-approve}."},"balanceOf(address)":{"details":"See {IERC721-balanceOf}."},"buyListedTicket(uint256)":{"details":"Buy a ticket from the marketplace"},"buyTicket(uint256)":{"details":"Purchase a ticket for an event"},"cancelListing(uint256)":{"details":"Cancel a marketplace listing"},"createEvent(string,string,uint256,uint256,uint256)":{"details":"Create a new event"},"deactivateEvent(uint256)":{"details":"Emergency function to deactivate an event (only owner)"},"getActiveListings()":{"details":"Get active marketplace listings"},"getAllEvents()":{"details":"Get all events (for frontend display)"},"getApproved(uint256)":{"details":"See {IERC721-getApproved}."},"getEvent(uint256)":{"details":"Get event details"},"getMarketplaceListing(uint256)":{"details":"Get marketplace listing details"},"getTicket(uint256)":{"details":"Get ticket details"},"getTicketsByEventAndOwner(uint256,address)":{"details":"Get tickets owned by an address for a specific event"},"isApprovedForAll(address,address)":{"details":"See {IERC721-isApprovedForAll}."},"listTicket(uint256,uint256)":{"details":"List a ticket for resale on the marketplace"},"name()":{"details":"See {IERC721Metadata-name}."},"owner()":{"details":"Returns the address of the current owner."},"ownerOf(uint256)":{"details":"See {IERC721-ownerOf}."},"renounceOwnership()":{"details":"Leaves the contract without owner. It will not be possible to call `onlyOwner` functions. Can only be called by the current owner. NOTE: Renouncing ownership will leave the contract without an owner, thereby disabling any functionality that is only available to the owner."},"safeTransferFrom(address,address,uint256)":{"details":"See {IERC721-safeTransferFrom}."},"safeTransferFrom(address,address,uint256,bytes)":{"details":"See {IERC721-safeTransferFrom}."},"setApprovalForAll(address,bool)":{"details":"See {IERC721-setApprovalForAll}."},"supportsInterface(bytes4)":{"details":"See {IERC165-supportsInterface}."},"symbol()":{"details":"See {IERC721Metadata-symbol}."},"tokenByIndex(uint256)":{"details":"See {IERC721Enumerable-tokenByIndex}."},"tokenOfOwnerByIndex(address,uint256)":{"details":"See {IERC721Enumerable-tokenOfOwnerByIndex}."},"tokenURI(uint256)":{"details":"Override tokenURI to return ticket metadata"},"totalSupply()":{"details":"See {IERC721Enumerable-totalSupply}."},"transferFrom(address,address,uint256)":{"details":"See {IERC721-transferFrom}."},"transferOwnership(address)":{"details":"Transfers ownership of the contract to a new account (`newOwner`). Can only be called by the current owner."}},"title":"EventTicketNFT","version":1},"evm":{"bytecode":{"linkReferences":{},"object":"60806040523480156200001157600080fd5b50336040518060400160405280600e81526020016d115d995b9d151a58dad95d13919560921b81525060405180604001604052806005815260200164115513919560da1b8152508160009081620000699190620001b8565b506001620000788282620001b8565b5050506001600160a01b038116620000aa57604051631e4fbdf760e01b81526000600482015260240160405180910390fd5b620000b581620000c1565b506001600b5562000284565b600a80546001600160a01b038381166001600160a01b0319831681179093556040519116919082907f8be0079c531659141344cd1fd0a4f28419497f9722a3daafe3b4186f6b6457e090600090a35050565b634e487b7160e01b600052604160045260246000fd5b600181811c908216806200013e57607f821691505b6020821081036200015f57634e487b7160e01b600052602260045260246000fd5b50919050565b601f821115620001b357600081815260208120601f850160051c810160208610156200018e5750805b601f850160051c820191505b81811015620001af578281556001016200019a565b5050505b505050565b81516001600160401b03811115620001d457620001d462000113565b620001ec81620001e5845462000129565b8462000165565b602080601f8311600181146200022457600084156200020b5750858301515b600019600386901b1c1916600185901b178555620001af565b600085815260208120601f198616915b82811015620002555788860151825594840194600190910190840162000234565b5085821015620002745787850151600019600388901b60f8161c191681555b5050505050600190811b01905550565b6135c580620002946000396000f3fe60806040526004361061021a5760003560e01c806367dd74ca1161012357806395d89b41116100ab578063d5a87ecb1161006f578063d5a87ecb146106af578063e01a0ebe14610779578063e985e9c51461078f578063f2fde38b146107af578063f6ac04da146107cf57600080fd5b806395d89b4114610618578063a22cb4651461062d578063b88d4fde1461064d578063c27a500d1461066d578063c87b56dd1461068f57600080fd5b80637dc379fa116100f25780637dc379fa1461058257806387c35bc0146105af5780638802255f146105c45780638da5cb5b146105da578063957a632e146105f857600080fd5b806367dd74ca1461050d5780636d1884e01461052057806370a082311461054d578063715018a61461056d57600080fd5b8063305a905a116101a65780634f6ccce7116101755780634f6ccce71461045d578063502488531461047d57806350b44712146104905780636352211e146104c057806365ec74b0146104e057600080fd5b8063305a905a146103845780633c2fc56c146103a457806342842e0e146103c457806348c32093146103e457600080fd5b80630b791430116101ed5780630b791430146102d057806318160ddd1461030557806323b872dd146103245780632f745c5914610344578063305a67a81461036457600080fd5b806301ffc9a71461021f57806306fdde0314610254578063081812fc14610276578063095ea7b3146102ae575b600080fd5b34801561022b57600080fd5b5061023f61023a366004612cd7565b6107fc565b60405190151581526020015b60405180910390f35b34801561026057600080fd5b50610269610827565b60405161024b9190612d4b565b34801561028257600080fd5b50610296610291366004612d5e565b6108b9565b6040516001600160a01b03909116815260200161024b565b3480156102ba57600080fd5b506102ce6102c9366004612d8e565b6108e2565b005b3480156102dc57600080fd5b506102f06102eb366004612d5e565b6108f1565b60405161024b99989796959493929190612db8565b34801561031157600080fd5b506008545b60405190815260200161024b565b34801561033057600080fd5b506102ce61033f366004612e26565b610a59565b34801561035057600080fd5b5061031661035f366004612d8e565b610ae9565b34801561037057600080fd5b506102ce61037f366004612d5e565b610b4e565b34801561039057600080fd5b506102ce61039f366004612e62565b610c3a565b3480156103b057600080fd5b506103166103bf366004612f30565b610e72565b3480156103d057600080fd5b506102ce6103df366004612e26565b611113565b3480156103f057600080fd5b506104336103ff366004612d5e565b601060205260009081526040902080546001820154600283015460039093015491926001600160a01b039091169160ff1684565b604080519485526001600160a01b039093166020850152918301521515606082015260800161024b565b34801561046957600080fd5b50610316610478366004612d5e565b611133565b6102ce61048b366004612d5e565b61118c565b34801561049c57600080fd5b506104b06104ab366004612d5e565b611452565b60405161024b9493929190612faf565b3480156104cc57600080fd5b506102966104db366004612d5e565b611505565b3480156104ec57600080fd5b506105006104fb366004612fde565b611510565b60405161024b919061300a565b61031661051b366004612d5e565b61167d565b34801561052c57600080fd5b5061054061053b366004612d5e565b61198f565b60405161024b91906130e4565b34801561055957600080fd5b506103166105683660046130f7565b611b38565b34801561057957600080fd5b506102ce611b80565b34801561058e57600080fd5b506105a261059d366004612d5e565b611b94565b60405161024b9190613112565b3480156105bb57600080fd5b50610500611c94565b3480156105d057600080fd5b50610316600d5481565b3480156105e657600080fd5b50600a546001600160a01b0316610296565b34801561060457600080fd5b506102ce610613366004612d5e565b611d95565b34801561062457600080fd5b50610269611dbb565b34801561063957600080fd5b506102ce61064836600461314b565b611dca565b34801561065957600080fd5b506102ce610668366004613187565b611dd5565b34801561067957600080fd5b50610682611dec565b60405161024b9190613203565b34801561069b57600080fd5b506102696106aa366004612d5e565b61202e565b3480156106bb57600080fd5b5061073b6106ca366004612d5e565b604080516080808201835260008083526020808401829052838501829052606093840182905294815260108552839020835191820184528054825260018101546001600160a01b03169482019490945260028401549281019290925260039092015460ff1615159181019190915290565b60405161024b9190815181526020808301516001600160a01b0316908201526040808301519082015260609182015115159181019190915260800190565b34801561078557600080fd5b50610316600c5481565b34801561079b57600080fd5b5061023f6107aa366004613265565b6120db565b3480156107bb57600080fd5b506102ce6107ca3660046130f7565b612109565b3480156107db57600080fd5b506103166107ea366004612d5e565b60116020526000908152604090205481565b60006001600160e01b0319821663780e9d6360e01b1480610821575061082182612144565b92915050565b6060600080546108369061328f565b80601f01602080910402602001604051908101604052809291908181526020018280546108629061328f565b80156108af5780601f10610884576101008083540402835291602001916108af565b820191906000526020600020905b81548152906001019060200180831161089257829003601f168201915b5050505050905090565b60006108c482612194565b506000828152600460205260409020546001600160a01b0316610821565b6108ed8282336121cd565b5050565b600e60205260009081526040902080546001820180549192916109139061328f565b80601f016020809104026020016040519081016040528092919081815260200182805461093f9061328f565b801561098c5780601f106109615761010080835404028352916020019161098c565b820191906000526020600020905b81548152906001019060200180831161096f57829003601f168201915b5050505050908060020180546109a19061328f565b80601f01602080910402602001604051908101604052809291908181526020018280546109cd9061328f565b8015610a1a5780601f106109ef57610100808354040283529160200191610a1a565b820191906000526020600020905b8154815290600101906020018083116109fd57829003601f168201915b50505060038401546004850154600586015460068701546007909701549596929591945092506001600160a01b0381169060ff600160a01b9091041689565b6001600160a01b038216610a8857604051633250574960e11b8152600060048201526024015b60405180910390fd5b6000610a958383336121da565b9050836001600160a01b0316816001600160a01b031614610ae3576040516364283d7b60e01b81526001600160a01b0380861660048301526024820184905282166044820152606401610a7f565b50505050565b6000610af483611b38565b8210610b255760405163295f44f760e21b81526001600160a01b038416600482015260248101839052604401610a7f565b506001600160a01b03919091166000908152600660209081526040808320938352929052205490565b600081815260106020526040902060018101546001600160a01b03163314610bb15760405162461bcd60e51b81526020600482015260166024820152752cb7ba9030b932903737ba103a34329039b2b63632b960511b6044820152606401610a7f565b600381015460ff16610bfd5760405162461bcd60e51b81526020600482015260156024820152744c697374696e67206973206e6f742061637469766560581b6044820152606401610a7f565b60038101805460ff19169055604051339083907f76c5d8a17d0bee8bd0e004133353cd78ede70ac9ace2aa18bf839e748caff29090600090a35050565b33610c4483611505565b6001600160a01b031614610c9a5760405162461bcd60e51b815260206004820152601960248201527f596f7520646f6e2774206f776e2074686973207469636b6574000000000000006044820152606401610a7f565b60008111610cea5760405162461bcd60e51b815260206004820152601c60248201527f5072696365206d7573742062652067726561746572207468616e2030000000006044820152606401610a7f565b60008281526010602052604090206003015460ff1615610d4c5760405162461bcd60e51b815260206004820152601860248201527f5469636b657420697320616c7265616479206c697374656400000000000000006044820152606401610a7f565b600082815260116020908152604080832054808452600e909252909120600301544210610dc75760405162461bcd60e51b815260206004820152602360248201527f43616e6e6f742073656c6c207469636b65747320666f722070617374206576656044820152626e747360e81b6064820152608401610a7f565b6040805160808101825284815233602080830182815283850187815260016060860181815260008b81526010865288902096518755925190860180546001600160a01b0319166001600160a01b03909216919091179055516002850155516003909301805460ff191693151593909317909255915184815285917f22968ec3be3687b180f3544163a034b88d57b48159d9a7e9a1b610fdb2d05f8091015b60405180910390a3505050565b6000428411610ec35760405162461bcd60e51b815260206004820181905260248201527f4576656e742064617465206d75737420626520696e20746865206675747572656044820152606401610a7f565b60008311610f1f5760405162461bcd60e51b815260206004820152602360248201527f5469636b6574207072696365206d75737420626520677265617465722074686160448201526206e20360ec1b6064820152608401610a7f565b60008211610f795760405162461bcd60e51b815260206004820152602160248201527f4d617820737570706c79206d7573742062652067726561746572207468616e206044820152600360fc1b6064820152608401610a7f565b6000865111610fca5760405162461bcd60e51b815260206004820152601a60248201527f4576656e74206e616d652063616e6e6f7420626520656d7074790000000000006044820152606401610a7f565b600c8054906000610fda836132d9565b9091555050600c54604080516101208101825282815260208082018a81528284018a9052606083018990526080830188905260a08301879052600060c084018190523360e085015260016101008501819052868252600e909352939093208251815592519192919082019061104f9082613340565b50604082015160028201906110649082613340565b50606082015160038201556080820151600482015560a0820151600582015560c0820151600682015560e082015160079091018054610100909301511515600160a01b026001600160a81b03199093166001600160a01b0390921691909117919091179055604051339082907f81f945738beff591c3eab232e9f3265ce3f12263a2ec7acf84db8dc0fce26a2790611101908b9089908990613400565b60405180910390a39695505050505050565b61112e83838360405180602001604052806000815250611dd5565b505050565b600061113e60085490565b82106111675760405163295f44f760e21b81526000600482015260248101839052604401610a7f565b6008828154811061117a5761117a613425565b90600052602060002001549050919050565b61119461225b565b6000818152601060205260409020600381015460ff166111f65760405162461bcd60e51b815260206004820152601d60248201527f5469636b6574206973206e6f74206c697374656420666f722073616c650000006044820152606401610a7f565b80600201543410156112415760405162461bcd60e51b8152602060048201526014602482015273125b9cdd59999a58da595b9d081c185e5b595b9d60621b6044820152606401610a7f565b60018101546001600160a01b031661125883611505565b6001600160a01b0316146112ae5760405162461bcd60e51b815260206004820181905260248201527f53656c6c6572206e6f206c6f6e676572206f776e7320746865207469636b65746044820152606401610a7f565b600082815260116020908152604080832054808452600e9092529091206003015442106113285760405162461bcd60e51b815260206004820152602260248201527f43616e6e6f7420627579207469636b65747320666f722070617374206576656e604482015261747360f01b6064820152608401610a7f565b6001820154600283015460038401805460ff191690556001600160a01b0390911690611355823387612285565b6000826001600160a01b03163460405160006040518083038185875af1925050503d80600081146113a2576040519150601f19603f3d011682016040523d82523d6000602084013e6113a7565b606091505b50509050806113f25760405162461bcd60e51b815260206004820152601760248201527614185e5b595b9d081d1c985b9cd9995c8819985a5b1959604a1b6044820152606401610a7f565b336001600160a01b0316836001600160a01b0316877f2bbc64d6afd28a753f6c5e4aaa894f1d684c44a0e080167eae104ac8505cfebd8560405161143891815260200190565b60405180910390a4505050505061144f6001600b55565b50565b600f602052600090815260409020805460018201546002830154600384018054939492939192916114829061328f565b80601f01602080910402602001604051908101604052809291908181526020018280546114ae9061328f565b80156114fb5780601f106114d0576101008083540402835291602001916114fb565b820191906000526020600020905b8154815290600101906020018083116114de57829003601f168201915b5050505050905084565b600061082182612194565b6060600061151d83611b38565b905060008167ffffffffffffffff81111561153a5761153a612e84565b604051908082528060200260200182016040528015611563578160200160208202803683370190505b5090506000805b838110156115d657600061157e8783610ae9565b6000818152601160205260409020549091508890036115c357808484815181106115aa576115aa613425565b6020908102919091010152826115bf816132d9565b9350505b50806115ce816132d9565b91505061156a565b5060008167ffffffffffffffff8111156115f2576115f2612e84565b60405190808252806020026020018201604052801561161b578160200160208202803683370190505b50905060005b828110156116725783818151811061163b5761163b613425565b602002602001015182828151811061165557611655613425565b60209081029190910101528061166a816132d9565b915050611621565b509695505050505050565b600061168761225b565b6000828152600e602052604090206007810154600160a01b900460ff166116e65760405162461bcd60e51b81526020600482015260136024820152724576656e74206973206e6f742061637469766560681b6044820152606401610a7f565b80600501548160060154106117315760405162461bcd60e51b8152602060048201526011602482015270115d995b9d081a5cc81cdbdb19081bdd5d607a1b6044820152606401610a7f565b806004015434101561177c5760405162461bcd60e51b8152602060048201526014602482015273125b9cdd59999a58da595b9d081c185e5b595b9d60621b6044820152606401610a7f565b806003015442106117cf5760405162461bcd60e51b815260206004820152601860248201527f4576656e742068617320616c72656164792070617373656400000000000000006044820152606401610a7f565b600d80549060006117df836132d9565b9091555050600d5460068201546000906117fa90600161343b565b600684018054919250600061180e836132d9565b9190505550604051806080016040528083815260200186815260200182815260200161183a8784612335565b90526000838152600f602090815260409182902083518155908301516001820155908201516002820155606082015160038201906118789082613340565b50505060008281526011602052604090208590556118963383612371565b60078301546040516000916001600160a01b03169034908381818185875af1925050503d80600081146118e5576040519150601f19603f3d011682016040523d82523d6000602084013e6118ea565b606091505b50509050806119355760405162461bcd60e51b815260206004820152601760248201527614185e5b595b9d081d1c985b9cd9995c8819985a5b1959604a1b6044820152606401610a7f565b336001600160a01b031686847f4fe0f5bb11eb6ab81c428fb83261719e5b22f84b3e1942cd491c3777504bb8518560405161197291815260200190565b60405180910390a450909250505061198a6001600b55565b919050565b611997612c6a565b600e600083815260200190815260200160002060405180610120016040529081600082015481526020016001820180546119d09061328f565b80601f01602080910402602001604051908101604052809291908181526020018280546119fc9061328f565b8015611a495780601f10611a1e57610100808354040283529160200191611a49565b820191906000526020600020905b815481529060010190602001808311611a2c57829003601f168201915b50505050508152602001600282018054611a629061328f565b80601f0160208091040260200160405190810160405280929190818152602001828054611a8e9061328f565b8015611adb5780601f10611ab057610100808354040283529160200191611adb565b820191906000526020600020905b815481529060010190602001808311611abe57829003601f168201915b5050509183525050600382015460208201526004820154604082015260058201546060820152600682015460808201526007909101546001600160a01b03811660a0830152600160a01b900460ff16151560c09091015292915050565b60006001600160a01b038216611b64576040516322718ad960e21b815260006004820152602401610a7f565b506001600160a01b031660009081526003602052604090205490565b611b8861238b565b611b9260006123b8565b565b611bbf6040518060800160405280600081526020016000815260200160008152602001606081525090565b600f6000838152602001908152602001600020604051806080016040529081600082015481526020016001820154815260200160028201548152602001600382018054611c0b9061328f565b80601f0160208091040260200160405190810160405280929190818152602001828054611c379061328f565b8015611c845780601f10611c5957610100808354040283529160200191611c84565b820191906000526020600020905b815481529060010190602001808311611c6757829003601f168201915b5050505050815250509050919050565b6060600060015b600d548111611cde5760008181526010602052604090206003015460ff1615611ccc5781611cc8816132d9565b9250505b80611cd6816132d9565b915050611c9b565b5060008167ffffffffffffffff811115611cfa57611cfa612e84565b604051908082528060200260200182016040528015611d23578160200160208202803683370190505b509050600060015b600d548111611d8c5760008181526010602052604090206003015460ff1615611d7a5780838381518110611d6157611d61613425565b602090810291909101015281611d76816132d9565b9250505b80611d84816132d9565b915050611d2b565b50909392505050565b611d9d61238b565b6000908152600e60205260409020600701805460ff60a01b19169055565b6060600180546108369061328f565b6108ed33838361240a565b611de0848484610a59565b610ae3848484846124a1565b60606000600c5467ffffffffffffffff811115611e0b57611e0b612e84565b604051908082528060200260200182016040528015611e4457816020015b611e31612c6a565b815260200190600190039081611e295790505b50905060015b600c54811161202857600e60008281526020019081526020016000206040518061012001604052908160008201548152602001600182018054611e8c9061328f565b80601f0160208091040260200160405190810160405280929190818152602001828054611eb89061328f565b8015611f055780601f10611eda57610100808354040283529160200191611f05565b820191906000526020600020905b815481529060010190602001808311611ee857829003601f168201915b50505050508152602001600282018054611f1e9061328f565b80601f0160208091040260200160405190810160405280929190818152602001828054611f4a9061328f565b8015611f975780601f10611f6c57610100808354040283529160200191611f97565b820191906000526020600020905b815481529060010190602001808311611f7a57829003601f168201915b5050509183525050600382015460208201526004820154604082015260058201546060820152600682015460808201526007909101546001600160a01b03811660a0830152600160a01b900460ff16151560c09091015282611ffa60018461344e565b8151811061200a5761200a613425565b60200260200101819052508080612020906132d9565b915050611e4a565b50919050565b606061203982612194565b506000828152600f6020526040902060030180546120569061328f565b80601f01602080910402602001604051908101604052809291908181526020018280546120829061328f565b80156120cf5780601f106120a4576101008083540402835291602001916120cf565b820191906000526020600020905b8154815290600101906020018083116120b257829003601f168201915b50505050509050919050565b6001600160a01b03918216600090815260056020908152604080832093909416825291909152205460ff1690565b61211161238b565b6001600160a01b03811661213b57604051631e4fbdf760e01b815260006004820152602401610a7f565b61144f816123b8565b60006001600160e01b031982166380ac58cd60e01b148061217557506001600160e01b03198216635b5e139f60e01b145b8061082157506301ffc9a760e01b6001600160e01b0319831614610821565b6000818152600260205260408120546001600160a01b03168061082157604051637e27328960e01b815260048101849052602401610a7f565b61112e83838360016125ca565b60008281526010602052604081206003015460ff16156122485760008381526010602052604080822060038101805460ff191690556001015490516001600160a01b039091169185917f76c5d8a17d0bee8bd0e004133353cd78ede70ac9ace2aa18bf839e748caff2909190a35b6122538484846126d0565b949350505050565b6002600b540361227e57604051633ee5aeb560e01b815260040160405180910390fd5b6002600b55565b6001600160a01b0382166122af57604051633250574960e11b815260006004820152602401610a7f565b60006122bd838360006121da565b90506001600160a01b0381166122e957604051637e27328960e01b815260048101839052602401610a7f565b836001600160a01b0316816001600160a01b031614610ae3576040516364283d7b60e01b81526001600160a01b0380861660048301526024820184905282166044820152606401610a7f565b60606123408361279d565b6123498361279d565b60405160200161235a929190613461565b604051602081830303815290604052905092915050565b6108ed82826040518060200160405280600081525061289e565b600a546001600160a01b03163314611b925760405163118cdaa760e01b8152336004820152602401610a7f565b600a80546001600160a01b038381166001600160a01b0319831681179093556040519116919082907f8be0079c531659141344cd1fd0a4f28419497f9722a3daafe3b4186f6b6457e090600090a35050565b6001600160a01b03821661243c57604051630b61174360e31b81526001600160a01b0383166004820152602401610a7f565b6001600160a01b03838116600081815260056020908152604080832094871680845294825291829020805460ff191686151590811790915591519182527f17307eab39ab6107e8899845ad3d59bd9653f200f220920489ca2b5937696c319101610e65565b6001600160a01b0383163b15610ae357604051630a85bd0160e11b81526001600160a01b0384169063150b7a02906124e39033908890879087906004016134eb565b6020604051808303816000875af192505050801561251e575060408051601f3d908101601f1916820190925261251b9181019061351e565b60015b612587573d80801561254c576040519150601f19603f3d011682016040523d82523d6000602084013e612551565b606091505b50805160000361257f57604051633250574960e11b81526001600160a01b0385166004820152602401610a7f565b805181602001fd5b6001600160e01b03198116630a85bd0160e11b146125c357604051633250574960e11b81526001600160a01b0385166004820152602401610a7f565b5050505050565b80806125de57506001600160a01b03821615155b156126a05760006125ee84612194565b90506001600160a01b0383161580159061261a5750826001600160a01b0316816001600160a01b031614155b801561262d575061262b81846120db565b155b156126565760405163a9fbf51f60e01b81526001600160a01b0384166004820152602401610a7f565b811561269e5783856001600160a01b0316826001600160a01b03167f8c5be1e5ebec7d5bd14f71427d1e84f3dd0314c0f7b2291e5b200ac8c7c3b92560405160405180910390a45b505b5050600090815260046020526040902080546001600160a01b0319166001600160a01b0392909216919091179055565b6000806126de8585856128b5565b90506001600160a01b03811661273b5761273684600880546000838152600960205260408120829055600182018355919091527ff3f7a9fe364faab93b216da50a3214154f22a0a2b415b23a84c8169e8b636ee30155565b61275e565b846001600160a01b0316816001600160a01b03161461275e5761275e81856129ae565b6001600160a01b03851661277a5761277584612a3f565b612253565b846001600160a01b0316816001600160a01b031614612253576122538585612aee565b6060816000036127c45750506040805180820190915260018152600360fc1b602082015290565b8160005b81156127ee57806127d8816132d9565b91506127e79050600a83613551565b91506127c8565b60008167ffffffffffffffff81111561280957612809612e84565b6040519080825280601f01601f191660200182016040528015612833576020820181803683370190505b5090505b84156122535761284860018361344e565b9150612855600a86613565565b61286090603061343b565b60f81b81838151811061287557612875613425565b60200101906001600160f81b031916908160001a905350612897600a86613551565b9450612837565b6128a88383612b3e565b61112e60008484846124a1565b6000828152600260205260408120546001600160a01b03908116908316156128e2576128e2818486612ba3565b6001600160a01b03811615612920576128ff6000856000806125ca565b6001600160a01b038116600090815260036020526040902080546000190190555b6001600160a01b0385161561294f576001600160a01b0385166000908152600360205260409020805460010190555b60008481526002602052604080822080546001600160a01b0319166001600160a01b0389811691821790925591518793918516917fddf252ad1be2c89b69c2b068fc378daa952ba7f163c4a11628f55a4df523b3ef91a4949350505050565b60006129b983611b38565b600083815260076020526040902054909150808214612a0c576001600160a01b03841660009081526006602090815260408083208584528252808320548484528184208190558352600790915290208190555b5060009182526007602090815260408084208490556001600160a01b039094168352600681528383209183525290812055565b600854600090612a519060019061344e565b60008381526009602052604081205460088054939450909284908110612a7957612a79613425565b906000526020600020015490508060088381548110612a9a57612a9a613425565b6000918252602080832090910192909255828152600990915260408082208490558582528120556008805480612ad257612ad2613579565b6001900381819060005260206000200160009055905550505050565b60006001612afb84611b38565b612b05919061344e565b6001600160a01b039093166000908152600660209081526040808320868452825280832085905593825260079052919091209190915550565b6001600160a01b038216612b6857604051633250574960e11b815260006004820152602401610a7f565b6000612b76838360006121da565b90506001600160a01b0381161561112e576040516339e3563760e11b815260006004820152602401610a7f565b612bae838383612c07565b61112e576001600160a01b038316612bdc57604051637e27328960e01b815260048101829052602401610a7f565b60405163177e802f60e01b81526001600160a01b038316600482015260248101829052604401610a7f565b60006001600160a01b038316158015906122535750826001600160a01b0316846001600160a01b03161480612c415750612c4184846120db565b806122535750506000908152600460205260409020546001600160a01b03908116911614919050565b6040518061012001604052806000815260200160608152602001606081526020016000815260200160008152602001600081526020016000815260200160006001600160a01b031681526020016000151581525090565b6001600160e01b03198116811461144f57600080fd5b600060208284031215612ce957600080fd5b8135612cf481612cc1565b9392505050565b60005b83811015612d16578181015183820152602001612cfe565b50506000910152565b60008151808452612d37816020860160208601612cfb565b601f01601f19169290920160200192915050565b602081526000612cf46020830184612d1f565b600060208284031215612d7057600080fd5b5035919050565b80356001600160a01b038116811461198a57600080fd5b60008060408385031215612da157600080fd5b612daa83612d77565b946020939093013593505050565b60006101208b8352806020840152612dd28184018c612d1f565b90508281036040840152612de6818b612d1f565b60608401999099525050608081019590955260a085019390935260c08401919091526001600160a01b031660e08301521515610100909101529392505050565b600080600060608486031215612e3b57600080fd5b612e4484612d77565b9250612e5260208501612d77565b9150604084013590509250925092565b60008060408385031215612e7557600080fd5b50508035926020909101359150565b634e487b7160e01b600052604160045260246000fd5b600067ffffffffffffffff80841115612eb557612eb5612e84565b604051601f8501601f19908116603f01168101908282118183101715612edd57612edd612e84565b81604052809350858152868686011115612ef657600080fd5b858560208301376000602087830101525050509392505050565b600082601f830112612f2157600080fd5b612cf483833560208501612e9a565b600080600080600060a08688031215612f4857600080fd5b853567ffffffffffffffff80821115612f6057600080fd5b612f6c89838a01612f10565b96506020880135915080821115612f8257600080fd5b50612f8f88828901612f10565b959895975050505060408401359360608101359360809091013592509050565b848152836020820152826040820152608060608201526000612fd46080830184612d1f565b9695505050505050565b60008060408385031215612ff157600080fd5b8235915061300160208401612d77565b90509250929050565b6020808252825182820181905260009190848201906040850190845b8181101561304257835183529284019291840191600101613026565b50909695505050505050565b600061012082518452602083015181602086015261306e82860182612d1f565b915050604083015184820360408601526130888282612d1f565b915050606083015160608501526080830151608085015260a083015160a085015260c083015160c085015260e08301516130cd60e08601826001600160a01b03169052565b506101009283015115159390920192909252919050565b602081526000612cf4602083018461304e565b60006020828403121561310957600080fd5b612cf482612d77565b602081528151602082015260208201516040820152604082015160608201526000606083015160808084015261225360a0840182612d1f565b6000806040838503121561315e57600080fd5b61316783612d77565b91506020830135801515811461317c57600080fd5b809150509250929050565b6000806000806080858703121561319d57600080fd5b6131a685612d77565b93506131b460208601612d77565b925060408501359150606085013567ffffffffffffffff8111156131d757600080fd5b8501601f810187136131e857600080fd5b6131f787823560208401612e9a565b91505092959194509250565b6000602080830181845280855180835260408601915060408160051b870101925083870160005b8281101561325857603f1988860301845261324685835161304e565b9450928501929085019060010161322a565b5092979650505050505050565b6000806040838503121561327857600080fd5b61328183612d77565b915061300160208401612d77565b600181811c908216806132a357607f821691505b60208210810361202857634e487b7160e01b600052602260045260246000fd5b634e487b7160e01b600052601160045260246000fd5b6000600182016132eb576132eb6132c3565b5060010190565b601f82111561112e57600081815260208120601f850160051c810160208610156133195750805b601f850160051c820191505b8181101561333857828155600101613325565b505050505050565b815167ffffffffffffffff81111561335a5761335a612e84565b61336e81613368845461328f565b846132f2565b602080601f8311600181146133a3576000841561338b5750858301515b600019600386901b1c1916600185901b178555613338565b600085815260208120601f198616915b828110156133d2578886015182559484019460019091019084016133b3565b50858210156133f05787850151600019600388901b60f8161c191681555b5050505050600190811b01905550565b6060815260006134136060830186612d1f565b60208301949094525060400152919050565b634e487b7160e01b600052603260045260246000fd5b80820180821115610821576108216132c3565b81810381811115610821576108216132c3565b7f68747470733a2f2f697066732e696f2f697066732f516d5469636b65744d6574815264616461746160d81b6020820152662f6576656e742f60c81b6025820152600083516134b781602c850160208801612cfb565b672f7469636b65742f60c01b602c9184019182015283516134df816034840160208801612cfb565b01603401949350505050565b6001600160a01b0385811682528416602082015260408101839052608060608201819052600090612fd490830184612d1f565b60006020828403121561353057600080fd5b8151612cf481612cc1565b634e487b7160e01b600052601260045260246000fd5b6000826135605761356061353b565b500490565b6000826135745761357461353b565b500690565b634e487b7160e01b600052603160045260246000fdfea2646970667358221220b426628987e066075152bc81d0a1fa5fe446cf033c160bd3f40d77e1396c2d6b64736f6c63430008140033","opcodes":"PUSH1 0x80 PUSH1 0x40 MSTORE CALLVALUE DUP1 ISZERO PUSH3 0x11 JUMPI PUSH1 0x0 DUP1 REVERT JUMPDEST POP CALLER PUSH1 0x40 MLOAD DUP1 PUSH1 0x40 ADD PUSH1 0x40 MSTORE DUP1 PUSH1 0xE DUP2 MSTORE PUSH1 0x20 ADD PUSH14 0x115D995B9D151A58DAD95D139195 PUSH1 0x92 SHL DUP2 MSTORE POP PUSH1 0x40 MLOAD DUP1 PUSH1 0x40 ADD PUSH1 0x40 MSTORE DUP1 PUSH1 0x5 DUP2 MSTORE PUSH1 0x20 ADD PUSH5 0x1155139195 PUSH1 0xDA SHL DUP2 MSTORE POP DUP2 PUSH1 0x0 SWAP1 DUP2 PUSH3 0x69 SWAP2 SWAP1 PUSH3 0x1B8 JUMP JUMPDEST POP PUSH1 0x1 PUSH3 0x78 DUP3 DUP3 PUSH3 0x1B8 JUMP JUMPDEST POP POP POP PUSH1 0x1 PUSH1 0x1 PUSH1 0xA0 SHL SUB DUP2 AND PUSH3 0xAA JUMPI PUSH1 0x40 MLOAD PUSH4 0x1E4FBDF7 PUSH1 0xE0 SHL DUP2 MSTORE PUSH1 0x0 PUSH1 0x4 DUP3 ADD MSTORE PUSH1 0x24 ADD PUSH1 0x40 MLOAD DUP1 SWAP2 SUB SWAP1 REVERT JUMPDEST PUSH3 0xB5 DUP2 PUSH3 0xC1 JUMP JUMPDEST POP PUSH1 0x1 PUSH1 0xB SSTORE PUSH3 0x284 JUMP JUMPDEST PUSH1 0xA DUP1 SLOAD PUSH1 0x1 PUSH1 0x1 PUSH1 0xA0 SHL SUB DUP4 DUP2 AND PUSH1 0x1 PUSH1 0x1 PUSH1 0xA0 SHL SUB NOT DUP4 AND DUP2 OR SWAP1 SWAP4 SSTORE PUSH1 0x40 MLOAD SWAP2 AND SWAP2 SWAP1 DUP3 SWAP1 PUSH32 0x8BE0079C531659141344CD1FD0A4F28419497F9722A3DAAFE3B4186F6B6457E0 SWAP1 PUSH1 0x0 SWAP1 LOG3 POP POP JUMP JUMPDEST PUSH4 0x4E487B71 PUSH1 0xE0 SHL PUSH1 0x0 MSTORE PUSH1 0x41 PUSH1 0x4 MSTORE PUSH1 0x24 PUSH1 0x0 REVERT JUMPDEST PUSH1 0x1 DUP2 DUP2 SHR SWAP1 DUP3 AND DUP1 PUSH3 0x13E JUMPI PUSH1 0x7F DUP3 AND SWAP2 POP JUMPDEST PUSH1 0x20 DUP3 LT DUP2 SUB PUSH3 0x15F JUMPI PUSH4 0x4E487B71 PUSH1 0xE0 SHL PUSH1 0x0 MSTORE PUSH1 0x22 PUSH1 0x4 MSTORE PUSH1 0x24 PUSH1 0x0 REVERT JUMPDEST POP SWAP2 SWAP1 POP JUMP JUMPDEST PUSH1 0x1F DUP3 GT ISZERO PUSH3 0x1B3 JUMPI PUSH1 0x0 DUP2 DUP2 MSTORE PUSH1 0x20 DUP2 KECCAK256 PUSH1 0x1F DUP6 ADD PUSH1 0x5 SHR DUP2 ADD PUSH1 0x20 DUP7 LT ISZERO PUSH3 0x18E JUMPI POP DUP1 JUMPDEST PUSH1 0x1F DUP6 ADD PUSH1 0x5 SHR DUP3 ADD SWAP2 POP JUMPDEST DUP2 DUP2 LT ISZERO PUSH3 0x1AF JUMPI DUP3 DUP2 SSTORE PUSH1 0x1 ADD PUSH3 0x19A JUMP JUMPDEST POP POP POP JUMPDEST POP POP POP JUMP JUMPDEST DUP2 MLOAD PUSH1 0x1 PUSH1 0x1 PUSH1 0x40 SHL SUB DUP2 GT ISZERO PUSH3 0x1D4 JUMPI PUSH3 0x1D4 PUSH3 0x113 JUMP JUMPDEST PUSH3 0x1EC DUP2 PUSH3 0x1E5 DUP5 SLOAD PUSH3 0x129 JUMP JUMPDEST DUP5 PUSH3 0x165 JUMP JUMPDEST PUSH1 0x20 DUP1 PUSH1 0x1F DUP4 GT PUSH1 0x1 DUP2 EQ PUSH3 0x224 JUMPI PUSH1 0x0 DUP5 ISZERO PUSH3 0x20B JUMPI POP DUP6 DUP4 ADD MLOAD JUMPDEST PUSH1 0x0 NOT PUSH1 0x3 DUP7 SWAP1 SHL SHR NOT AND PUSH1 0x1 DUP6 SWAP1 SHL OR DUP6 SSTORE PUSH3 0x1AF JUMP JUMPDEST PUSH1 0x0 DUP6 DUP2 MSTORE PUSH1 0x20 DUP2 KECCAK256 PUSH1 0x1F NOT DUP7 AND SWAP2 JUMPDEST DUP3 DUP2 LT ISZERO PUSH3 0x255 JUMPI DUP9 DUP7 ADD MLOAD DUP3 SSTORE SWAP5 DUP5 ADD SWAP5 PUSH1 0x1 SWAP1 SWAP2 ADD SWAP1 DUP5 ADD PUSH3 0x234 JUMP JUMPDEST POP DUP6 DUP3 LT ISZERO PUSH3 0x274 JUMPI DUP8 DUP6 ADD MLOAD PUSH1 0x0 NOT PUSH1 0x3 DUP9 SWAP1 SHL PUSH1 0xF8 AND SHR NOT AND DUP2 SSTORE JUMPDEST POP POP POP POP POP PUSH1 0x1 SWAP1 DUP2 SHL ADD SWAP1 SSTORE POP JUMP JUMPDEST PUSH2 0x35C5 DUP1 PUSH3 0x294 PUSH1 0x0 CODECOPY PUSH1 0x0 RETURN INVALID PUSH1 0x80 PUSH1 0x40 MSTORE PUSH1 0x4 CALLDATASIZE LT PUSH2 0x21A JUMPI PUSH1 0x0 CALLDATALOAD PUSH1 0xE0 SHR DUP1 PUSH4 0x67DD74CA GT PUSH2 0x123 JUMPI DUP1 PUSH4 0x95D89B41 GT PUSH2 0xAB JUMPI DUP1 PUSH4 0xD5A87ECB GT PUSH2 0x6F JUMPI DUP1 PUSH4 0xD5A87ECB EQ PUSH2 0x6AF JUMPI DUP1 PUSH4 0xE01A0EBE EQ PUSH2 0x779 JUMPI DUP1 PUSH4 0xE985E9C5 EQ PUSH2 0x78F JUMPI DUP1 PUSH4 0xF2FDE38B EQ PUSH2 0x7AF JUMPI DUP1 PUSH4 0xF6AC04DA EQ PUSH2 0x7CF JUMPI PUSH1 0x0 DUP1 REVERT JUMPDEST DUP1 PUSH4 0x95D89B41 EQ PUSH2 0x618 JUMPI DUP1 PUSH4 0xA22CB465 EQ PUSH2 0x62D JUMPI DUP1 PUSH4 0xB88D4FDE EQ PUSH2 0x64D JUMPI DUP1 PUSH4 0xC27A500D EQ PUSH2 0x66D JUMPI DUP1 PUSH4 0xC87B56DD EQ PUSH2 0x68F JUMPI PUSH1 0x0 DUP1 REVERT JUMPDEST DUP1 PUSH4 0x7DC379FA GT PUSH2 0xF2 JUMPI DUP1 PUSH4 0x7DC379FA EQ PUSH2 0x582 JUMPI DUP1 PUSH4 0x87C35BC0 EQ PUSH2 0x5AF JUMPI DUP1 PUSH4 0x8802255F EQ PUSH2 0x5C4 JUMPI DUP1 PUSH4 0x8DA5CB5B EQ PUSH2 0x5DA JUMPI DUP1 PUSH4 0x957A632E EQ PUSH2 0x5F8 JUMPI PUSH1 0x0 DUP1 REVERT JUMPDEST DUP1 PUSH4 0x67DD74CA EQ PUSH2 0x50D JUMPI DUP1 PUSH4 0x6D1884E0 EQ PUSH2 0x520 JUMPI DUP1 PUSH4 0x70A08231 EQ PUSH2 0x54D JUMPI DUP1 PUSH4 0x715018A6 EQ PUSH2 0x56D JUMPI PUSH1 0x0 DUP1 REVERT JUMPDEST DUP1 PUSH4 0x305A905A GT PUSH2 0x1A6 JUMPI DUP1 PUSH4 0x4F6CCCE7 GT PUSH2 0x175 JUMPI DUP1 PUSH4 0x4F6CCCE7 EQ PUSH2 0x45D JUMPI DUP1 PUSH4 0x50248853 EQ PUSH2 0x47D JUMPI DUP1 PUSH4 0x50B44712 EQ PUSH2 0x490 JUMPI DUP1 PUSH4 0x6352211E EQ PUSH2 0x4C0 JUMPI DUP1 PUSH4 0x65EC74B0 EQ PUSH2 0x4E0 JUMPI PUSH1 0x0 DUP1 REVERT JUMPDEST DUP1 PUSH4 0x305A905A EQ PUSH2 0x384 JUMPI DUP1 PUSH4 0x3C2FC56C EQ PUSH2 0x3A4 JUMPI DUP1 PUSH4 0x42842E0E EQ PUSH2 0x3C4 JUMPI DUP1 PUSH4 0x48C32093 EQ PUSH2 0x3E4 JUMPI PUSH1 0x0 DUP1 REVERT JUMPDEST DUP1 PUSH4 0xB791430 GT PUSH2 0x1ED JUMPI DUP1 PUSH4 0xB791430 EQ PUSH2 0x2D0 JUMPI DUP1 PUSH4 0x18160DDD EQ PUSH2 0x305 JUMPI DUP1 PUSH4 0x23B872DD EQ PUSH2 0x324 JUMPI DUP1 PUSH4 0x2F745C59 EQ PUSH2 0x344 JUMPI DUP1 PUSH4 0x305A67A8 EQ PUSH2 0x364 JUMPI PUSH1 0x0 DUP1 REVERT JUMPDEST DUP1 PUSH4 0x1FFC9A7 EQ PUSH2 0x21F JUMPI DUP1 PUSH4 0x6FDDE03 EQ PUSH2 0x254 JUMPI DUP1 PUSH4 0x81812FC EQ PUSH2 0x276 JUMPI DUP1 PUSH4 0x95EA7B3 EQ PUSH2 0x2AE JUMPI JUMPDEST PUSH1 0x0 DUP1 REVERT JUMPDEST CALLVALUE DUP1 ISZERO PUSH2 0x22B JUMPI PUSH1 0x0 DUP1 REVERT JUMPDEST POP PUSH2 0x23F PUSH2 0x23A CALLDATASIZE PUSH1 0x4 PUSH2 0x2CD7 JUMP JUMPDEST PUSH2 0x7FC JUMP JUMPDEST PUSH1 0x40 MLOAD SWAP1 ISZERO ISZERO DUP2 MSTORE PUSH1 0x20 ADD JUMPDEST PUSH1 0x40 MLOAD DUP1 SWAP2 SUB SWAP1 RETURN JUMPDEST CALLVALUE DUP1 ISZERO PUSH2 0x260 JUMPI PUSH1 0x0 DUP1 REVERT JUMPDEST POP PUSH2 0x269 PUSH2 0x827 JUMP JUMPDEST PUSH1 0x40 MLOAD PUSH2 0x24B SWAP2 SWAP1 PUSH2 0x2D4B JUMP JUMPDEST CALLVALUE DUP1 ISZERO PUSH2 0x282 JUMPI PUSH1 0x0 DUP1 REVERT JUMPDEST POP PUSH2 0x296 PUSH2 0x291 CALLDATASIZE PUSH1 0x4 PUSH2 0x2D5E JUMP JUMPDEST PUSH2 0x8B9 JUMP JUMPDEST PUSH1 0x40 MLOAD PUSH1 0x1 PUSH1 0x1 PUSH1 0xA0 SHL SUB SWAP1 SWAP2 AND DUP2 MSTORE PUSH1 0x20 ADD PUSH2 0x24B JUMP JUMPDEST CALLVALUE DUP1 ISZERO PUSH2 0x2BA JUMPI PUSH1 0x0 DUP1 REVERT JUMPDEST POP PUSH2 0x2CE PUSH2 0x2C9 CALLDATASIZE PUSH1 0x4 PUSH2 0x2D8E JUMP JUMPDEST PUSH2 0x8E2 JUMP JUMPDEST STOP JUMPDEST CALLVALUE DUP1 ISZERO PUSH2 0x2DC JUMPI PUSH1 0x0 DUP1 REVERT JUMPDEST POP PUSH2 0x2F0 PUSH2 0x2EB CALLDATASIZE PUSH1 0x4 PUSH2 0x2D5E JUMP JUMPDEST PUSH2 0x8F1 JUMP JUMPDEST PUSH1 0x40 MLOAD PUSH2 0x24B SWAP10 SWAP9 SWAP8 SWAP7 SWAP6 SWAP5 SWAP4 SWAP3 SWAP2 SWAP1 PUSH2 0x2DB8 JUMP JUMPDEST CALLVALUE DUP1 ISZERO PUSH2 0x311 JUMPI PUSH1 0x0 DUP1 REVERT JUMPDEST POP PUSH1 0x8 SLOAD JUMPDEST PUSH1 0x40 MLOAD SWAP1 DUP2 MSTORE PUSH1 0x20 ADD PUSH2 0x24B JUMP JUMPDEST CALLVALUE DUP1 ISZERO PUSH2 0x330 JUMPI PUSH1 0x0 DUP1 REVERT JUMPDEST POP PUSH2 0x2CE PUSH2 0x33F CALLDATASIZE PUSH1 0x4 PUSH2 0x2E26 JUMP JUMPDEST PUSH2 0xA59 JUMP JUMPDEST CALLVALUE DUP1 ISZERO PUSH2 0x350 JUMPI PUSH1 0x0 DUP1 REVERT JUMPDEST POP PUSH2 0x316 PUSH2 0x35F CALLDATASIZE PUSH1 0x4 PUSH2 0x2D8E JUMP JUMPDEST PUSH2 0xAE9 JUMP JUMPDEST CALLVALUE DUP1 ISZERO PUSH2 0x370 JUMPI PUSH1 0x0 DUP1 REVERT JUMPDEST POP PUSH2 0x2CE PUSH2 0x37F CALLDATASIZE PUSH1 0x4 PUSH2 0x2D5E JUMP JUMPDEST PUSH2 0xB4E JUMP JUMPDEST CALLVALUE DUP1 ISZERO PUSH2 0x390 JUMPI PUSH1 0x0 DUP1 REVERT JUMPDEST POP PUSH2 0x2CE PUSH2 0x39F CALLDATASIZE PUSH1 0x4 PUSH2 0x2E62 JUMP JUMPDEST PUSH2 0xC3A JUMP JUMPDEST CALLVALUE DUP1 ISZERO PUSH2 0x3B0 JUMPI PUSH1 0x0 DUP1 REVERT JUMPDEST POP PUSH2 0x316 PUSH2 0x3BF CALLDATASIZE PUSH1 0x4 PUSH2 0x2F30 JUMP JUMPDEST PUSH2 0xE72 JUMP JUMPDEST CALLVALUE DUP1 ISZERO PUSH2 0x3D0 JUMPI PUSH1 0x0 DUP1 REVERT JUMPDEST POP PUSH2 0x2CE PUSH2 0x3DF CALLDATASIZE PUSH1 0x4 PUSH2 0x2E26 JUMP JUMPDEST PUSH2 0x1113 JUMP JUMPDEST CALLVALUE DUP1 ISZERO PUSH2 0x3F0 JUMPI PUSH1 0x0 DUP1 REVERT JUMPDEST POP PUSH2 0x433 PUSH2 0x3FF CALLDATASIZE PUSH1 0x4 PUSH2 0x2D5E JUMP JUMPDEST PUSH1 0x10 PUSH1 0x20 MSTORE PUSH1 0x0 SWAP1 DUP2 MSTORE PUSH1 0x40 SWAP1 KECCAK256 DUP1 SLOAD PUSH1 0x1 DUP3 ADD SLOAD PUSH1 0x2 DUP4 ADD SLOAD PUSH1 0x3 SWAP1 SWAP4 ADD SLOAD SWAP2 SWAP3 PUSH1 0x1 PUSH1 0x1 PUSH1 0xA0 SHL SUB SWAP1 SWAP2 AND SWAP2 PUSH1 0xFF AND DUP5 JUMP JUMPDEST PUSH1 0x40 DUP1 MLOAD SWAP5 DUP6 MSTORE PUSH1 0x1 PUSH1 0x1 PUSH1 0xA0 SHL SUB SWAP1 SWAP4 AND PUSH1 0x20 DUP6 ADD MSTORE SWAP2 DUP4 ADD MSTORE ISZERO ISZERO PUSH1 0x60 DUP3 ADD MSTORE PUSH1 0x80 ADD PUSH2 0x24B JUMP JUMPDEST CALLVALUE DUP1 ISZERO PUSH2 0x469 JUMPI PUSH1 0x0 DUP1 REVERT JUMPDEST POP PUSH2 0x316 PUSH2 0x478 CALLDATASIZE PUSH1 0x4 PUSH2 0x2D5E JUMP JUMPDEST PUSH2 0x1133 JUMP JUMPDEST PUSH2 0x2CE PUSH2 0x48B CALLDATASIZE PUSH1 0x4 PUSH2 0x2D5E JUMP JUMPDEST PUSH2 0x118C JUMP JUMPDEST CALLVALUE DUP1 ISZERO PUSH2 0x49C JUMPI PUSH1 0x0 DUP1 REVERT JUMPDEST POP PUSH2 0x4B0 PUSH2 0x4AB CALLDATASIZE PUSH1 0x4 PUSH2 0x2D5E JUMP JUMPDEST PUSH2 0x1452 JUMP JUMPDEST PUSH1 0x40 MLOAD PUSH2 0x24B SWAP5 SWAP4 SWAP3 SWAP2 SWAP1 PUSH2 0x2FAF JUMP JUMPDEST CALLVALUE DUP1 ISZERO PUSH2 0x4CC JUMPI PUSH1 0x0 DUP1 REVERT JUMPDEST POP PUSH2 0x296 PUSH2 0x4DB CALLDATASIZE PUSH1 0x4 PUSH2 0x2D5E JUMP JUMPDEST PUSH2 0x1505 JUMP JUMPDEST CALLVALUE DUP1 ISZERO PUSH2 0x4EC JUMPI PUSH1 0x0 DUP1 REVERT JUMPDEST POP PUSH2 0x500 PUSH2 0x4FB CALLDATASIZE PUSH1 0x4 PUSH2 0x2FDE JUMP JUMPDEST PUSH2 0x1510 JUMP JUMPDEST PUSH1 0x40 MLOAD PUSH2 0x24B SWAP2 SWAP1 PUSH2 0x300A JUMP JUMPDEST PUSH2 0x316 PUSH2 0x51B CALLDATASIZE PUSH1 0x4 PUSH2 0x2D5E JUMP JUMPDEST PUSH2 0x167D JUMP JUMPDEST CALLVALUE DUP1 ISZERO PUSH2 0x52C JUMPI PUSH1 0x0 DUP1 REVERT JUMPDEST POP PUSH2 0x540 PUSH2 0x53B CALLDATASIZE PUSH1 0x4 PUSH2 0x2D5E JUMP JUMPDEST PUSH2 0x198F JUMP JUMPDEST PUSH1 0x40 MLOAD PUSH2 0x24B SWAP2 SWAP1 PUSH2 0x30E4 JUMP JUMPDEST CALLVALUE DUP1 ISZERO PUSH2 0x559 JUMPI PUSH1 0x0 DUP1 REVERT JUMPDEST POP PUSH2 0x316 PUSH2 0x568 CALLDATASIZE PUSH1 0x4 PUSH2 0x30F7 JUMP JUMPDEST PUSH2 0x1B38 JUMP JUMPDEST CALLVALUE DUP1 ISZERO PUSH2 0x579 JUMPI PUSH1 0x0 DUP1 REVERT JUMPDEST POP PUSH2 0x2CE PUSH2 0x1B80 JUMP JUMPDEST CALLVALUE DUP1 ISZERO PUSH2 0x58E JUMPI PUSH1 0x0 DUP1 REVERT JUMPDEST POP PUSH2 0x5A2 PUSH2 0x59D CALLDATASIZE PUSH1 0x4 PUSH2 0x2D5E JUMP JUMPDEST PUSH2 0x1B94 JUMP JUMPDEST PUSH1 0x40 MLOAD PUSH2 0x24B SWAP2 SWAP1 PUSH2 0x3112 JUMP JUMPDEST CALLVALUE DUP1 ISZERO PUSH2 0x5BB JUMPI PUSH1 0x0 DUP1 REVERT JUMPDEST POP PUSH2 0x500 PUSH2 0x1C94 JUMP JUMPDEST CALLVALUE DUP1 ISZERO PUSH2 0x5D0 JUMPI PUSH1 0x0 DUP1 REVERT JUMPDEST POP PUSH2 0x316 PUSH1 0xD SLOAD DUP2 JUMP JUMPDEST CALLVALUE DUP1 ISZERO PUSH2 0x5E6 JUMPI PUSH1 0x0 DUP1 REVERT JUMPDEST POP PUSH1 0xA SLOAD PUSH1 0x1 PUSH1 0x1 PUSH1 0xA0 SHL SUB AND PUSH2 0x296 JUMP JUMPDEST CALLVALUE DUP1 ISZERO PUSH2 0x604 JUMPI PUSH1 0x0 DUP1 REVERT JUMPDEST POP PUSH2 0x2CE PUSH2 0x613 CALLDATASIZE PUSH1 0x4 PUSH2 0x2D5E JUMP JUMPDEST PUSH2 0x1D95 JUMP JUMPDEST CALLVALUE DUP1 ISZERO PUSH2 0x624 JUMPI PUSH1 0x0 DUP1 REVERT JUMPDEST POP PUSH2 0x269 PUSH2 0x1DBB JUMP JUMPDEST CALLVALUE DUP1 ISZERO PUSH2 0x639 JUMPI PUSH1 0x0 DUP1 REVERT JUMPDEST POP PUSH2 0x2CE PUSH2 0x648 CALLDATASIZE PUSH1 0x4 PUSH2 0x314B JUMP JUMPDEST PUSH2 0x1DCA JUMP JUMPDEST CALLVALUE DUP1 ISZERO PUSH2 0x659 JUMPI PUSH1 0x0 DUP1 REVERT JUMPDEST POP PUSH2 0x2CE PUSH2 0x668 CALLDATASIZE PUSH1 0x4 PUSH2 0x3187 JUMP JUMPDEST PUSH2 0x1DD5 JUMP JUMPDEST CALLVALUE DUP1 ISZERO PUSH2 0x679 JUMPI PUSH1 0x0 DUP1 REVERT JUMPDEST POP PUSH2 0x682 PUSH2 0x1DEC JUMP JUMPDEST PUSH1 0x40 MLOAD PUSH2 0x24B SWAP2 SWAP1 PUSH2 0x3203 JUMP JUMPDEST CALLVALUE DUP1 ISZERO PUSH2 0x69B JUMPI PUSH1 0x0 DUP1 REVERT JUMPDEST POP PUSH2 0x269 PUSH2 0x6AA CALLDATASIZE PUSH1 0x4 PUSH2 0x2D5E JUMP JUMPDEST PUSH2 0x202E JUMP JUMPDEST CALLVALUE DUP1 ISZERO PUSH2 0x6BB JUMPI PUSH1 0x0 DUP1 REVERT JUMPDEST POP PUSH2 0x73B PUSH2 0x6CA CALLDATASIZE PUSH1 0x4 PUSH2 0x2D5E JUMP JUMPDEST PUSH1 0x40 DUP1 MLOAD PUSH1 0x80 DUP1 DUP3 ADD DUP4 MSTORE PUSH1 0x0 DUP1 DUP4 MSTORE PUSH1 0x20 DUP1 DUP5 ADD DUP3 SWAP1 MSTORE DUP4 DUP6 ADD DUP3 SWAP1 MSTORE PUSH1 0x60 SWAP4 DUP5 ADD DUP3 SWAP1 MSTORE SWAP5 DUP2 MSTORE PUSH1 0x10 DUP6 MSTORE DUP4 SWAP1 KECCAK256 DUP4 MLOAD SWAP2 DUP3 ADD DUP5 MSTORE DUP1 SLOAD DUP3 MSTORE PUSH1 0x1 DUP2 ADD SLOAD PUSH1 0x1 PUSH1 0x1 PUSH1 0xA0 SHL SUB AND SWAP5 DUP3 ADD SWAP5 SWAP1 SWAP5 MSTORE PUSH1 0x2 DUP5 ADD SLOAD SWAP3 DUP2 ADD SWAP3 SWAP1 SWAP3 MSTORE PUSH1 0x3 SWAP1 SWAP3 ADD SLOAD PUSH1 0xFF AND ISZERO ISZERO SWAP2 DUP2 ADD SWAP2 SWAP1 SWAP2 MSTORE SWAP1 JUMP JUMPDEST PUSH1 0x40 MLOAD PUSH2 0x24B SWAP2 SWAP1 DUP2 MLOAD DUP2 MSTORE PUSH1 0x20 DUP1 DUP4 ADD MLOAD PUSH1 0x1 PUSH1 0x1 PUSH1 0xA0 SHL SUB AND SWAP1 DUP3 ADD MSTORE PUSH1 0x40 DUP1 DUP4 ADD MLOAD SWAP1 DUP3 ADD MSTORE PUSH1 0x60 SWAP2 DUP3 ADD MLOAD ISZERO ISZERO SWAP2 DUP2 ADD SWAP2 SWAP1 SWAP2 MSTORE PUSH1 0x80 ADD SWAP1 JUMP JUMPDEST CALLVALUE DUP1 ISZERO PUSH2 0x785 JUMPI PUSH1 0x0 DUP1 REVERT JUMPDEST POP PUSH2 0x316 PUSH1 0xC SLOAD DUP2 JUMP JUMPDEST CALLVALUE DUP1 ISZERO PUSH2 0x79B JUMPI PUSH1 0x0 DUP1 REVERT JUMPDEST POP PUSH2 0x23F PUSH2 0x7AA CALLDATASIZE PUSH1 0x4 PUSH2 0x3265 JUMP JUMPDEST PUSH2 0x20DB JUMP JUMPDEST CALLVALUE DUP1 ISZERO PUSH2 0x7BB JUMPI PUSH1 0x0 DUP1 REVERT JUMPDEST POP PUSH2 0x2CE PUSH2 0x7CA CALLDATASIZE PUSH1 0x4 PUSH2 0x30F7 JUMP JUMPDEST PUSH2 0x2109 JUMP JUMPDEST CALLVALUE DUP1 ISZERO PUSH2 0x7DB JUMPI PUSH1 0x0 DUP1 REVERT JUMPDEST POP PUSH2 0x316 PUSH2 0x7EA CALLDATASIZE PUSH1 0x4 PUSH2 0x2D5E JUMP JUMPDEST PUSH1 0x11 PUSH1 0x20 MSTORE PUSH1 0x0 SWAP1 DUP2 MSTORE PUSH1 0x40 SWAP1 KECCAK256 SLOAD DUP2 JUMP JUMPDEST PUSH1 0x0 PUSH1 0x1 PUSH1 0x1 PUSH1 0xE0 SHL SUB NOT DUP3 AND PUSH4 0x780E9D63 PUSH1 0xE0 SHL EQ DUP1 PUSH2 0x821 JUMPI POP PUSH2 0x821 DUP3 PUSH2 0x2144 JUMP JUMPDEST SWAP3 SWAP2 POP POP JUMP JUMPDEST PUSH1 0x60 PUSH1 0x0 DUP1 SLOAD PUSH2 0x836 SWAP1 PUSH2 0x328F JUMP JUMPDEST DUP1 PUSH1 0x1F ADD PUSH1 0x20 DUP1 SWAP2 DIV MUL PUSH1 0x20 ADD PUSH1 0x40 MLOAD SWAP1 DUP2 ADD PUSH1 0x40 MSTORE DUP1 SWAP3 SWAP2 SWAP1 DUP2 DUP2 MSTORE PUSH1 0x20 ADD DUP3 DUP1 SLOAD PUSH2 0x862 SWAP1 PUSH2 0x328F JUMP JUMPDEST DUP1 ISZERO PUSH2 0x8AF JUMPI DUP1 PUSH1 0x1F LT PUSH2 0x884 JUMPI PUSH2 0x100 DUP1 DUP4 SLOAD DIV MUL DUP4 MSTORE SWAP2 PUSH1 0x20 ADD SWAP2 PUSH2 0x8AF JUMP JUMPDEST DUP3 ADD SWAP2 SWAP1 PUSH1 0x0 MSTORE PUSH1 0x20 PUSH1 0x0 KECCAK256 SWAP1 JUMPDEST DUP2 SLOAD DUP2 MSTORE SWAP1 PUSH1 0x1 ADD SWAP1 PUSH1 0x20 ADD DUP1 DUP4 GT PUSH2 0x892 JUMPI DUP3 SWAP1 SUB PUSH1 0x1F AND DUP3 ADD SWAP2 JUMPDEST POP POP POP POP POP SWAP1 POP SWAP1 JUMP JUMPDEST PUSH1 0x0 PUSH2 0x8C4 DUP3 PUSH2 0x2194 JUMP JUMPDEST POP PUSH1 0x0 DUP3 DUP2 MSTORE PUSH1 0x4 PUSH1 0x20 MSTORE PUSH1 0x40 SWAP1 KECCAK256 SLOAD PUSH1 0x1 PUSH1 0x1 PUSH1 0xA0 SHL SUB AND PUSH2 0x821 JUMP JUMPDEST PUSH2 0x8ED DUP3 DUP3 CALLER PUSH2 0x21CD JUMP JUMPDEST POP POP JUMP JUMPDEST PUSH1 0xE PUSH1 0x20 MSTORE PUSH1 0x0 SWAP1 DUP2 MSTORE PUSH1 0x40 SWAP1 KECCAK256 DUP1 SLOAD PUSH1 0x1 DUP3 ADD DUP1 SLOAD SWAP2 SWAP3 SWAP2 PUSH2 0x913 SWAP1 PUSH2 0x328F JUMP JUMPDEST DUP1 PUSH1 0x1F ADD PUSH1 0x20 DUP1 SWAP2 DIV MUL PUSH1 0x20 ADD PUSH1 0x40 MLOAD SWAP1 DUP2 ADD PUSH1 0x40 MSTORE DUP1 SWAP3 SWAP2 SWAP1 DUP2 DUP2 MSTORE PUSH1 0x20 ADD DUP3 DUP1 SLOAD PUSH2 0x93F SWAP1 PUSH2 0x328F JUMP JUMPDEST DUP1 ISZERO PUSH2 0x98C JUMPI DUP1 PUSH1 0x1F LT PUSH2 0x961 JUMPI PUSH2 0x100 DUP1 DUP4 SLOAD DIV MUL DUP4 MSTORE SWAP2 PUSH1 0x20 ADD SWAP2 PUSH2 0x98C JUMP JUMPDEST DUP3 ADD SWAP2 SWAP1 PUSH1 0x0 MSTORE PUSH1 0x20 PUSH1 0x0 KECCAK256 SWAP1 JUMPDEST DUP2 SLOAD DUP2 MSTORE SWAP1 PUSH1 0x1 ADD SWAP1 PUSH1 0x20 ADD DUP1 DUP4 GT PUSH2 0x96F JUMPI DUP3 SWAP1 SUB PUSH1 0x1F AND DUP3 ADD SWAP2 JUMPDEST POP POP POP POP POP SWAP1 DUP1 PUSH1 0x2 ADD DUP1 SLOAD PUSH2 0x9A1 SWAP1 PUSH2 0x328F JUMP JUMPDEST DUP1 PUSH1 0x1F ADD PUSH1 0x20 DUP1 SWAP2 DIV MUL PUSH1 0x20 ADD PUSH1 0x40 MLOAD SWAP1 DUP2 ADD PUSH1 0x40 MSTORE DUP1 SWAP3 SWAP2 SWAP1 DUP2 DUP2 MSTORE PUSH1 0x20 ADD DUP3 DUP1 SLOAD PUSH2 0x9CD SWAP1 PUSH2 0x328F JUMP JUMPDEST DUP1 ISZERO PUSH2 0xA1A JUMPI DUP1 PUSH1 0x1F LT PUSH2 0x9EF JUMPI PUSH2 0x100 DUP1 DUP4 SLOAD DIV MUL DUP4 MSTORE SWAP2 PUSH1 0x20 ADD SWAP2 PUSH2 0xA1A JUMP JUMPDEST DUP3 ADD SWAP2 SWAP1 PUSH1 0x0 MSTORE PUSH1 0x20 PUSH1 0x0 KECCAK256 SWAP1 JUMPDEST DUP2 SLOAD DUP2 MSTORE SWAP1 PUSH1 0x1 ADD SWAP1 PUSH1 0x20 ADD DUP1 DUP4 GT PUSH2 0x9FD JUMPI DUP3 SWAP1 SUB PUSH1 0x1F AND DUP3 ADD SWAP2 JUMPDEST POP POP POP PUSH1 0x3 DUP5 ADD SLOAD PUSH1 0x4 DUP6 ADD SLOAD PUSH1 0x5 DUP7 ADD SLOAD PUSH1 0x6 DUP8 ADD SLOAD PUSH1 0x7 SWAP1 SWAP8 ADD SLOAD SWAP6 SWAP7 SWAP3 SWAP6 SWAP2 SWAP5 POP SWAP3 POP PUSH1 0x1 PUSH1 0x1 PUSH1 0xA0 SHL SUB DUP2 AND SWAP1 PUSH1 0xFF PUSH1 0x1 PUSH1 0xA0 SHL SWAP1 SWAP2 DIV AND DUP10 JUMP JUMPDEST PUSH1 0x1 PUSH1 0x1 PUSH1 0xA0 SHL SUB DUP3 AND PUSH2 0xA88 JUMPI PUSH1 0x40 MLOAD PUSH4 0x32505749 PUSH1 0xE1 SHL DUP2 MSTORE PUSH1 0x0 PUSH1 0x4 DUP3 ADD MSTORE PUSH1 0x24 ADD JUMPDEST PUSH1 0x40 MLOAD DUP1 SWAP2 SUB SWAP1 REVERT JUMPDEST PUSH1 0x0 PUSH2 0xA95 DUP4 DUP4 CALLER PUSH2 0x21DA JUMP JUMPDEST SWAP1 POP DUP4 PUSH1 0x1 PUSH1 0x1 PUSH1 0xA0 SHL SUB AND DUP2 PUSH1 0x1 PUSH1 0x1 PUSH1 0xA0 SHL SUB AND EQ PUSH2 0xAE3 JUMPI PUSH1 0x40 MLOAD PUSH4 0x64283D7B PUSH1 0xE0 SHL DUP2 MSTORE PUSH1 0x1 PUSH1 0x1 PUSH1 0xA0 SHL SUB DUP1 DUP7 AND PUSH1 0x4 DUP4 ADD MSTORE PUSH1 0x24 DUP3 ADD DUP5 SWAP1 MSTORE DUP3 AND PUSH1 0x44 DUP3 ADD MSTORE PUSH1 0x64 ADD PUSH2 0xA7F JUMP JUMPDEST POP POP POP POP JUMP JUMPDEST PUSH1 0x0 PUSH2 0xAF4 DUP4 PUSH2 0x1B38 JUMP JUMPDEST DUP3 LT PUSH2 0xB25 JUMPI PUSH1 0x40 MLOAD PUSH4 0x295F44F7 PUSH1 0xE2 SHL DUP2 MSTORE PUSH1 0x1 PUSH1 0x1 PUSH1 0xA0 SHL SUB DUP5 AND PUSH1 0x4 DUP3 ADD MSTORE PUSH1 0x24 DUP2 ADD DUP4 SWAP1 MSTORE PUSH1 0x44 ADD PUSH2 0xA7F JUMP JUMPDEST POP PUSH1 0x1 PUSH1 0x1 PUSH1 0xA0 SHL SUB SWAP2 SWAP1 SWAP2 AND PUSH1 0x0 SWAP1 DUP2 MSTORE PUSH1 0x6 PUSH1 0x20 SWAP1 DUP2 MSTORE PUSH1 0x40 DUP1 DUP4 KECCAK256 SWAP4 DUP4 MSTORE SWAP3 SWAP1 MSTORE KECCAK256 SLOAD SWAP1 JUMP JUMPDEST PUSH1 0x0 DUP2 DUP2 MSTORE PUSH1 0x10 PUSH1 0x20 MSTORE PUSH1 0x40 SWAP1 KECCAK256 PUSH1 0x1 DUP2 ADD SLOAD PUSH1 0x1 PUSH1 0x1 PUSH1 0xA0 SHL SUB AND CALLER EQ PUSH2 0xBB1 JUMPI PUSH1 0x40 MLOAD PUSH3 0x461BCD PUSH1 0xE5 SHL DUP2 MSTORE PUSH1 0x20 PUSH1 0x4 DUP3 ADD MSTORE PUSH1 0x16 PUSH1 0x24 DUP3 ADD MSTORE PUSH22 0x2CB7BA9030B932903737BA103A34329039B2B63632B9 PUSH1 0x51 SHL PUSH1 0x44 DUP3 ADD MSTORE PUSH1 0x64 ADD PUSH2 0xA7F JUMP JUMPDEST PUSH1 0x3 DUP2 ADD SLOAD PUSH1 0xFF AND PUSH2 0xBFD JUMPI PUSH1 0x40 MLOAD PUSH3 0x461BCD PUSH1 0xE5 SHL DUP2 MSTORE PUSH1 0x20 PUSH1 0x4 DUP3 ADD MSTORE PUSH1 0x15 PUSH1 0x24 DUP3 ADD MSTORE PUSH21 0x4C697374696E67206973206E6F7420616374697665 PUSH1 0x58 SHL PUSH1 0x44 DUP3 ADD MSTORE PUSH1 0x64 ADD PUSH2 0xA7F JUMP JUMPDEST PUSH1 0x3 DUP2 ADD DUP1 SLOAD PUSH1 0xFF NOT AND SWAP1 SSTORE PUSH1 0x40 MLOAD CALLER SWAP1 DUP4 SWAP1 PUSH32 0x76C5D8A17D0BEE8BD0E004133353CD78EDE70AC9ACE2AA18BF839E748CAFF290 SWAP1 PUSH1 0x0 SWAP1 LOG3 POP POP JUMP JUMPDEST CALLER PUSH2 0xC44 DUP4 PUSH2 0x1505 JUMP JUMPDEST PUSH1 0x1 PUSH1 0x1 PUSH1 0xA0 SHL SUB AND EQ PUSH2 0xC9A JUMPI PUSH1 0x40 MLOAD PUSH3 0x461BCD PUSH1 0xE5 SHL DUP2 MSTORE PUSH1 0x20 PUSH1 0x4 DUP3 ADD MSTORE PUSH1 0x19 PUSH1 0x24 DUP3 ADD MSTORE PUSH32 0x596F7520646F6E2774206F776E2074686973207469636B657400000000000000 PUSH1 0x44 DUP3 ADD MSTORE PUSH1 0x64 ADD PUSH2 0xA7F JUMP JUMPDEST PUSH1 0x0 DUP2 GT PUSH2 0xCEA JUMPI PUSH1 0x40 MLOAD PUSH3 0x461BCD PUSH1 0xE5 SHL DUP2 MSTORE PUSH1 0x20 PUSH1 0x4 DUP3 ADD MSTORE PUSH1 0x1C PUSH1 0x24 DUP3 ADD MSTORE PUSH32 0x5072696365206D7573742062652067726561746572207468616E203000000000 PUSH1 0x44 DUP3 ADD MSTORE PUSH1 0x64 ADD PUSH2 0xA7F JUMP JUMPDEST PUSH1 0x0 DUP3 DUP2 MSTORE PUSH1 0x10 PUSH1 0x20 MSTORE PUSH1 0x40 SWAP1 KECCAK256 PUSH1 0x3 ADD SLOAD PUSH1 0xFF AND ISZERO PUSH2 0xD4C JUMPI PUSH1 0x40 MLOAD PUSH3 0x461BCD PUSH1 0xE5 SHL DUP2 MSTORE PUSH1 0x20 PUSH1 0x4 DUP3 ADD MSTORE PUSH1 0x18 PUSH1 0x24 DUP3 ADD MSTORE PUSH32 0x5469636B657420697320616C7265616479206C69737465640000000000000000 PUSH1 0x44 DUP3 ADD MSTORE PUSH1 0x64 ADD PUSH2 0xA7F JUMP JUMPDEST PUSH1 0x0 DUP3 DUP2 MSTORE PUSH1 0x11 PUSH1 0x20 SWAP1 DUP2 MSTORE PUSH1 0x40 DUP1 DUP4 KECCAK256 SLOAD DUP1 DUP5 MSTORE PUSH1 0xE SWAP1 SWAP3 MSTORE SWAP1 SWAP2 KECCAK256 PUSH1 0x3 ADD SLOAD TIMESTAMP LT PUSH2 0xDC7 JUMPI PUSH1 0x40 MLOAD PUSH3 0x461BCD PUSH1 0xE5 SHL DUP2 MSTORE PUSH1 0x20 PUSH1 0x4 DUP3 ADD MSTORE PUSH1 0x23 PUSH1 0x24 DUP3 ADD MSTORE PUSH32 0x43616E6E6F742073656C6C207469636B65747320666F72207061737420657665 PUSH1 0x44 DUP3 ADD MSTORE PUSH3 0x6E7473 PUSH1 0xE8 SHL PUSH1 0x64 DUP3 ADD MSTORE PUSH1 0x84 ADD PUSH2 0xA7F JUMP JUMPDEST PUSH1 0x40 DUP1 MLOAD PUSH1 0x80 DUP2 ADD DUP3 MSTORE DUP5 DUP2 MSTORE CALLER PUSH1 0x20 DUP1 DUP4 ADD DUP3 DUP2 MSTORE DUP4 DUP6 ADD DUP8 DUP2 MSTORE PUSH1 0x1 PUSH1 0x60 DUP7 ADD DUP2 DUP2 MSTORE PUSH1 0x0 DUP12 DUP2 MSTORE PUSH1 0x10 DUP7 MSTORE DUP9 SWAP1 KECCAK256 SWAP7 MLOAD DUP8 SSTORE SWAP3 MLOAD SWAP1 DUP7 ADD DUP1 SLOAD PUSH1 0x1 PUSH1 0x1 PUSH1 0xA0 SHL SUB NOT AND PUSH1 0x1 PUSH1 0x1 PUSH1 0xA0 SHL SUB SWAP1 SWAP3 AND SWAP2 SWAP1 SWAP2 OR SWAP1 SSTORE MLOAD PUSH1 0x2 DUP6 ADD SSTORE MLOAD PUSH1 0x3 SWAP1 SWAP4 ADD DUP1 SLOAD PUSH1 0xFF NOT AND SWAP4 ISZERO ISZERO SWAP4 SWAP1 SWAP4 OR SWAP1 SWAP3 SSTORE SWAP2 MLOAD DUP5 DUP2 MSTORE DUP6 SWAP2 PUSH32 0x22968EC3BE3687B180F3544163A034B88D57B48159D9A7E9A1B610FDB2D05F80 SWAP2 ADD JUMPDEST PUSH1 0x40 MLOAD DUP1 SWAP2 SUB SWAP1 LOG3 POP POP POP JUMP JUMPDEST PUSH1 0x0 TIMESTAMP DUP5 GT PUSH2 0xEC3 JUMPI PUSH1 0x40 MLOAD PUSH3 0x461BCD PUSH1 0xE5 SHL DUP2 MSTORE PUSH1 0x20 PUSH1 0x4 DUP3 ADD DUP2 SWAP1 MSTORE PUSH1 0x24 DUP3 ADD MSTORE PUSH32 0x4576656E742064617465206D75737420626520696E2074686520667574757265 PUSH1 0x44 DUP3 ADD MSTORE PUSH1 0x64 ADD PUSH2 0xA7F JUMP JUMPDEST PUSH1 0x0 DUP4 GT PUSH2 0xF1F JUMPI PUSH1 0x40 MLOAD PUSH3 0x461BCD PUSH1 0xE5 SHL DUP2 MSTORE PUSH1 0x20 PUSH1 0x4 DUP3 ADD MSTORE PUSH1 0x23 PUSH1 0x24 DUP3 ADD MSTORE PUSH32 0x5469636B6574207072696365206D757374206265206772656174657220746861 PUSH1 0x44 DUP3 ADD MSTORE PUSH3 0x6E203 PUSH1 0xEC SHL PUSH1 0x64 DUP3 ADD MSTORE PUSH1 0x84 ADD PUSH2 0xA7F JUMP JUMPDEST PUSH1 0x0 DUP3 GT PUSH2 0xF79 JUMPI PUSH1 0x40 MLOAD PUSH3 0x461BCD PUSH1 0xE5 SHL DUP2 MSTORE PUSH1 0x20 PUSH1 0x4 DUP3 ADD MSTORE PUSH1 0x21 PUSH1 0x24 DUP3 ADD MSTORE PUSH32 0x4D617820737570706C79206D7573742062652067726561746572207468616E20 PUSH1 0x44 DUP3 ADD MSTORE PUSH1 0x3 PUSH1 0xFC SHL PUSH1 0x64 DUP3 ADD MSTORE PUSH1 0x84 ADD PUSH2 0xA7F JUMP JUMPDEST PUSH1 0x0 DUP7 MLOAD GT PUSH2 0xFCA JUMPI PUSH1 0x40 MLOAD PUSH3 0x461BCD PUSH1 0xE5 SHL DUP2 MSTORE PUSH1 0x20 PUSH1 0x4 DUP3 ADD MSTORE PUSH1 0x1A PUSH1 0x24 DUP3 ADD MSTORE PUSH32 0x4576656E74206E616D652063616E6E6F7420626520656D707479000000000000 PUSH1 0x44 DUP3 ADD MSTORE PUSH1 0x64 ADD PUSH2 0xA7F JUMP JUMPDEST PUSH1 0xC DUP1 SLOAD SWAP1 PUSH1 0x0 PUSH2 0xFDA DUP4 PUSH2 0x32D9 JUMP JUMPDEST SWAP1 SWAP2 SSTORE POP POP PUSH1 0xC SLOAD PUSH1 0x40 DUP1 MLOAD PUSH2 0x120 DUP2 ADD DUP3 MSTORE DUP3 DUP2 MSTORE PUSH1 0x20 DUP1 DUP3 ADD DUP11 DUP2 MSTORE DUP3 DUP5 ADD DUP11 SWAP1 MSTORE PUSH1 0x60 DUP4 ADD DUP10 SWAP1 MSTORE PUSH1 0x80 DUP4 ADD DUP9 SWAP1 MSTORE PUSH1 0xA0 DUP4 ADD DUP8 SWAP1 MSTORE PUSH1 0x0 PUSH1 0xC0 DUP5 ADD DUP2 SWAP1 MSTORE CALLER PUSH1 0xE0 DUP6 ADD MSTORE PUSH1 0x1 PUSH2 0x100 DUP6 ADD DUP2 SWAP1 MSTORE DUP7 DUP3 MSTORE PUSH1 0xE SWAP1 SWAP4 MSTORE SWAP4 SWAP1 SWAP4 KECCAK256 DUP3 MLOAD DUP2 SSTORE SWAP3 MLOAD SWAP2 SWAP3 SWAP2 SWAP1 DUP3 ADD SWAP1 PUSH2 0x104F SWAP1 DUP3 PUSH2 0x3340 JUMP JUMPDEST POP PUSH1 0x40 DUP3 ADD MLOAD PUSH1 0x2 DUP3 ADD SWAP1 PUSH2 0x1064 SWAP1 DUP3 PUSH2 0x3340 JUMP JUMPDEST POP PUSH1 0x60 DUP3 ADD MLOAD PUSH1 0x3 DUP3 ADD SSTORE PUSH1 0x80 DUP3 ADD MLOAD PUSH1 0x4 DUP3 ADD SSTORE PUSH1 0xA0 DUP3 ADD MLOAD PUSH1 0x5 DUP3 ADD SSTORE PUSH1 0xC0 DUP3 ADD MLOAD PUSH1 0x6 DUP3 ADD SSTORE PUSH1 0xE0 DUP3 ADD MLOAD PUSH1 0x7 SWAP1 SWAP2 ADD DUP1 SLOAD PUSH2 0x100 SWAP1 SWAP4 ADD MLOAD ISZERO ISZERO PUSH1 0x1 PUSH1 0xA0 SHL MUL PUSH1 0x1 PUSH1 0x1 PUSH1 0xA8 SHL SUB NOT SWAP1 SWAP4 AND PUSH1 0x1 PUSH1 0x1 PUSH1 0xA0 SHL SUB SWAP1 SWAP3 AND SWAP2 SWAP1 SWAP2 OR SWAP2 SWAP1 SWAP2 OR SWAP1 SSTORE PUSH1 0x40 MLOAD CALLER SWAP1 DUP3 SWAP1 PUSH32 0x81F945738BEFF591C3EAB232E9F3265CE3F12263A2EC7ACF84DB8DC0FCE26A27 SWAP1 PUSH2 0x1101 SWAP1 DUP12 SWAP1 DUP10 SWAP1 DUP10 SWAP1 PUSH2 0x3400 JUMP JUMPDEST PUSH1 0x40 MLOAD DUP1 SWAP2 SUB SWAP1 LOG3 SWAP7 SWAP6 POP POP POP POP POP POP JUMP JUMPDEST PUSH2 0x112E DUP4 DUP4 DUP4 PUSH1 0x40 MLOAD DUP1 PUSH1 0x20 ADD PUSH1 0x40 MSTORE DUP1 PUSH1 0x0 DUP2 MSTORE POP PUSH2 0x1DD5 JUMP JUMPDEST POP POP POP JUMP JUMPDEST PUSH1 0x0 PUSH2 0x113E PUSH1 0x8 SLOAD SWAP1 JUMP JUMPDEST DUP3 LT PUSH2 0x1167 JUMPI PUSH1 0x40 MLOAD PUSH4 0x295F44F7 PUSH1 0xE2 SHL DUP2 MSTORE PUSH1 0x0 PUSH1 0x4 DUP3 ADD MSTORE PUSH1 0x24 DUP2 ADD DUP4 SWAP1 MSTORE PUSH1 0x44 ADD PUSH2 0xA7F JUMP JUMPDEST PUSH1 0x8 DUP3 DUP2 SLOAD DUP2 LT PUSH2 0x117A JUMPI PUSH2 0x117A PUSH2 0x3425 JUMP JUMPDEST SWAP1 PUSH1 0x0 MSTORE PUSH1 0x20 PUSH1 0x0 KECCAK256 ADD SLOAD SWAP1 POP SWAP2 SWAP1 POP JUMP JUMPDEST PUSH2 0x1194 PUSH2 0x225B JUMP JUMPDEST PUSH1 0x0 DUP2 DUP2 MSTORE PUSH1 0x10 PUSH1 0x20 MSTORE PUSH1 0x40 SWAP1 KECCAK256 PUSH1 0x3 DUP2 ADD SLOAD PUSH1 0xFF AND PUSH2 0x11F6 JUMPI PUSH1 0x40 MLOAD PUSH3 0x461BCD PUSH1 0xE5 SHL DUP2 MSTORE PUSH1 0x20 PUSH1 0x4 DUP3 ADD MSTORE PUSH1 0x1D PUSH1 0x24 DUP3 ADD MSTORE PUSH32 0x5469636B6574206973206E6F74206C697374656420666F722073616C65000000 PUSH1 0x44 DUP3 ADD MSTORE PUSH1 0x64 ADD PUSH2 0xA7F JUMP JUMPDEST DUP1 PUSH1 0x2 ADD SLOAD CALLVALUE LT ISZERO PUSH2 0x1241 JUMPI PUSH1 0x40 MLOAD PUSH3 0x461BCD PUSH1 0xE5 SHL DUP2 MSTORE PUSH1 0x20 PUSH1 0x4 DUP3 ADD MSTORE PUSH1 0x14 PUSH1 0x24 DUP3 ADD MSTORE PUSH20 0x125B9CDD59999A58DA595B9D081C185E5B595B9D PUSH1 0x62 SHL PUSH1 0x44 DUP3 ADD MSTORE PUSH1 0x64 ADD PUSH2 0xA7F JUMP JUMPDEST PUSH1 0x1 DUP2 ADD SLOAD PUSH1 0x1 PUSH1 0x1 PUSH1 0xA0 SHL SUB AND PUSH2 0x1258 DUP4 PUSH2 0x1505 JUMP JUMPDEST PUSH1 0x1 PUSH1 0x1 PUSH1 0xA0 SHL SUB AND EQ PUSH2 0x12AE JUMPI PUSH1 0x40 MLOAD PUSH3 0x461BCD PUSH1 0xE5 SHL DUP2 MSTORE PUSH1 0x20 PUSH1 0x4 DUP3 ADD DUP2 SWAP1 MSTORE PUSH1 0x24 DUP3 ADD MSTORE PUSH32 0x53656C6C6572206E6F206C6F6E676572206F776E7320746865207469636B6574 PUSH1 0x44 DUP3 ADD MSTORE PUSH1 0x64 ADD PUSH2 0xA7F JUMP JUMPDEST PUSH1 0x0 DUP3 DUP2 MSTORE PUSH1 0x11 PUSH1 0x20 SWAP1 DUP2 MSTORE PUSH1 0x40 DUP1 DUP4 KECCAK256 SLOAD DUP1 DUP5 MSTORE PUSH1 0xE SWAP1 SWAP3 MSTORE SWAP1 SWAP2 KECCAK256 PUSH1 0x3 ADD SLOAD TIMESTAMP LT PUSH2 0x1328 JUMPI PUSH1 0x40 MLOAD PUSH3 0x461BCD PUSH1 0xE5 SHL DUP2 MSTORE PUSH1 0x20 PUSH1 0x4 DUP3 ADD MSTORE PUSH1 0x22 PUSH1 0x24 DUP3 ADD MSTORE PUSH32 0x43616E6E6F7420627579207469636B65747320666F722070617374206576656E PUSH1 0x44 DUP3 ADD MSTORE PUSH2 0x7473 PUSH1 0xF0 SHL PUSH1 0x64 DUP3 ADD MSTORE PUSH1 0x84 ADD PUSH2 0xA7F JUMP JUMPDEST PUSH1 0x1 DUP3 ADD SLOAD PUSH1 0x2 DUP4 ADD SLOAD PUSH1 0x3 DUP5 ADD DUP1 SLOAD PUSH1 0xFF NOT AND SWAP1 SSTORE PUSH1 0x1 PUSH1 0x1 PUSH1 0xA0 SHL SUB SWAP1 SWAP2 AND SWAP1 PUSH2 0x1355 DUP3 CALLER DUP8 PUSH2 0x2285 JUMP JUMPDEST PUSH1 0x0 DUP3 PUSH1 0x1 PUSH1 0x1 PUSH1 0xA0 SHL SUB AND CALLVALUE PUSH1 0x40 MLOAD PUSH1 0x0 PUSH1 0x40 MLOAD DUP1 DUP4 SUB DUP2 DUP6 DUP8 GAS CALL SWAP3 POP POP POP RETURNDATASIZE DUP1 PUSH1 0x0 DUP2 EQ PUSH2 0x13A2 JUMPI PUSH1 0x40 MLOAD SWAP2 POP PUSH1 0x1F NOT PUSH1 0x3F RETURNDATASIZE ADD AND DUP3 ADD PUSH1 0x40 MSTORE RETURNDATASIZE DUP3 MSTORE RETURNDATASIZE PUSH1 0x0 PUSH1 0x20 DUP5 ADD RETURNDATACOPY PUSH2 0x13A7 JUMP JUMPDEST PUSH1 0x60 SWAP2 POP JUMPDEST POP POP SWAP1 POP DUP1 PUSH2 0x13F2 JUMPI PUSH1 0x40 MLOAD PUSH3 0x461BCD PUSH1 0xE5 SHL DUP2 MSTORE PUSH1 0x20 PUSH1 0x4 DUP3 ADD MSTORE PUSH1 0x17 PUSH1 0x24 DUP3 ADD MSTORE PUSH23 0x14185E5B595B9D081D1C985B9CD9995C8819985A5B1959 PUSH1 0x4A SHL PUSH1 0x44 DUP3 ADD MSTORE PUSH1 0x64 ADD PUSH2 0xA7F JUMP JUMPDEST CALLER PUSH1 0x1 PUSH1 0x1 PUSH1 0xA0 SHL SUB AND DUP4 PUSH1 0x1 PUSH1 0x1 PUSH1 0xA0 SHL SUB AND DUP8 PUSH32 0x2BBC64D6AFD28A753F6C5E4AAA894F1D684C44A0E080167EAE104AC8505CFEBD DUP6 PUSH1 0x40 MLOAD PUSH2 0x1438 SWAP2 DUP2 MSTORE PUSH1 0x20 ADD SWAP1 JUMP JUMPDEST PUSH1 0x40 MLOAD DUP1 SWAP2 SUB SWAP1 LOG4 POP POP POP POP POP PUSH2 0x144F PUSH1 0x1 PUSH1 0xB SSTORE JUMP JUMPDEST POP JUMP JUMPDEST PUSH1 0xF PUSH1 0x20 MSTORE PUSH1 0x0 SWAP1 DUP2 MSTORE PUSH1 0x40 SWAP1 KECCAK256 DUP1 SLOAD PUSH1 0x1 DUP3 ADD SLOAD PUSH1 0x2 DUP4 ADD SLOAD PUSH1 0x3 DUP5 ADD DUP1 SLOAD SWAP4 SWAP5 SWAP3 SWAP4 SWAP2 SWAP3 SWAP2 PUSH2 0x1482 SWAP1 PUSH2 0x328F JUMP JUMPDEST DUP1 PUSH1 0x1F ADD PUSH1 0x20 DUP1 SWAP2 DIV MUL PUSH1 0x20 ADD PUSH1 0x40 MLOAD SWAP1 DUP2 ADD PUSH1 0x40 MSTORE DUP1 SWAP3 SWAP2 SWAP1 DUP2 DUP2 MSTORE PUSH1 0x20 ADD DUP3 DUP1 SLOAD PUSH2 0x14AE SWAP1 PUSH2 0x328F JUMP JUMPDEST DUP1 ISZERO PUSH2 0x14FB JUMPI DUP1 PUSH1 0x1F LT PUSH2 0x14D0 JUMPI PUSH2 0x100 DUP1 DUP4 SLOAD DIV MUL DUP4 MSTORE SWAP2 PUSH1 0x20 ADD SWAP2 PUSH2 0x14FB JUMP JUMPDEST DUP3 ADD SWAP2 SWAP1 PUSH1 0x0 MSTORE PUSH1 0x20 PUSH1 0x0 KECCAK256 SWAP1 JUMPDEST DUP2 SLOAD DUP2 MSTORE SWAP1 PUSH1 0x1 ADD SWAP1 PUSH1 0x20 ADD DUP1 DUP4 GT PUSH2 0x14DE JUMPI DUP3 SWAP1 SUB PUSH1 0x1F AND DUP3 ADD SWAP2 JUMPDEST POP POP POP POP POP SWAP1 POP DUP5 JUMP JUMPDEST PUSH1 0x0 PUSH2 0x821 DUP3 PUSH2 0x2194 JUMP JUMPDEST PUSH1 0x60 PUSH1 0x0 PUSH2 0x151D DUP4 PUSH2 0x1B38 JUMP JUMPDEST SWAP1 POP PUSH1 0x0 DUP2 PUSH8 0xFFFFFFFFFFFFFFFF DUP2 GT ISZERO PUSH2 0x153A JUMPI PUSH2 0x153A PUSH2 0x2E84 JUMP JUMPDEST PUSH1 0x40 MLOAD SWAP1 DUP1 DUP3 MSTORE DUP1 PUSH1 0x20 MUL PUSH1 0x20 ADD DUP3 ADD PUSH1 0x40 MSTORE DUP1 ISZERO PUSH2 0x1563 JUMPI DUP2 PUSH1 0x20 ADD PUSH1 0x20 DUP3 MUL DUP1 CALLDATASIZE DUP4 CALLDATACOPY ADD SWAP1 POP JUMPDEST POP SWAP1 POP PUSH1 0x0 DUP1 JUMPDEST DUP4 DUP2 LT ISZERO PUSH2 0x15D6 JUMPI PUSH1 0x0 PUSH2 0x157E DUP8 DUP4 PUSH2 0xAE9 JUMP JUMPDEST PUSH1 0x0 DUP2 DUP2 MSTORE PUSH1 0x11 PUSH1 0x20 MSTORE PUSH1 0x40 SWAP1 KECCAK256 SLOAD SWAP1 SWAP2 POP DUP9 SWAP1 SUB PUSH2 0x15C3 JUMPI DUP1 DUP5 DUP5 DUP2 MLOAD DUP2 LT PUSH2 0x15AA JUMPI PUSH2 0x15AA PUSH2 0x3425 JUMP JUMPDEST PUSH1 0x20 SWAP1 DUP2 MUL SWAP2 SWAP1 SWAP2 ADD ADD MSTORE DUP3 PUSH2 0x15BF DUP2 PUSH2 0x32D9 JUMP JUMPDEST SWAP4 POP POP JUMPDEST POP DUP1 PUSH2 0x15CE DUP2 PUSH2 0x32D9 JUMP JUMPDEST SWAP2 POP POP PUSH2 0x156A JUMP JUMPDEST POP PUSH1 0x0 DUP2 PUSH8 0xFFFFFFFFFFFFFFFF DUP2 GT ISZERO PUSH2 0x15F2 JUMPI PUSH2 0x15F2 PUSH2 0x2E84 JUMP JUMPDEST PUSH1 0x40 MLOAD SWAP1 DUP1 DUP3 MSTORE DUP1 PUSH1 0x20 MUL PUSH1 0x20 ADD DUP3 ADD PUSH1 0x40 MSTORE DUP1 ISZERO PUSH2 0x161B JUMPI DUP2 PUSH1 0x20 ADD PUSH1 0x20 DUP3 MUL DUP1 CALLDATASIZE DUP4 CALLDATACOPY ADD SWAP1 POP JUMPDEST POP SWAP1 POP PUSH1 0x0 JUMPDEST DUP3 DUP2 LT ISZERO PUSH2 0x1672 JUMPI DUP4 DUP2 DUP2 MLOAD DUP2 LT PUSH2 0x163B JUMPI PUSH2 0x163B PUSH2 0x3425 JUMP JUMPDEST PUSH1 0x20 MUL PUSH1 0x20 ADD ADD MLOAD DUP3 DUP3 DUP2 MLOAD DUP2 LT PUSH2 0x1655 JUMPI PUSH2 0x1655 PUSH2 0x3425 JUMP JUMPDEST PUSH1 0x20 SWAP1 DUP2 MUL SWAP2 SWAP1 SWAP2 ADD ADD MSTORE DUP1 PUSH2 0x166A DUP2 PUSH2 0x32D9 JUMP JUMPDEST SWAP2 POP POP PUSH2 0x1621 JUMP JUMPDEST POP SWAP7 SWAP6 POP POP POP POP POP POP JUMP JUMPDEST PUSH1 0x0 PUSH2 0x1687 PUSH2 0x225B JUMP JUMPDEST PUSH1 0x0 DUP3 DUP2 MSTORE PUSH1 0xE PUSH1 0x20 MSTORE PUSH1 0x40 SWAP1 KECCAK256 PUSH1 0x7 DUP2 ADD SLOAD PUSH1 0x1 PUSH1 0xA0 SHL SWAP1 DIV PUSH1 0xFF AND PUSH2 0x16E6 JUMPI PUSH1 0x40 MLOAD PUSH3 0x461BCD PUSH1 0xE5 SHL DUP2 MSTORE PUSH1 0x20 PUSH1 0x4 DUP3 ADD MSTORE PUSH1 0x13 PUSH1 0x24 DUP3 ADD MSTORE PUSH19 0x4576656E74206973206E6F7420616374697665 PUSH1 0x68 SHL PUSH1 0x44 DUP3 ADD MSTORE PUSH1 0x64 ADD PUSH2 0xA7F JUMP JUMPDEST DUP1 PUSH1 0x5 ADD SLOAD DUP2 PUSH1 0x6 ADD SLOAD LT PUSH2 0x1731 JUMPI PUSH1 0x40 MLOAD PUSH3 0x461BCD PUSH1 0xE5 SHL DUP2 MSTORE PUSH1 0x20 PUSH1 0x4 DUP3 ADD MSTORE PUSH1 0x11 PUSH1 0x24 DUP3 ADD MSTORE PUSH17 0x115D995B9D081A5CC81CDBDB19081BDD5D PUSH1 0x7A SHL PUSH1 0x44 DUP3 ADD MSTORE PUSH1 0x64 ADD PUSH2 0xA7F JUMP JUMPDEST DUP1 PUSH1 0x4 ADD SLOAD CALLVALUE LT ISZERO PUSH2 0x177C JUMPI PUSH1 0x40 MLOAD PUSH3 0x461BCD PUSH1 0xE5 SHL DUP2 MSTORE PUSH1 0x20 PUSH1 0x4 DUP3 ADD MSTORE PUSH1 0x14 PUSH1 0x24 DUP3 ADD MSTORE PUSH20 0x125B9CDD59999A58DA595B9D081C185E5B595B9D PUSH1 0x62 SHL PUSH1 0x44 DUP3 ADD MSTORE PUSH1 0x64 ADD PUSH2 0xA7F JUMP JUMPDEST DUP1 PUSH1 0x3 ADD SLOAD TIMESTAMP LT PUSH2 0x17CF JUMPI PUSH1 0x40 MLOAD PUSH3 0x461BCD PUSH1 0xE5 SHL DUP2 MSTORE PUSH1 0x20 PUSH1 0x4 DUP3 ADD MSTORE PUSH1 0x18 PUSH1 0x24 DUP3 ADD MSTORE PUSH32 0x4576656E742068617320616C7265616479207061737365640000000000000000 PUSH1 0x44 DUP3 ADD MSTORE PUSH1 0x64 ADD PUSH2 0xA7F JUMP JUMPDEST PUSH1 0xD DUP1 SLOAD SWAP1 PUSH1 0x0 PUSH2 0x17DF DUP4 PUSH2 0x32D9 JUMP JUMPDEST SWAP1 SWAP2 SSTORE POP POP PUSH1 0xD SLOAD PUSH1 0x6 DUP3 ADD SLOAD PUSH1 0x0 SWAP1 PUSH2 0x17FA SWAP1 PUSH1 0x1 PUSH2 0x343B JUMP JUMPDEST PUSH1 0x6 DUP5 ADD DUP1 SLOAD SWAP2 SWAP3 POP PUSH1 0x0 PUSH2 0x180E DUP4 PUSH2 0x32D9 JUMP JUMPDEST SWAP2 SWAP1 POP SSTORE POP PUSH1 0x40 MLOAD DUP1 PUSH1 0x80 ADD PUSH1 0x40 MSTORE DUP1 DUP4 DUP2 MSTORE PUSH1 0x20 ADD DUP7 DUP2 MSTORE PUSH1 0x20 ADD DUP3 DUP2 MSTORE PUSH1 0x20 ADD PUSH2 0x183A DUP8 DUP5 PUSH2 0x2335 JUMP JUMPDEST SWAP1 MSTORE PUSH1 0x0 DUP4 DUP2 MSTORE PUSH1 0xF PUSH1 0x20 SWAP1 DUP2 MSTORE PUSH1 0x40 SWAP2 DUP3 SWAP1 KECCAK256 DUP4 MLOAD DUP2 SSTORE SWAP1 DUP4 ADD MLOAD PUSH1 0x1 DUP3 ADD SSTORE SWAP1 DUP3 ADD MLOAD PUSH1 0x2 DUP3 ADD SSTORE PUSH1 0x60 DUP3 ADD MLOAD PUSH1 0x3 DUP3 ADD SWAP1 PUSH2 0x1878 SWAP1 DUP3 PUSH2 0x3340 JUMP JUMPDEST POP POP POP PUSH1 0x0 DUP3 DUP2 MSTORE PUSH1 0x11 PUSH1 0x20 MSTORE PUSH1 0x40 SWAP1 KECCAK256 DUP6 SWAP1 SSTORE PUSH2 0x1896 CALLER DUP4 PUSH2 0x2371 JUMP JUMPDEST PUSH1 0x7 DUP4 ADD SLOAD PUSH1 0x40 MLOAD PUSH1 0x0 SWAP2 PUSH1 0x1 PUSH1 0x1 PUSH1 0xA0 SHL SUB AND SWAP1 CALLVALUE SWAP1 DUP4 DUP2 DUP2 DUP2 DUP6 DUP8 GAS CALL SWAP3 POP POP POP RETURNDATASIZE DUP1 PUSH1 0x0 DUP2 EQ PUSH2 0x18E5 JUMPI PUSH1 0x40 MLOAD SWAP2 POP PUSH1 0x1F NOT PUSH1 0x3F RETURNDATASIZE ADD AND DUP3 ADD PUSH1 0x40 MSTORE RETURNDATASIZE DUP3 MSTORE RETURNDATASIZE PUSH1 0x0 PUSH1 0x20 DUP5 ADD RETURNDATACOPY PUSH2 0x18EA JUMP JUMPDEST PUSH1 0x60 SWAP2 POP JUMPDEST POP POP SWAP1 POP DUP1 PUSH2 0x1935 JUMPI PUSH1 0x40 MLOAD PUSH3 0x461BCD PUSH1 0xE5 SHL DUP2 MSTORE PUSH1 0x20 PUSH1 0x4 DUP3 ADD MSTORE PUSH1 0x17 PUSH1 0x24 DUP3 ADD MSTORE PUSH23 0x14185E5B595B9D081D1C985B9CD9995C8819985A5B1959 PUSH1 0x4A SHL PUSH1 0x44 DUP3 ADD MSTORE PUSH1 0x64 ADD PUSH2 0xA7F JUMP JUMPDEST CALLER PUSH1 0x1 PUSH1 0x1 PUSH1 0xA0 SHL SUB AND DUP7 DUP5 PUSH32 0x4FE0F5BB11EB6AB81C428FB83261719E5B22F84B3E1942CD491C3777504BB851 DUP6 PUSH1 0x40 MLOAD PUSH2 0x1972 SWAP2 DUP2 MSTORE PUSH1 0x20 ADD SWAP1 JUMP JUMPDEST PUSH1 0x40 MLOAD DUP1 SWAP2 SUB SWAP1 LOG4 POP SWAP1 SWAP3 POP POP POP PUSH2 0x198A PUSH1 0x1 PUSH1 0xB SSTORE JUMP JUMPDEST SWAP2 SWAP1 POP JUMP JUMPDEST PUSH2 0x1997 PUSH2 0x2C6A JUMP JUMPDEST PUSH1 0xE PUSH1 0x0 DUP4 DUP2 MSTORE PUSH1 0x20 ADD SWAP1 DUP2 MSTORE PUSH1 0x20 ADD PUSH1 0x0 KECCAK256 PUSH1 0x40 MLOAD DUP1 PUSH2 0x120 ADD PUSH1 0x40 MSTORE SWAP1 DUP2 PUSH1 0x0 DUP3 ADD SLOAD DUP2 MSTORE PUSH1 0x20 ADD PUSH1 0x1 DUP3 ADD DUP1 SLOAD PUSH2 0x19D0 SWAP1 PUSH2 0x328F JUMP JUMPDEST DUP1 PUSH1 0x1F ADD PUSH1 0x20 DUP1 SWAP2 DIV MUL PUSH1 0x20 ADD PUSH1 0x40 MLOAD SWAP1 DUP2 ADD PUSH1 0x40 MSTORE DUP1 SWAP3 SWAP2 SWAP1 DUP2 DUP2 MSTORE PUSH1 0x20 ADD DUP3 DUP1 SLOAD PUSH2 0x19FC SWAP1 PUSH2 0x328F JUMP JUMPDEST DUP1 ISZERO PUSH2 0x1A49 JUMPI DUP1 PUSH1 0x1F LT PUSH2 0x1A1E JUMPI PUSH2 0x100 DUP1 DUP4 SLOAD DIV MUL DUP4 MSTORE SWAP2 PUSH1 0x20 ADD SWAP2 PUSH2 0x1A49 JUMP JUMPDEST DUP3 ADD SWAP2 SWAP1 PUSH1 0x0 MSTORE PUSH1 0x20 PUSH1 0x0 KECCAK256 SWAP1 JUMPDEST DUP2 SLOAD DUP2 MSTORE SWAP1 PUSH1 0x1 ADD SWAP1 PUSH1 0x20 ADD DUP1 DUP4 GT PUSH2 0x1A2C JUMPI DUP3 SWAP1 SUB PUSH1 0x1F AND DUP3 ADD SWAP2 JUMPDEST POP POP POP POP POP DUP2 MSTORE PUSH1 0x20 ADD PUSH1 0x2 DUP3 ADD DUP1 SLOAD PUSH2 0x1A62 SWAP1 PUSH2 0x328F JUMP JUMPDEST DUP1 PUSH1 0x1F ADD PUSH1 0x20 DUP1 SWAP2 DIV MUL PUSH1 0x20 ADD PUSH1 0x40 MLOAD SWAP1 DUP2 ADD PUSH1 0x40 MSTORE DUP1 SWAP3 SWAP2 SWAP1 DUP2 DUP2 MSTORE PUSH1 0x20 ADD DUP3 DUP1 SLOAD PUSH2 0x1A8E SWAP1 PUSH2 0x328F JUMP JUMPDEST DUP1 ISZERO PUSH2 0x1ADB JUMPI DUP1 PUSH1 0x1F LT PUSH2 0x1AB0 JUMPI PUSH2 0x100 DUP1 DUP4 SLOAD DIV MUL DUP4 MSTORE SWAP2 PUSH1 0x20 ADD SWAP2 PUSH2 0x1ADB JUMP JUMPDEST DUP3 ADD SWAP2 SWAP1 PUSH1 0x0 MSTORE PUSH1 0x20 PUSH1 0x0 KECCAK256 SWAP1 JUMPDEST DUP2 SLOAD DUP2 MSTORE SWAP1 PUSH1 0x1 ADD SWAP1 PUSH1 0x20 ADD DUP1 DUP4 GT PUSH2 0x1ABE JUMPI DUP3 SWAP1 SUB PUSH1 0x1F AND DUP3 ADD SWAP2 JUMPDEST POP POP POP SWAP2 DUP4 MSTORE POP POP PUSH1 0x3 DUP3 ADD SLOAD PUSH1 0x20 DUP3 ADD MSTORE PUSH1 0x4 DUP3 ADD SLOAD PUSH1 0x40 DUP3 ADD MSTORE PUSH1 0x5 DUP3 ADD SLOAD PUSH1 0x60 DUP3 ADD MSTORE PUSH1 0x6 DUP3 ADD SLOAD PUSH1 0x80 DUP3 ADD MSTORE PUSH1 0x7 SWAP1 SWAP2 ADD SLOAD PUSH1 0x1 PUSH1 0x1 PUSH1 0xA0 SHL SUB DUP2 AND PUSH1 0xA0 DUP4 ADD MSTORE PUSH1 0x1 PUSH1 0xA0 SHL SWAP1 DIV PUSH1 0xFF AND ISZERO ISZERO PUSH1 0xC0 SWAP1 SWAP2 ADD MSTORE SWAP3 SWAP2 POP POP JUMP JUMPDEST PUSH1 0x0 PUSH1 0x1 PUSH1 0x1 PUSH1 0xA0 SHL SUB DUP3 AND PUSH2 0x1B64 JUMPI PUSH1 0x40 MLOAD PUSH4 0x22718AD9 PUSH1 0xE2 SHL DUP2 MSTORE PUSH1 0x0 PUSH1 0x4 DUP3 ADD MSTORE PUSH1 0x24 ADD PUSH2 0xA7F JUMP JUMPDEST POP PUSH1 0x1 PUSH1 0x1 PUSH1 0xA0 SHL SUB AND PUSH1 0x0 SWAP1 DUP2 MSTORE PUSH1 0x3 PUSH1 0x20 MSTORE PUSH1 0x40 SWAP1 KECCAK256 SLOAD SWAP1 JUMP JUMPDEST PUSH2 0x1B88 PUSH2 0x238B JUMP JUMPDEST PUSH2 0x1B92 PUSH1 0x0 PUSH2 0x23B8 JUMP JUMPDEST JUMP JUMPDEST PUSH2 0x1BBF PUSH1 0x40 MLOAD DUP1 PUSH1 0x80 ADD PUSH1 0x40 MSTORE DUP1 PUSH1 0x0 DUP2 MSTORE PUSH1 0x20 ADD PUSH1 0x0 DUP2 MSTORE PUSH1 0x20 ADD PUSH1 0x0 DUP2 MSTORE PUSH1 0x20 ADD PUSH1 0x60 DUP2 MSTORE POP SWAP1 JUMP JUMPDEST PUSH1 0xF PUSH1 0x0 DUP4 DUP2 MSTORE PUSH1 0x20 ADD SWAP1 DUP2 MSTORE PUSH1 0x20 ADD PUSH1 0x0 KECCAK256 PUSH1 0x40 MLOAD DUP1 PUSH1 0x80 ADD PUSH1 0x40 MSTORE SWAP1 DUP2 PUSH1 0x0 DUP3 ADD SLOAD DUP2 MSTORE PUSH1 0x20 ADD PUSH1 0x1 DUP3 ADD SLOAD DUP2 MSTORE PUSH1 0x20 ADD PUSH1 0x2 DUP3 ADD SLOAD DUP2 MSTORE PUSH1 0x20 ADD PUSH1 0x3 DUP3 ADD DUP1 SLOAD PUSH2 0x1C0B SWAP1 PUSH2 0x328F JUMP JUMPDEST DUP1 PUSH1 0x1F ADD PUSH1 0x20 DUP1 SWAP2 DIV MUL PUSH1 0x20 ADD PUSH1 0x40 MLOAD SWAP1 DUP2 ADD PUSH1 0x40 MSTORE DUP1 SWAP3 SWAP2 SWAP1 DUP2 DUP2 MSTORE PUSH1 0x20 ADD DUP3 DUP1 SLOAD PUSH2 0x1C37 SWAP1 PUSH2 0x328F JUMP JUMPDEST DUP1 ISZERO PUSH2 0x1C84 JUMPI DUP1 PUSH1 0x1F LT PUSH2 0x1C59 JUMPI PUSH2 0x100 DUP1 DUP4 SLOAD DIV MUL DUP4 MSTORE SWAP2 PUSH1 0x20 ADD SWAP2 PUSH2 0x1C84 JUMP JUMPDEST DUP3 ADD SWAP2 SWAP1 PUSH1 0x0 MSTORE PUSH1 0x20 PUSH1 0x0 KECCAK256 SWAP1 JUMPDEST DUP2 SLOAD DUP2 MSTORE SWAP1 PUSH1 0x1 ADD SWAP1 PUSH1 0x20 ADD DUP1 DUP4 GT PUSH2 0x1C67 JUMPI DUP3 SWAP1 SUB PUSH1 0x1F AND DUP3 ADD SWAP2 JUMPDEST POP POP POP POP POP DUP2 MSTORE POP POP SWAP1 POP SWAP2 SWAP1 POP JUMP JUMPDEST PUSH1 0x60 PUSH1 0x0 PUSH1 0x1 JUMPDEST PUSH1 0xD SLOAD DUP2 GT PUSH2 0x1CDE JUMPI PUSH1 0x0 DUP2 DUP2 MSTORE PUSH1 0x10 PUSH1 0x20 MSTORE PUSH1 0x40 SWAP1 KECCAK256 PUSH1 0x3 ADD SLOAD PUSH1 0xFF AND ISZERO PUSH2 0x1CCC JUMPI DUP2 PUSH2 0x1CC8 DUP2 PUSH2 0x32D9 JUMP JUMPDEST SWAP3 POP POP JUMPDEST DUP1 PUSH2 0x1CD6 DUP2 PUSH2 0x32D9 JUMP JUMPDEST SWAP2 POP POP PUSH2 0x1C9B JUMP JUMPDEST POP PUSH1 0x0 DUP2 PUSH8 0xFFFFFFFFFFFFFFFF DUP2 GT ISZERO PUSH2 0x1CFA JUMPI PUSH2 0x1CFA PUSH2 0x2E84 JUMP JUMPDEST PUSH1 0x40 MLOAD SWAP1 DUP1 DUP3 MSTORE DUP1 PUSH1 0x20 MUL PUSH1 0x20 ADD DUP3 ADD PUSH1 0x40 MSTORE DUP1 ISZERO PUSH2 0x1D23 JUMPI DUP2 PUSH1 0x20 ADD PUSH1 0x20 DUP3 MUL DUP1 CALLDATASIZE DUP4 CALLDATACOPY ADD SWAP1 POP JUMPDEST POP SWAP1 POP PUSH1 0x0 PUSH1 0x1 JUMPDEST PUSH1 0xD SLOAD DUP2 GT PUSH2 0x1D8C JUMPI PUSH1 0x0 DUP2 DUP2 MSTORE PUSH1 0x10 PUSH1 0x20 MSTORE PUSH1 0x40 SWAP1 KECCAK256 PUSH1 0x3 ADD SLOAD PUSH1 0xFF AND ISZERO PUSH2 0x1D7A JUMPI DUP1 DUP4 DUP4 DUP2 MLOAD DUP2 LT PUSH2 0x1D61 JUMPI PUSH2 0x1D61 PUSH2 0x3425 JUMP JUMPDEST PUSH1 0x20 SWAP1 DUP2 MUL SWAP2 SWAP1 SWAP2 ADD ADD MSTORE DUP2 PUSH2 0x1D76 DUP2 PUSH2 0x32D9 JUMP JUMPDEST SWAP3 POP POP JUMPDEST DUP1 PUSH2 0x1D84 DUP2 PUSH2 0x32D9 JUMP JUMPDEST SWAP2 POP POP PUSH2 0x1D2B JUMP JUMPDEST POP SWAP1 SWAP4 SWAP3 POP POP POP JUMP JUMPDEST PUSH2 0x1D9D PUSH2 0x238B JUMP JUMPDEST PUSH1 0x0 SWAP1 DUP2 MSTORE PUSH1 0xE PUSH1 0x20 MSTORE PUSH1 0x40 SWAP1 KECCAK256 PUSH1 0x7 ADD DUP1 SLOAD PUSH1 0xFF PUSH1 0xA0 SHL NOT AND SWAP1 SSTORE JUMP JUMPDEST PUSH1 0x60 PUSH1 0x1 DUP1 SLOAD PUSH2 0x836 SWAP1 PUSH2 0x328F JUMP JUMPDEST PUSH2 0x8ED CALLER DUP4 DUP4 PUSH2 0x240A JUMP JUMPDEST PUSH2 0x1DE0 DUP5 DUP5 DUP5 PUSH2 0xA59 JUMP JUMPDEST PUSH2 0xAE3 DUP5 DUP5 DUP5 DUP5 PUSH2 0x24A1 JUMP JUMPDEST PUSH1 0x60 PUSH1 0x0 PUSH1 0xC SLOAD PUSH8 0xFFFFFFFFFFFFFFFF DUP2 GT ISZERO PUSH2 0x1E0B JUMPI PUSH2 0x1E0B PUSH2 0x2E84 JUMP JUMPDEST PUSH1 0x40 MLOAD SWAP1 DUP1 DUP3 MSTORE DUP1 PUSH1 0x20 MUL PUSH1 0x20 ADD DUP3 ADD PUSH1 0x40 MSTORE DUP1 ISZERO PUSH2 0x1E44 JUMPI DUP2 PUSH1 0x20 ADD JUMPDEST PUSH2 0x1E31 PUSH2 0x2C6A JUMP JUMPDEST DUP2 MSTORE PUSH1 0x20 ADD SWAP1 PUSH1 0x1 SWAP1 SUB SWAP1 DUP2 PUSH2 0x1E29 JUMPI SWAP1 POP JUMPDEST POP SWAP1 POP PUSH1 0x1 JUMPDEST PUSH1 0xC SLOAD DUP2 GT PUSH2 0x2028 JUMPI PUSH1 0xE PUSH1 0x0 DUP3 DUP2 MSTORE PUSH1 0x20 ADD SWAP1 DUP2 MSTORE PUSH1 0x20 ADD PUSH1 0x0 KECCAK256 PUSH1 0x40 MLOAD DUP1 PUSH2 0x120 ADD PUSH1 0x40 MSTORE SWAP1 DUP2 PUSH1 0x0 DUP3 ADD SLOAD DUP2 MSTORE PUSH1 0x20 ADD PUSH1 0x1 DUP3 ADD DUP1 SLOAD PUSH2 0x1E8C SWAP1 PUSH2 0x328F JUMP JUMPDEST DUP1 PUSH1 0x1F ADD PUSH1 0x20 DUP1 SWAP2 DIV MUL PUSH1 0x20 ADD PUSH1 0x40 MLOAD SWAP1 DUP2 ADD PUSH1 0x40 MSTORE DUP1 SWAP3 SWAP2 SWAP1 DUP2 DUP2 MSTORE PUSH1 0x20 ADD DUP3 DUP1 SLOAD PUSH2 0x1EB8 SWAP1 PUSH2 0x328F JUMP JUMPDEST DUP1 ISZERO PUSH2 0x1F05 JUMPI DUP1 PUSH1 0x1F LT PUSH2 0x1EDA JUMPI PUSH2 0x100 DUP1 DUP4 SLOAD DIV MUL DUP4 MSTORE SWAP2 PUSH1 0x20 ADD SWAP2 PUSH2 0x1F05 JUMP JUMPDEST DUP3 ADD SWAP2 SWAP1 PUSH1 0x0 MSTORE PUSH1 0x20 PUSH1 0x0 KECCAK256 SWAP1 JUMPDEST DUP2 SLOAD DUP2 MSTORE SWAP1 PUSH1 0x1 ADD SWAP1 PUSH1 0x20 ADD DUP1 DUP4 GT PUSH2 0x1EE8 JUMPI DUP3 SWAP1 SUB PUSH1 0x1F AND DUP3 ADD SWAP2 JUMPDEST POP POP POP POP POP DUP2 MSTORE PUSH1 0x20 ADD PUSH1 0x2 DUP3 ADD DUP1 SLOAD PUSH2 0x1F1E SWAP1 PUSH2 0x328F JUMP JUMPDEST DUP1 PUSH1 0x1F ADD PUSH1 0x20 DUP1 SWAP2 DIV MUL PUSH1 0x20 ADD PUSH1 0x40 MLOAD SWAP1 DUP2 ADD PUSH1 0x40 MSTORE DUP1 SWAP3 SWAP2 SWAP1 DUP2 DUP2 MSTORE PUSH1 0x20 ADD DUP3 DUP1 SLOAD PUSH2 0x1F4A SWAP1 PUSH2 0x328F JUMP JUMPDEST DUP1 ISZERO PUSH2 0x1F97 JUMPI DUP1 PUSH1 0x1F LT PUSH2 0x1F6C JUMPI PUSH2 0x100 DUP1 DUP4 SLOAD DIV MUL DUP4 MSTORE SWAP2 PUSH1 0x20 ADD SWAP2 PUSH2 0x1F97 JUMP JUMPDEST DUP3 ADD SWAP2 SWAP1 PUSH1 0x0 MSTORE PUSH1 0x20 PUSH1 0x0 KECCAK256 SWAP1 JUMPDEST DUP2 SLOAD DUP2 MSTORE SWAP1 PUSH1 0x1 ADD SWAP1 PUSH1 0x20 ADD DUP1 DUP4 GT PUSH2 0x1F7A JUMPI DUP3 SWAP1 SUB PUSH1 0x1F AND DUP3 ADD SWAP2 JUMPDEST POP POP POP SWAP2 DUP4 MSTORE POP POP PUSH1 0x3 DUP3 ADD SLOAD PUSH1 0x20 DUP3 ADD MSTORE PUSH1 0x4 DUP3 ADD SLOAD PUSH1 0x40 DUP3 ADD MSTORE PUSH1 0x5 DUP3 ADD SLOAD PUSH1 0x60 DUP3 ADD MSTORE PUSH1 0x6 DUP3 ADD SLOAD PUSH1 0x80 DUP3 ADD MSTORE PUSH1 0x7 SWAP1 SWAP2 ADD SLOAD PUSH1 0x1 PUSH1 0x1 PUSH1 0xA0 SHL SUB DUP2 AND PUSH1 0xA0 DUP4 ADD MSTORE PUSH1 0x1 PUSH1 0xA0 SHL SWAP1 DIV PUSH1 0xFF AND ISZERO ISZERO PUSH1 0xC0 SWAP1 SWAP2 ADD MSTORE DUP3 PUSH2 0x1FFA PUSH1 0x1 DUP5 PUSH2 0x344E JUMP JUMPDEST DUP2 MLOAD DUP2 LT PUSH2 0x200A JUMPI PUSH2 0x200A PUSH2 0x3425 JUMP JUMPDEST PUSH1 0x20 MUL PUSH1 0x20 ADD ADD DUP2 SWAP1 MSTORE POP DUP1 DUP1 PUSH2 0x2020 SWAP1 PUSH2 0x32D9 JUMP JUMPDEST SWAP2 POP POP PUSH2 0x1E4A JUMP JUMPDEST POP SWAP2 SWAP1 POP JUMP JUMPDEST PUSH1 0x60 PUSH2 0x2039 DUP3 PUSH2 0x2194 JUMP JUMPDEST POP PUSH1 0x0 DUP3 DUP2 MSTORE PUSH1 0xF PUSH1 0x20 MSTORE PUSH1 0x40 SWAP1 KECCAK256 PUSH1 0x3 ADD DUP1 SLOAD PUSH2 0x2056 SWAP1 PUSH2 0x328F JUMP JUMPDEST DUP1 PUSH1 0x1F ADD PUSH1 0x20 DUP1 SWAP2 DIV MUL PUSH1 0x20 ADD PUSH1 0x40 MLOAD SWAP1 DUP2 ADD PUSH1 0x40 MSTORE DUP1 SWAP3 SWAP2 SWAP1 DUP2 DUP2 MSTORE PUSH1 0x20 ADD DUP3 DUP1 SLOAD PUSH2 0x2082 SWAP1 PUSH2 0x328F JUMP JUMPDEST DUP1 ISZERO PUSH2 0x20CF JUMPI DUP1 PUSH1 0x1F LT PUSH2 0x20A4 JUMPI PUSH2 0x100 DUP1 DUP4 SLOAD DIV MUL DUP4 MSTORE SWAP2 PUSH1 0x20 ADD SWAP2 PUSH2 0x20CF JUMP JUMPDEST DUP3 ADD SWAP2 SWAP1 PUSH1 0x0 MSTORE PUSH1 0x20 PUSH1 0x0 KECCAK256 SWAP1 JUMPDEST DUP2 SLOAD DUP2 MSTORE SWAP1 PUSH1 0x1 ADD SWAP1 PUSH1 0x20 ADD DUP1 DUP4 GT PUSH2 0x20B2 JUMPI DUP3 SWAP1 SUB PUSH1 0x1F AND DUP3 ADD SWAP2 JUMPDEST POP POP POP POP POP SWAP1 POP SWAP2 SWAP1 POP JUMP JUMPDEST PUSH1 0x1 PUSH1 0x1 PUSH1 0xA0 SHL SUB SWAP2 DUP3 AND PUSH1 0x0 SWAP1 DUP2 MSTORE PUSH1 0x5 PUSH1 0x20 SWAP1 DUP2 MSTORE PUSH1 0x40 DUP1 DUP4 KECCAK256 SWAP4 SWAP1 SWAP5 AND DUP3 MSTORE SWAP2 SWAP1 SWAP2 MSTORE KECCAK256 SLOAD PUSH1 0xFF AND SWAP1 JUMP JUMPDEST PUSH2 0x2111 PUSH2 0x238B JUMP JUMPDEST PUSH1 0x1 PUSH1 0x1 PUSH1 0xA0 SHL SUB DUP2 AND PUSH2 0x213B JUMPI PUSH1 0x40 MLOAD PUSH4 0x1E4FBDF7 PUSH1 0xE0 SHL DUP2 MSTORE PUSH1 0x0 PUSH1 0x4 DUP3 ADD MSTORE PUSH1 0x24 ADD PUSH2 0xA7F JUMP JUMPDEST PUSH2 0x144F DUP2 PUSH2 0x23B8 JUMP JUMPDEST PUSH1 0x0 PUSH1 0x1 PUSH1 0x1 PUSH1 0xE0 SHL SUB NOT DUP3 AND PUSH4 0x80AC58CD PUSH1 0xE0 SHL EQ DUP1 PUSH2 0x2175 JUMPI POP PUSH1 0x1 PUSH1 0x1 PUSH1 0xE0 SHL SUB NOT DUP3 AND PUSH4 0x5B5E139F PUSH1 0xE0 SHL EQ JUMPDEST DUP1 PUSH2 0x821 JUMPI POP PUSH4 0x1FFC9A7 PUSH1 0xE0 SHL PUSH1 0x1 PUSH1 0x1 PUSH1 0xE0 SHL SUB NOT DUP4 AND EQ PUSH2 0x821 JUMP JUMPDEST PUSH1 0x0 DUP2 DUP2 MSTORE PUSH1 0x2 PUSH1 0x20 MSTORE PUSH1 0x40 DUP2 KECCAK256 SLOAD PUSH1 0x1 PUSH1 0x1 PUSH1 0xA0 SHL SUB AND DUP1 PUSH2 0x821 JUMPI PUSH1 0x40 MLOAD PUSH4 0x7E273289 PUSH1 0xE0 SHL DUP2 MSTORE PUSH1 0x4 DUP2 ADD DUP5 SWAP1 MSTORE PUSH1 0x24 ADD PUSH2 0xA7F JUMP JUMPDEST PUSH2 0x112E DUP4 DUP4 DUP4 PUSH1 0x1 PUSH2 0x25CA JUMP JUMPDEST PUSH1 0x0 DUP3 DUP2 MSTORE PUSH1 0x10 PUSH1 0x20 MSTORE PUSH1 0x40 DUP2 KECCAK256 PUSH1 0x3 ADD SLOAD PUSH1 0xFF AND ISZERO PUSH2 0x2248 JUMPI PUSH1 0x0 DUP4 DUP2 MSTORE PUSH1 0x10 PUSH1 0x20 MSTORE PUSH1 0x40 DUP1 DUP3 KECCAK256 PUSH1 0x3 DUP2 ADD DUP1 SLOAD PUSH1 0xFF NOT AND SWAP1 SSTORE PUSH1 0x1 ADD SLOAD SWAP1 MLOAD PUSH1 0x1 PUSH1 0x1 PUSH1 0xA0 SHL SUB SWAP1 SWAP2 AND SWAP2 DUP6 SWAP2 PUSH32 0x76C5D8A17D0BEE8BD0E004133353CD78EDE70AC9ACE2AA18BF839E748CAFF290 SWAP2 SWAP1 LOG3 JUMPDEST PUSH2 0x2253 DUP5 DUP5 DUP5 PUSH2 0x26D0 JUMP JUMPDEST SWAP5 SWAP4 POP POP POP POP JUMP JUMPDEST PUSH1 0x2 PUSH1 0xB SLOAD SUB PUSH2 0x227E JUMPI PUSH1 0x40 MLOAD PUSH4 0x3EE5AEB5 PUSH1 0xE0 SHL DUP2 MSTORE PUSH1 0x4 ADD PUSH1 0x40 MLOAD DUP1 SWAP2 SUB SWAP1 REVERT JUMPDEST PUSH1 0x2 PUSH1 0xB SSTORE JUMP JUMPDEST PUSH1 0x1 PUSH1 0x1 PUSH1 0xA0 SHL SUB DUP3 AND PUSH2 0x22AF JUMPI PUSH1 0x40 MLOAD PUSH4 0x32505749 PUSH1 0xE1 SHL DUP2 MSTORE PUSH1 0x0 PUSH1 0x4 DUP3 ADD MSTORE PUSH1 0x24 ADD PUSH2 0xA7F JUMP JUMPDEST PUSH1 0x0 PUSH2 0x22BD DUP4 DUP4 PUSH1 0x0 PUSH2 0x21DA JUMP JUMPDEST SWAP1 POP PUSH1 0x1 PUSH1 0x1 PUSH1 0xA0 SHL SUB DUP2 AND PUSH2 0x22E9 JUMPI PUSH1 0x40 MLOAD PUSH4 0x7E273289 PUSH1 0xE0 SHL DUP2 MSTORE PUSH1 0x4 DUP2 ADD DUP4 SWAP1 MSTORE PUSH1 0x24 ADD PUSH2 0xA7F JUMP JUMPDEST DUP4 PUSH1 0x1 PUSH1 0x1 PUSH1 0xA0 SHL SUB AND DUP2 PUSH1 0x1 PUSH1 0x1 PUSH1 0xA0 SHL SUB AND EQ PUSH2 0xAE3 JUMPI PUSH1 0x40 MLOAD PUSH4 0x64283D7B PUSH1 0xE0 SHL DUP2 MSTORE PUSH1 0x1 PUSH1 0x1 PUSH1 0xA0 SHL SUB DUP1 DUP7 AND PUSH1 0x4 DUP4 ADD MSTORE PUSH1 0x24 DUP3 ADD DUP5 SWAP1 MSTORE DUP3 AND PUSH1 0x44 DUP3 ADD MSTORE PUSH1 0x64 ADD PUSH2 0xA7F JUMP JUMPDEST PUSH1 0x60 PUSH2 0x2340 DUP4 PUSH2 0x279D JUMP JUMPDEST PUSH2 0x2349 DUP4 PUSH2 0x279D JUMP JUMPDEST PUSH1 0x40 MLOAD PUSH1 0x20 ADD PUSH2 0x235A SWAP3 SWAP2 SWAP1 PUSH2 0x3461 JUMP JUMPDEST PUSH1 0x40 MLOAD PUSH1 0x20 DUP2 DUP4 SUB SUB DUP2 MSTORE SWAP1 PUSH1 0x40 MSTORE SWAP1 POP SWAP3 SWAP2 POP POP JUMP JUMPDEST PUSH2 0x8ED DUP3 DUP3 PUSH1 0x40 MLOAD DUP1 PUSH1 0x20 ADD PUSH1 0x40 MSTORE DUP1 PUSH1 0x0 DUP2 MSTORE POP PUSH2 0x289E JUMP JUMPDEST PUSH1 0xA SLOAD PUSH1 0x1 PUSH1 0x1 PUSH1 0xA0 SHL SUB AND CALLER EQ PUSH2 0x1B92 JUMPI PUSH1 0x40 MLOAD PUSH4 0x118CDAA7 PUSH1 0xE0 SHL DUP2 MSTORE CALLER PUSH1 0x4 DUP3 ADD MSTORE PUSH1 0x24 ADD PUSH2 0xA7F JUMP JUMPDEST PUSH1 0xA DUP1 SLOAD PUSH1 0x1 PUSH1 0x1 PUSH1 0xA0 SHL SUB DUP4 DUP2 AND PUSH1 0x1 PUSH1 0x1 PUSH1 0xA0 SHL SUB NOT DUP4 AND DUP2 OR SWAP1 SWAP4 SSTORE PUSH1 0x40 MLOAD SWAP2 AND SWAP2 SWAP1 DUP3 SWAP1 PUSH32 0x8BE0079C531659141344CD1FD0A4F28419497F9722A3DAAFE3B4186F6B6457E0 SWAP1 PUSH1 0x0 SWAP1 LOG3 POP POP JUMP JUMPDEST PUSH1 0x1 PUSH1 0x1 PUSH1 0xA0 SHL SUB DUP3 AND PUSH2 0x243C JUMPI PUSH1 0x40 MLOAD PUSH4 0xB611743 PUSH1 0xE3 SHL DUP2 MSTORE PUSH1 0x1 PUSH1 0x1 PUSH1 0xA0 SHL SUB DUP4 AND PUSH1 0x4 DUP3 ADD MSTORE PUSH1 0x24 ADD PUSH2 0xA7F JUMP JUMPDEST PUSH1 0x1 PUSH1 0x1 PUSH1 0xA0 SHL SUB DUP4 DUP2 AND PUSH1 0x0 DUP2 DUP2 MSTORE PUSH1 0x5 PUSH1 0x20 SWAP1 DUP2 MSTORE PUSH1 0x40 DUP1 DUP4 KECCAK256 SWAP5 DUP8 AND DUP1 DUP5 MSTORE SWAP5 DUP3 MSTORE SWAP2 DUP3 SWAP1 KECCAK256 DUP1 SLOAD PUSH1 0xFF NOT AND DUP7 ISZERO ISZERO SWAP1 DUP2 OR SWAP1 SWAP2 SSTORE SWAP2 MLOAD SWAP2 DUP3 MSTORE PUSH32 0x17307EAB39AB6107E8899845AD3D59BD9653F200F220920489CA2B5937696C31 SWAP2 ADD PUSH2 0xE65 JUMP JUMPDEST PUSH1 0x1 PUSH1 0x1 PUSH1 0xA0 SHL SUB DUP4 AND EXTCODESIZE ISZERO PUSH2 0xAE3 JUMPI PUSH1 0x40 MLOAD PUSH4 0xA85BD01 PUSH1 0xE1 SHL DUP2 MSTORE PUSH1 0x1 PUSH1 0x1 PUSH1 0xA0 SHL SUB DUP5 AND SWAP1 PUSH4 0x150B7A02 SWAP1 PUSH2 0x24E3 SWAP1 CALLER SWAP1 DUP9 SWAP1 DUP8 SWAP1 DUP8 SWAP1 PUSH1 0x4 ADD PUSH2 0x34EB JUMP JUMPDEST PUSH1 0x20 PUSH1 0x40 MLOAD DUP1 DUP4 SUB DUP2 PUSH1 0x0 DUP8 GAS CALL SWAP3 POP POP POP DUP1 ISZERO PUSH2 0x251E JUMPI POP PUSH1 0x40 DUP1 MLOAD PUSH1 0x1F RETURNDATASIZE SWAP1 DUP2 ADD PUSH1 0x1F NOT AND DUP3 ADD SWAP1 SWAP3 MSTORE PUSH2 0x251B SWAP2 DUP2 ADD SWAP1 PUSH2 0x351E JUMP JUMPDEST PUSH1 0x1 JUMPDEST PUSH2 0x2587 JUMPI RETURNDATASIZE DUP1 DUP1 ISZERO PUSH2 0x254C JUMPI PUSH1 0x40 MLOAD SWAP2 POP PUSH1 0x1F NOT PUSH1 0x3F RETURNDATASIZE ADD AND DUP3 ADD PUSH1 0x40 MSTORE RETURNDATASIZE DUP3 MSTORE RETURNDATASIZE PUSH1 0x0 PUSH1 0x20 DUP5 ADD RETURNDATACOPY PUSH2 0x2551 JUMP JUMPDEST PUSH1 0x60 SWAP2 POP JUMPDEST POP DUP1 MLOAD PUSH1 0x0 SUB PUSH2 0x257F JUMPI PUSH1 0x40 MLOAD PUSH4 0x32505749 PUSH1 0xE1 SHL DUP2 MSTORE PUSH1 0x1 PUSH1 0x1 PUSH1 0xA0 SHL SUB DUP6 AND PUSH1 0x4 DUP3 ADD MSTORE PUSH1 0x24 ADD PUSH2 0xA7F JUMP JUMPDEST DUP1 MLOAD DUP2 PUSH1 0x20 ADD REVERT JUMPDEST PUSH1 0x1 PUSH1 0x1 PUSH1 0xE0 SHL SUB NOT DUP2 AND PUSH4 0xA85BD01 PUSH1 0xE1 SHL EQ PUSH2 0x25C3 JUMPI PUSH1 0x40 MLOAD PUSH4 0x32505749 PUSH1 0xE1 SHL DUP2 MSTORE PUSH1 0x1 PUSH1 0x1 PUSH1 0xA0 SHL SUB DUP6 AND PUSH1 0x4 DUP3 ADD MSTORE PUSH1 0x24 ADD PUSH2 0xA7F JUMP JUMPDEST POP POP POP POP POP JUMP JUMPDEST DUP1 DUP1 PUSH2 0x25DE JUMPI POP PUSH1 0x1 PUSH1 0x1 PUSH1 0xA0 SHL SUB DUP3 AND ISZERO ISZERO JUMPDEST ISZERO PUSH2 0x26A0 JUMPI PUSH1 0x0 PUSH2 0x25EE DUP5 PUSH2 0x2194 JUMP JUMPDEST SWAP1 POP PUSH1 0x1 PUSH1 0x1 PUSH1 0xA0 SHL SUB DUP4 AND ISZERO DUP1 ISZERO SWAP1 PUSH2 0x261A JUMPI POP DUP3 PUSH1 0x1 PUSH1 0x1 PUSH1 0xA0 SHL SUB AND DUP2 PUSH1 0x1 PUSH1 0x1 PUSH1 0xA0 SHL SUB AND EQ ISZERO JUMPDEST DUP1 ISZERO PUSH2 0x262D JUMPI POP PUSH2 0x262B DUP2 DUP5 PUSH2 0x20DB JUMP JUMPDEST ISZERO JUMPDEST ISZERO PUSH2 0x2656 JUMPI PUSH1 0x40 MLOAD PUSH4 0xA9FBF51F PUSH1 0xE0 SHL DUP2 MSTORE PUSH1 0x1 PUSH1 0x1 PUSH1 0xA0 SHL SUB DUP5 AND PUSH1 0x4 DUP3 ADD MSTORE PUSH1 0x24 ADD PUSH2 0xA7F JUMP JUMPDEST DUP2 ISZERO PUSH2 0x269E JUMPI DUP4 DUP6 PUSH1 0x1 PUSH1 0x1 PUSH1 0xA0 SHL SUB AND DUP3 PUSH1 0x1 PUSH1 0x1 PUSH1 0xA0 SHL SUB AND PUSH32 0x8C5BE1E5EBEC7D5BD14F71427D1E84F3DD0314C0F7B2291E5B200AC8C7C3B925 PUSH1 0x40 MLOAD PUSH1 0x40 MLOAD DUP1 SWAP2 SUB SWAP1 LOG4 JUMPDEST POP JUMPDEST POP POP PUSH1 0x0 SWAP1 DUP2 MSTORE PUSH1 0x4 PUSH1 0x20 MSTORE PUSH1 0x40 SWAP1 KECCAK256 DUP1 SLOAD PUSH1 0x1 PUSH1 0x1 PUSH1 0xA0 SHL SUB NOT AND PUSH1 0x1 PUSH1 0x1 PUSH1 0xA0 SHL SUB SWAP3 SWAP1 SWAP3 AND SWAP2 SWAP1 SWAP2 OR SWAP1 SSTORE JUMP JUMPDEST PUSH1 0x0 DUP1 PUSH2 0x26DE DUP6 DUP6 DUP6 PUSH2 0x28B5 JUMP JUMPDEST SWAP1 POP PUSH1 0x1 PUSH1 0x1 PUSH1 0xA0 SHL SUB DUP2 AND PUSH2 0x273B JUMPI PUSH2 0x2736 DUP5 PUSH1 0x8 DUP1 SLOAD PUSH1 0x0 DUP4 DUP2 MSTORE PUSH1 0x9 PUSH1 0x20 MSTORE PUSH1 0x40 DUP2 KECCAK256 DUP3 SWAP1 SSTORE PUSH1 0x1 DUP3 ADD DUP4 SSTORE SWAP2 SWAP1 SWAP2 MSTORE PUSH32 0xF3F7A9FE364FAAB93B216DA50A3214154F22A0A2B415B23A84C8169E8B636EE3 ADD SSTORE JUMP JUMPDEST PUSH2 0x275E JUMP JUMPDEST DUP5 PUSH1 0x1 PUSH1 0x1 PUSH1 0xA0 SHL SUB AND DUP2 PUSH1 0x1 PUSH1 0x1 PUSH1 0xA0 SHL SUB AND EQ PUSH2 0x275E JUMPI PUSH2 0x275E DUP2 DUP6 PUSH2 0x29AE JUMP JUMPDEST PUSH1 0x1 PUSH1 0x1 PUSH1 0xA0 SHL SUB DUP6 AND PUSH2 0x277A JUMPI PUSH2 0x2775 DUP5 PUSH2 0x2A3F JUMP JUMPDEST PUSH2 0x2253 JUMP JUMPDEST DUP5 PUSH1 0x1 PUSH1 0x1 PUSH1 0xA0 SHL SUB AND DUP2 PUSH1 0x1 PUSH1 0x1 PUSH1 0xA0 SHL SUB AND EQ PUSH2 0x2253 JUMPI PUSH2 0x2253 DUP6 DUP6 PUSH2 0x2AEE JUMP JUMPDEST PUSH1 0x60 DUP2 PUSH1 0x0 SUB PUSH2 0x27C4 JUMPI POP POP PUSH1 0x40 DUP1 MLOAD DUP1 DUP3 ADD SWAP1 SWAP2 MSTORE PUSH1 0x1 DUP2 MSTORE PUSH1 0x3 PUSH1 0xFC SHL PUSH1 0x20 DUP3 ADD MSTORE SWAP1 JUMP JUMPDEST DUP2 PUSH1 0x0 JUMPDEST DUP2 ISZERO PUSH2 0x27EE JUMPI DUP1 PUSH2 0x27D8 DUP2 PUSH2 0x32D9 JUMP JUMPDEST SWAP2 POP PUSH2 0x27E7 SWAP1 POP PUSH1 0xA DUP4 PUSH2 0x3551 JUMP JUMPDEST SWAP2 POP PUSH2 0x27C8 JUMP JUMPDEST PUSH1 0x0 DUP2 PUSH8 0xFFFFFFFFFFFFFFFF DUP2 GT ISZERO PUSH2 0x2809 JUMPI PUSH2 0x2809 PUSH2 0x2E84 JUMP JUMPDEST PUSH1 0x40 MLOAD SWAP1 DUP1 DUP3 MSTORE DUP1 PUSH1 0x1F ADD PUSH1 0x1F NOT AND PUSH1 0x20 ADD DUP3 ADD PUSH1 0x40 MSTORE DUP1 ISZERO PUSH2 0x2833 JUMPI PUSH1 0x20 DUP3 ADD DUP2 DUP1 CALLDATASIZE DUP4 CALLDATACOPY ADD SWAP1 POP JUMPDEST POP SWAP1 POP JUMPDEST DUP5 ISZERO PUSH2 0x2253 JUMPI PUSH2 0x2848 PUSH1 0x1 DUP4 PUSH2 0x344E JUMP JUMPDEST SWAP2 POP PUSH2 0x2855 PUSH1 0xA DUP7 PUSH2 0x3565 JUMP JUMPDEST PUSH2 0x2860 SWAP1 PUSH1 0x30 PUSH2 0x343B JUMP JUMPDEST PUSH1 0xF8 SHL DUP2 DUP4 DUP2 MLOAD DUP2 LT PUSH2 0x2875 JUMPI PUSH2 0x2875 PUSH2 0x3425 JUMP JUMPDEST PUSH1 0x20 ADD ADD SWAP1 PUSH1 0x1 PUSH1 0x1 PUSH1 0xF8 SHL SUB NOT AND SWAP1 DUP2 PUSH1 0x0 BYTE SWAP1 MSTORE8 POP PUSH2 0x2897 PUSH1 0xA DUP7 PUSH2 0x3551 JUMP JUMPDEST SWAP5 POP PUSH2 0x2837 JUMP JUMPDEST PUSH2 0x28A8 DUP4 DUP4 PUSH2 0x2B3E JUMP JUMPDEST PUSH2 0x112E PUSH1 0x0 DUP5 DUP5 DUP5 PUSH2 0x24A1 JUMP JUMPDEST PUSH1 0x0 DUP3 DUP2 MSTORE PUSH1 0x2 PUSH1 0x20 MSTORE PUSH1 0x40 DUP2 KECCAK256 SLOAD PUSH1 0x1 PUSH1 0x1 PUSH1 0xA0 SHL SUB SWAP1 DUP2 AND SWAP1 DUP4 AND ISZERO PUSH2 0x28E2 JUMPI PUSH2 0x28E2 DUP2 DUP5 DUP7 PUSH2 0x2BA3 JUMP JUMPDEST PUSH1 0x1 PUSH1 0x1 PUSH1 0xA0 SHL SUB DUP2 AND ISZERO PUSH2 0x2920 JUMPI PUSH2 0x28FF PUSH1 0x0 DUP6 PUSH1 0x0 DUP1 PUSH2 0x25CA JUMP JUMPDEST PUSH1 0x1 PUSH1 0x1 PUSH1 0xA0 SHL SUB DUP2 AND PUSH1 0x0 SWAP1 DUP2 MSTORE PUSH1 0x3 PUSH1 0x20 MSTORE PUSH1 0x40 SWAP1 KECCAK256 DUP1 SLOAD PUSH1 0x0 NOT ADD SWAP1 SSTORE JUMPDEST PUSH1 0x1 PUSH1 0x1 PUSH1 0xA0 SHL SUB DUP6 AND ISZERO PUSH2 0x294F JUMPI PUSH1 0x1 PUSH1 0x1 PUSH1 0xA0 SHL SUB DUP6 AND PUSH1 0x0 SWAP1 DUP2 MSTORE PUSH1 0x3 PUSH1 0x20 MSTORE PUSH1 0x40 SWAP1 KECCAK256 DUP1 SLOAD PUSH1 0x1 ADD SWAP1 SSTORE JUMPDEST PUSH1 0x0 DUP5 DUP2 MSTORE PUSH1 0x2 PUSH1 0x20 MSTORE PUSH1 0x40 DUP1 DUP3 KECCAK256 DUP1 SLOAD PUSH1 0x1 PUSH1 0x1 PUSH1 0xA0 SHL SUB NOT AND PUSH1 0x1 PUSH1 0x1 PUSH1 0xA0 SHL SUB DUP10 DUP2 AND SWAP2 DUP3 OR SWAP1 SWAP3 SSTORE SWAP2 MLOAD DUP8 SWAP4 SWAP2 DUP6 AND SWAP2 PUSH32 0xDDF252AD1BE2C89B69C2B068FC378DAA952BA7F163C4A11628F55A4DF523B3EF SWAP2 LOG4 SWAP5 SWAP4 POP POP POP POP JUMP JUMPDEST PUSH1 0x0 PUSH2 0x29B9 DUP4 PUSH2 0x1B38 JUMP JUMPDEST PUSH1 0x0 DUP4 DUP2 MSTORE PUSH1 0x7 PUSH1 0x20 MSTORE PUSH1 0x40 SWAP1 KECCAK256 SLOAD SWAP1 SWAP2 POP DUP1 DUP3 EQ PUSH2 0x2A0C JUMPI PUSH1 0x1 PUSH1 0x1 PUSH1 0xA0 SHL SUB DUP5 AND PUSH1 0x0 SWAP1 DUP2 MSTORE PUSH1 0x6 PUSH1 0x20 SWAP1 DUP2 MSTORE PUSH1 0x40 DUP1 DUP4 KECCAK256 DUP6 DUP5 MSTORE DUP3 MSTORE DUP1 DUP4 KECCAK256 SLOAD DUP5 DUP5 MSTORE DUP2 DUP5 KECCAK256 DUP2 SWAP1 SSTORE DUP4 MSTORE PUSH1 0x7 SWAP1 SWAP2 MSTORE SWAP1 KECCAK256 DUP2 SWAP1 SSTORE JUMPDEST POP PUSH1 0x0 SWAP2 DUP3 MSTORE PUSH1 0x7 PUSH1 0x20 SWAP1 DUP2 MSTORE PUSH1 0x40 DUP1 DUP5 KECCAK256 DUP5 SWAP1 SSTORE PUSH1 0x1 PUSH1 0x1 PUSH1 0xA0 SHL SUB SWAP1 SWAP5 AND DUP4 MSTORE PUSH1 0x6 DUP2 MSTORE DUP4 DUP4 KECCAK256 SWAP2 DUP4 MSTORE MSTORE SWAP1 DUP2 KECCAK256 SSTORE JUMP JUMPDEST PUSH1 0x8 SLOAD PUSH1 0x0 SWAP1 PUSH2 0x2A51 SWAP1 PUSH1 0x1 SWAP1 PUSH2 0x344E JUMP JUMPDEST PUSH1 0x0 DUP4 DUP2 MSTORE PUSH1 0x9 PUSH1 0x20 MSTORE PUSH1 0x40 DUP2 KECCAK256 SLOAD PUSH1 0x8 DUP1 SLOAD SWAP4 SWAP5 POP SWAP1 SWAP3 DUP5 SWAP1 DUP2 LT PUSH2 0x2A79 JUMPI PUSH2 0x2A79 PUSH2 0x3425 JUMP JUMPDEST SWAP1 PUSH1 0x0 MSTORE PUSH1 0x20 PUSH1 0x0 KECCAK256 ADD SLOAD SWAP1 POP DUP1 PUSH1 0x8 DUP4 DUP2 SLOAD DUP2 LT PUSH2 0x2A9A JUMPI PUSH2 0x2A9A PUSH2 0x3425 JUMP JUMPDEST PUSH1 0x0 SWAP2 DUP3 MSTORE PUSH1 0x20 DUP1 DUP4 KECCAK256 SWAP1 SWAP2 ADD SWAP3 SWAP1 SWAP3 SSTORE DUP3 DUP2 MSTORE PUSH1 0x9 SWAP1 SWAP2 MSTORE PUSH1 0x40 DUP1 DUP3 KECCAK256 DUP5 SWAP1 SSTORE DUP6 DUP3 MSTORE DUP2 KECCAK256 SSTORE PUSH1 0x8 DUP1 SLOAD DUP1 PUSH2 0x2AD2 JUMPI PUSH2 0x2AD2 PUSH2 0x3579 JUMP JUMPDEST PUSH1 0x1 SWAP1 SUB DUP2 DUP2 SWAP1 PUSH1 0x0 MSTORE PUSH1 0x20 PUSH1 0x0 KECCAK256 ADD PUSH1 0x0 SWAP1 SSTORE SWAP1 SSTORE POP POP POP POP JUMP JUMPDEST PUSH1 0x0 PUSH1 0x1 PUSH2 0x2AFB DUP5 PUSH2 0x1B38 JUMP JUMPDEST PUSH2 0x2B05 SWAP2 SWAP1 PUSH2 0x344E JUMP JUMPDEST PUSH1 0x1 PUSH1 0x1 PUSH1 0xA0 SHL SUB SWAP1 SWAP4 AND PUSH1 0x0 SWAP1 DUP2 MSTORE PUSH1 0x6 PUSH1 0x20 SWAP1 DUP2 MSTORE PUSH1 0x40 DUP1 DUP4 KECCAK256 DUP7 DUP5 MSTORE DUP3 MSTORE DUP1 DUP4 KECCAK256 DUP6 SWAP1 SSTORE SWAP4 DUP3 MSTORE PUSH1 0x7 SWAP1 MSTORE SWAP2 SWAP1 SWAP2 KECCAK256 SWAP2 SWAP1 SWAP2 SSTORE POP JUMP JUMPDEST PUSH1 0x1 PUSH1 0x1 PUSH1 0xA0 SHL SUB DUP3 AND PUSH2 0x2B68 JUMPI PUSH1 0x40 MLOAD PUSH4 0x32505749 PUSH1 0xE1 SHL DUP2 MSTORE PUSH1 0x0 PUSH1 0x4 DUP3 ADD MSTORE PUSH1 0x24 ADD PUSH2 0xA7F JUMP JUMPDEST PUSH1 0x0 PUSH2 0x2B76 DUP4 DUP4 PUSH1 0x0 PUSH2 0x21DA JUMP JUMPDEST SWAP1 POP PUSH1 0x1 PUSH1 0x1 PUSH1 0xA0 SHL SUB DUP2 AND ISZERO PUSH2 0x112E JUMPI PUSH1 0x40 MLOAD PUSH4 0x39E35637 PUSH1 0xE1 SHL DUP2 MSTORE PUSH1 0x0 PUSH1 0x4 DUP3 ADD MSTORE PUSH1 0x24 ADD PUSH2 0xA7F JUMP JUMPDEST PUSH2 0x2BAE DUP4 DUP4 DUP4 PUSH2 0x2C07 JUMP JUMPDEST PUSH2 0x112E JUMPI PUSH1 0x1 PUSH1 0x1 PUSH1 0xA0 SHL SUB DUP4 AND PUSH2 0x2BDC JUMPI PUSH1 0x40 MLOAD PUSH4 0x7E273289 PUSH1 0xE0 SHL DUP2 MSTORE PUSH1 0x4 DUP2 ADD DUP3 SWAP1 MSTORE PUSH1 0x24 ADD PUSH2 0xA7F JUMP JUMPDEST PUSH1 0x40 MLOAD PUSH4 0x177E802F PUSH1 0xE0 SHL DUP2 MSTORE PUSH1 0x1 PUSH1 0x1 PUSH1 0xA0 SHL SUB DUP4 AND PUSH1 0x4 DUP3 ADD MSTORE PUSH1 0x24 DUP2 ADD DUP3 SWAP1 MSTORE PUSH1 0x44 ADD PUSH2 0xA7F JUMP JUMPDEST PUSH1 0x0 PUSH1 0x1 PUSH1 0x1 PUSH1 0xA0 SHL SUB DUP4 AND ISZERO DUP1 ISZERO SWAP1 PUSH2 0x2253 JUMPI POP DUP3 PUSH1 0x1 PUSH1 0x1 PUSH1 0xA0 SHL SUB AND DUP5 PUSH1 0x1 PUSH1 0x1 PUSH1 0xA0 SHL SUB AND EQ DUP1 PUSH2 0x2C41 JUMPI POP PUSH2 0x2C41 DUP5 DUP5 PUSH2 0x20DB JUMP JUMPDEST DUP1 PUSH2 0x2253 JUMPI POP POP PUSH1 0x0 SWAP1 DUP2 MSTORE PUSH1 0x4 PUSH1 0x20 MSTORE PUSH1 0x40 SWAP1 KECCAK256 SLOAD PUSH1 0x1 PUSH1 0x1 PUSH1 0xA0 SHL SUB SWAP1 DUP2 AND SWAP2 AND EQ SWAP2 SWAP1 POP JUMP JUMPDEST PUSH1 0x40 MLOAD DUP1 PUSH2 0x120 ADD PUSH1 0x40 MSTORE DUP1 PUSH1 0x0 DUP2 MSTORE PUSH1 0x20 ADD PUSH1 0x60 DUP2 MSTORE PUSH1 0x20 ADD PUSH1 0x60 DUP2 MSTORE PUSH1 0x20 ADD PUSH1 0x0 DUP2 MSTORE PUSH1 0x20 ADD PUSH1 0x0 DUP2 MSTORE PUSH1 0x20 ADD PUSH1 0x0 DUP2 MSTORE PUSH1 0x20 ADD PUSH1 0x0 DUP2 MSTORE PUSH1 0x20 ADD PUSH1 0x0 PUSH1 0x1 PUSH1 0x1 PUSH1 0xA0 SHL SUB AND DUP2 MSTORE PUSH1 0x20 ADD PUSH1 0x0 ISZERO ISZERO DUP2 MSTORE POP SWAP1 JUMP JUMPDEST PUSH1 0x1 PUSH1 0x1 PUSH1 0xE0 SHL SUB NOT DUP2 AND DUP2 EQ PUSH2 0x144F JUMPI PUSH1 0x0 DUP1 REVERT JUMPDEST PUSH1 0x0 PUSH1 0x20 DUP3 DUP5 SUB SLT ISZERO PUSH2 0x2CE9 JUMPI PUSH1 0x0 DUP1 REVERT JUMPDEST DUP2 CALLDATALOAD PUSH2 0x2CF4 DUP2 PUSH2 0x2CC1 JUMP JUMPDEST SWAP4 SWAP3 POP POP POP JUMP JUMPDEST PUSH1 0x0 JUMPDEST DUP4 DUP2 LT ISZERO PUSH2 0x2D16 JUMPI DUP2 DUP2 ADD MLOAD DUP4 DUP3 ADD MSTORE PUSH1 0x20 ADD PUSH2 0x2CFE JUMP JUMPDEST POP POP PUSH1 0x0 SWAP2 ADD MSTORE JUMP JUMPDEST PUSH1 0x0 DUP2 MLOAD DUP1 DUP5 MSTORE PUSH2 0x2D37 DUP2 PUSH1 0x20 DUP7 ADD PUSH1 0x20 DUP7 ADD PUSH2 0x2CFB JUMP JUMPDEST PUSH1 0x1F ADD PUSH1 0x1F NOT AND SWAP3 SWAP1 SWAP3 ADD PUSH1 0x20 ADD SWAP3 SWAP2 POP POP JUMP JUMPDEST PUSH1 0x20 DUP2 MSTORE PUSH1 0x0 PUSH2 0x2CF4 PUSH1 0x20 DUP4 ADD DUP5 PUSH2 0x2D1F JUMP JUMPDEST PUSH1 0x0 PUSH1 0x20 DUP3 DUP5 SUB SLT ISZERO PUSH2 0x2D70 JUMPI PUSH1 0x0 DUP1 REVERT JUMPDEST POP CALLDATALOAD SWAP2 SWAP1 POP JUMP JUMPDEST DUP1 CALLDATALOAD PUSH1 0x1 PUSH1 0x1 PUSH1 0xA0 SHL SUB DUP2 AND DUP2 EQ PUSH2 0x198A JUMPI PUSH1 0x0 DUP1 REVERT JUMPDEST PUSH1 0x0 DUP1 PUSH1 0x40 DUP4 DUP6 SUB SLT ISZERO PUSH2 0x2DA1 JUMPI PUSH1 0x0 DUP1 REVERT JUMPDEST PUSH2 0x2DAA DUP4 PUSH2 0x2D77 JUMP JUMPDEST SWAP5 PUSH1 0x20 SWAP4 SWAP1 SWAP4 ADD CALLDATALOAD SWAP4 POP POP POP JUMP JUMPDEST PUSH1 0x0 PUSH2 0x120 DUP12 DUP4 MSTORE DUP1 PUSH1 0x20 DUP5 ADD MSTORE PUSH2 0x2DD2 DUP2 DUP5 ADD DUP13 PUSH2 0x2D1F JUMP JUMPDEST SWAP1 POP DUP3 DUP2 SUB PUSH1 0x40 DUP5 ADD MSTORE PUSH2 0x2DE6 DUP2 DUP12 PUSH2 0x2D1F JUMP JUMPDEST PUSH1 0x60 DUP5 ADD SWAP10 SWAP1 SWAP10 MSTORE POP POP PUSH1 0x80 DUP2 ADD SWAP6 SWAP1 SWAP6 MSTORE PUSH1 0xA0 DUP6 ADD SWAP4 SWAP1 SWAP4 MSTORE PUSH1 0xC0 DUP5 ADD SWAP2 SWAP1 SWAP2 MSTORE PUSH1 0x1 PUSH1 0x1 PUSH1 0xA0 SHL SUB AND PUSH1 0xE0 DUP4 ADD MSTORE ISZERO ISZERO PUSH2 0x100 SWAP1 SWAP2 ADD MSTORE SWAP4 SWAP3 POP POP POP JUMP JUMPDEST PUSH1 0x0 DUP1 PUSH1 0x0 PUSH1 0x60 DUP5 DUP7 SUB SLT ISZERO PUSH2 0x2E3B JUMPI PUSH1 0x0 DUP1 REVERT JUMPDEST PUSH2 0x2E44 DUP5 PUSH2 0x2D77 JUMP JUMPDEST SWAP3 POP PUSH2 0x2E52 PUSH1 0x20 DUP6 ADD PUSH2 0x2D77 JUMP JUMPDEST SWAP2 POP PUSH1 0x40 DUP5 ADD CALLDATALOAD SWAP1 POP SWAP3 POP SWAP3 POP SWAP3 JUMP JUMPDEST PUSH1 0x0 DUP1 PUSH1 0x40 DUP4 DUP6 SUB SLT ISZERO PUSH2 0x2E75 JUMPI PUSH1 0x0 DUP1 REVERT JUMPDEST POP POP DUP1 CALLDATALOAD SWAP3 PUSH1 0x20 SWAP1 SWAP2 ADD CALLDATALOAD SWAP2 POP JUMP JUMPDEST PUSH4 0x4E487B71 PUSH1 0xE0 SHL PUSH1 0x0 MSTORE PUSH1 0x41 PUSH1 0x4 MSTORE PUSH1 0x24 PUSH1 0x0 REVERT JUMPDEST PUSH1 0x0 PUSH8 0xFFFFFFFFFFFFFFFF DUP1 DUP5 GT ISZERO PUSH2 0x2EB5 JUMPI PUSH2 0x2EB5 PUSH2 0x2E84 JUMP JUMPDEST PUSH1 0x40 MLOAD PUSH1 0x1F DUP6 ADD PUSH1 0x1F NOT SWAP1 DUP2 AND PUSH1 0x3F ADD AND DUP2 ADD SWAP1 DUP3 DUP3 GT DUP2 DUP4 LT OR ISZERO PUSH2 0x2EDD JUMPI PUSH2 0x2EDD PUSH2 0x2E84 JUMP JUMPDEST DUP2 PUSH1 0x40 MSTORE DUP1 SWAP4 POP DUP6 DUP2 MSTORE DUP7 DUP7 DUP7 ADD GT ISZERO PUSH2 0x2EF6 JUMPI PUSH1 0x0 DUP1 REVERT JUMPDEST DUP6 DUP6 PUSH1 0x20 DUP4 ADD CALLDATACOPY PUSH1 0x0 PUSH1 0x20 DUP8 DUP4 ADD ADD MSTORE POP POP POP SWAP4 SWAP3 POP POP POP JUMP JUMPDEST PUSH1 0x0 DUP3 PUSH1 0x1F DUP4 ADD SLT PUSH2 0x2F21 JUMPI PUSH1 0x0 DUP1 REVERT JUMPDEST PUSH2 0x2CF4 DUP4 DUP4 CALLDATALOAD PUSH1 0x20 DUP6 ADD PUSH2 0x2E9A JUMP JUMPDEST PUSH1 0x0 DUP1 PUSH1 0x0 DUP1 PUSH1 0x0 PUSH1 0xA0 DUP7 DUP9 SUB SLT ISZERO PUSH2 0x2F48 JUMPI PUSH1 0x0 DUP1 REVERT JUMPDEST DUP6 CALLDATALOAD PUSH8 0xFFFFFFFFFFFFFFFF DUP1 DUP3 GT ISZERO PUSH2 0x2F60 JUMPI PUSH1 0x0 DUP1 REVERT JUMPDEST PUSH2 0x2F6C DUP10 DUP4 DUP11 ADD PUSH2 0x2F10 JUMP JUMPDEST SWAP7 POP PUSH1 0x20 DUP9 ADD CALLDATALOAD SWAP2 POP DUP1 DUP3 GT ISZERO PUSH2 0x2F82 JUMPI PUSH1 0x0 DUP1 REVERT JUMPDEST POP PUSH2 0x2F8F DUP9 DUP3 DUP10 ADD PUSH2 0x2F10 JUMP JUMPDEST SWAP6 SWAP9 SWAP6 SWAP8 POP POP POP POP PUSH1 0x40 DUP5 ADD CALLDATALOAD SWAP4 PUSH1 0x60 DUP2 ADD CALLDATALOAD SWAP4 PUSH1 0x80 SWAP1 SWAP2 ADD CALLDATALOAD SWAP3 POP SWAP1 POP JUMP JUMPDEST DUP5 DUP2 MSTORE DUP4 PUSH1 0x20 DUP3 ADD MSTORE DUP3 PUSH1 0x40 DUP3 ADD MSTORE PUSH1 0x80 PUSH1 0x60 DUP3 ADD MSTORE PUSH1 0x0 PUSH2 0x2FD4 PUSH1 0x80 DUP4 ADD DUP5 PUSH2 0x2D1F JUMP JUMPDEST SWAP7 SWAP6 POP POP POP POP POP POP JUMP JUMPDEST PUSH1 0x0 DUP1 PUSH1 0x40 DUP4 DUP6 SUB SLT ISZERO PUSH2 0x2FF1 JUMPI PUSH1 0x0 DUP1 REVERT JUMPDEST DUP3 CALLDATALOAD SWAP2 POP PUSH2 0x3001 PUSH1 0x20 DUP5 ADD PUSH2 0x2D77 JUMP JUMPDEST SWAP1 POP SWAP3 POP SWAP3 SWAP1 POP JUMP JUMPDEST PUSH1 0x20 DUP1 DUP3 MSTORE DUP3 MLOAD DUP3 DUP3 ADD DUP2 SWAP1 MSTORE PUSH1 0x0 SWAP2 SWAP1 DUP5 DUP3 ADD SWAP1 PUSH1 0x40 DUP6 ADD SWAP1 DUP5 JUMPDEST DUP2 DUP2 LT ISZERO PUSH2 0x3042 JUMPI DUP4 MLOAD DUP4 MSTORE SWAP3 DUP5 ADD SWAP3 SWAP2 DUP5 ADD SWAP2 PUSH1 0x1 ADD PUSH2 0x3026 JUMP JUMPDEST POP SWAP1 SWAP7 SWAP6 POP POP POP POP POP POP JUMP JUMPDEST PUSH1 0x0 PUSH2 0x120 DUP3 MLOAD DUP5 MSTORE PUSH1 0x20 DUP4 ADD MLOAD DUP2 PUSH1 0x20 DUP7 ADD MSTORE PUSH2 0x306E DUP3 DUP7 ADD DUP3 PUSH2 0x2D1F JUMP JUMPDEST SWAP2 POP POP PUSH1 0x40 DUP4 ADD MLOAD DUP5 DUP3 SUB PUSH1 0x40 DUP7 ADD MSTORE PUSH2 0x3088 DUP3 DUP3 PUSH2 0x2D1F JUMP JUMPDEST SWAP2 POP POP PUSH1 0x60 DUP4 ADD MLOAD PUSH1 0x60 DUP6 ADD MSTORE PUSH1 0x80 DUP4 ADD MLOAD PUSH1 0x80 DUP6 ADD MSTORE PUSH1 0xA0 DUP4 ADD MLOAD PUSH1 0xA0 DUP6 ADD MSTORE PUSH1 0xC0 DUP4 ADD MLOAD PUSH1 0xC0 DUP6 ADD MSTORE PUSH1 0xE0 DUP4 ADD MLOAD PUSH2 0x30CD PUSH1 0xE0 DUP7 ADD DUP3 PUSH1 0x1 PUSH1 0x1 PUSH1 0xA0 SHL SUB AND SWAP1 MSTORE JUMP JUMPDEST POP PUSH2 0x100 SWAP3 DUP4 ADD MLOAD ISZERO ISZERO SWAP4 SWAP1 SWAP3 ADD SWAP3 SWAP1 SWAP3 MSTORE SWAP2 SWAP1 POP JUMP JUMPDEST PUSH1 0x20 DUP2 MSTORE PUSH1 0x0 PUSH2 0x2CF4 PUSH1 0x20 DUP4 ADD DUP5 PUSH2 0x304E JUMP JUMPDEST PUSH1 0x0 PUSH1 0x20 DUP3 DUP5 SUB SLT ISZERO PUSH2 0x3109 JUMPI PUSH1 0x0 DUP1 REVERT JUMPDEST PUSH2 0x2CF4 DUP3 PUSH2 0x2D77 JUMP JUMPDEST PUSH1 0x20 DUP2 MSTORE DUP2 MLOAD PUSH1 0x20 DUP3 ADD MSTORE PUSH1 0x20 DUP3 ADD MLOAD PUSH1 0x40 DUP3 ADD MSTORE PUSH1 0x40 DUP3 ADD MLOAD PUSH1 0x60 DUP3 ADD MSTORE PUSH1 0x0 PUSH1 0x60 DUP4 ADD MLOAD PUSH1 0x80 DUP1 DUP5 ADD MSTORE PUSH2 0x2253 PUSH1 0xA0 DUP5 ADD DUP3 PUSH2 0x2D1F JUMP JUMPDEST PUSH1 0x0 DUP1 PUSH1 0x40 DUP4 DUP6 SUB SLT ISZERO PUSH2 0x315E JUMPI PUSH1 0x0 DUP1 REVERT JUMPDEST PUSH2 0x3167 DUP4 PUSH2 0x2D77 JUMP JUMPDEST SWAP2 POP PUSH1 0x20 DUP4 ADD CALLDATALOAD DUP1 ISZERO ISZERO DUP2 EQ PUSH2 0x317C JUMPI PUSH1 0x0 DUP1 REVERT JUMPDEST DUP1 SWAP2 POP POP SWAP3 POP SWAP3 SWAP1 POP JUMP JUMPDEST PUSH1 0x0 DUP1 PUSH1 0x0 DUP1 PUSH1 0x80 DUP6 DUP8 SUB SLT ISZERO PUSH2 0x319D JUMPI PUSH1 0x0 DUP1 REVERT JUMPDEST PUSH2 0x31A6 DUP6 PUSH2 0x2D77 JUMP JUMPDEST SWAP4 POP PUSH2 0x31B4 PUSH1 0x20 DUP7 ADD PUSH2 0x2D77 JUMP JUMPDEST SWAP3 POP PUSH1 0x40 DUP6 ADD CALLDATALOAD SWAP2 POP PUSH1 0x60 DUP6 ADD CALLDATALOAD PUSH8 0xFFFFFFFFFFFFFFFF DUP2 GT ISZERO PUSH2 0x31D7 JUMPI PUSH1 0x0 DUP1 REVERT JUMPDEST DUP6 ADD PUSH1 0x1F DUP2 ADD DUP8 SGT PUSH2 0x31E8 JUMPI PUSH1 0x0 DUP1 REVERT JUMPDEST PUSH2 0x31F7 DUP8 DUP3 CALLDATALOAD PUSH1 0x20 DUP5 ADD PUSH2 0x2E9A JUMP JUMPDEST SWAP2 POP POP SWAP3 SWAP6 SWAP2 SWAP5 POP SWAP3 POP JUMP JUMPDEST PUSH1 0x0 PUSH1 0x20 DUP1 DUP4 ADD DUP2 DUP5 MSTORE DUP1 DUP6 MLOAD DUP1 DUP4 MSTORE PUSH1 0x40 DUP7 ADD SWAP2 POP PUSH1 0x40 DUP2 PUSH1 0x5 SHL DUP8 ADD ADD SWAP3 POP DUP4 DUP8 ADD PUSH1 0x0 JUMPDEST DUP3 DUP2 LT ISZERO PUSH2 0x3258 JUMPI PUSH1 0x3F NOT DUP9 DUP7 SUB ADD DUP5 MSTORE PUSH2 0x3246 DUP6 DUP4 MLOAD PUSH2 0x304E JUMP JUMPDEST SWAP5 POP SWAP3 DUP6 ADD SWAP3 SWAP1 DUP6 ADD SWAP1 PUSH1 0x1 ADD PUSH2 0x322A JUMP JUMPDEST POP SWAP3 SWAP8 SWAP7 POP POP POP POP POP POP POP JUMP JUMPDEST PUSH1 0x0 DUP1 PUSH1 0x40 DUP4 DUP6 SUB SLT ISZERO PUSH2 0x3278 JUMPI PUSH1 0x0 DUP1 REVERT JUMPDEST PUSH2 0x3281 DUP4 PUSH2 0x2D77 JUMP JUMPDEST SWAP2 POP PUSH2 0x3001 PUSH1 0x20 DUP5 ADD PUSH2 0x2D77 JUMP JUMPDEST PUSH1 0x1 DUP2 DUP2 SHR SWAP1 DUP3 AND DUP1 PUSH2 0x32A3 JUMPI PUSH1 0x7F DUP3 AND SWAP2 POP JUMPDEST PUSH1 0x20 DUP3 LT DUP2 SUB PUSH2 0x2028 JUMPI PUSH4 0x4E487B71 PUSH1 0xE0 SHL PUSH1 0x0 MSTORE PUSH1 0x22 PUSH1 0x4 MSTORE PUSH1 0x24 PUSH1 0x0 REVERT JUMPDEST PUSH4 0x4E487B71 PUSH1 0xE0 SHL PUSH1 0x0 MSTORE PUSH1 0x11 PUSH1 0x4 MSTORE PUSH1 0x24 PUSH1 0x0 REVERT JUMPDEST PUSH1 0x0 PUSH1 0x1 DUP3 ADD PUSH2 0x32EB JUMPI PUSH2 0x32EB PUSH2 0x32C3 JUMP JUMPDEST POP PUSH1 0x1 ADD SWAP1 JUMP JUMPDEST PUSH1 0x1F DUP3 GT ISZERO PUSH2 0x112E JUMPI PUSH1 0x0 DUP2 DUP2 MSTORE PUSH1 0x20 DUP2 KECCAK256 PUSH1 0x1F DUP6 ADD PUSH1 0x5 SHR DUP2 ADD PUSH1 0x20 DUP7 LT ISZERO PUSH2 0x3319 JUMPI POP DUP1 JUMPDEST PUSH1 0x1F DUP6 ADD PUSH1 0x5 SHR DUP3 ADD SWAP2 POP JUMPDEST DUP2 DUP2 LT ISZERO PUSH2 0x3338 JUMPI DUP3 DUP2 SSTORE PUSH1 0x1 ADD PUSH2 0x3325 JUMP JUMPDEST POP POP POP POP POP POP JUMP JUMPDEST DUP2 MLOAD PUSH8 0xFFFFFFFFFFFFFFFF DUP2 GT ISZERO PUSH2 0x335A JUMPI PUSH2 0x335A PUSH2 0x2E84 JUMP JUMPDEST PUSH2 0x336E DUP2 PUSH2 0x3368 DUP5 SLOAD PUSH2 0x328F JUMP JUMPDEST DUP5 PUSH2 0x32F2 JUMP JUMPDEST PUSH1 0x20 DUP1 PUSH1 0x1F DUP4 GT PUSH1 0x1 DUP2 EQ PUSH2 0x33A3 JUMPI PUSH1 0x0 DUP5 ISZERO PUSH2 0x338B JUMPI POP DUP6 DUP4 ADD MLOAD JUMPDEST PUSH1 0x0 NOT PUSH1 0x3 DUP7 SWAP1 SHL SHR NOT AND PUSH1 0x1 DUP6 SWAP1 SHL OR DUP6 SSTORE PUSH2 0x3338 JUMP JUMPDEST PUSH1 0x0 DUP6 DUP2 MSTORE PUSH1 0x20 DUP2 KECCAK256 PUSH1 0x1F NOT DUP7 AND SWAP2 JUMPDEST DUP3 DUP2 LT ISZERO PUSH2 0x33D2 JUMPI DUP9 DUP7 ADD MLOAD DUP3 SSTORE SWAP5 DUP5 ADD SWAP5 PUSH1 0x1 SWAP1 SWAP2 ADD SWAP1 DUP5 ADD PUSH2 0x33B3 JUMP JUMPDEST POP DUP6 DUP3 LT ISZERO PUSH2 0x33F0 JUMPI DUP8 DUP6 ADD MLOAD PUSH1 0x0 NOT PUSH1 0x3 DUP9 SWAP1 SHL PUSH1 0xF8 AND SHR NOT AND DUP2 SSTORE JUMPDEST POP POP POP POP POP PUSH1 0x1 SWAP1 DUP2 SHL ADD SWAP1 SSTORE POP JUMP JUMPDEST PUSH1 0x60 DUP2 MSTORE PUSH1 0x0 PUSH2 0x3413 PUSH1 0x60 DUP4 ADD DUP7 PUSH2 0x2D1F JUMP JUMPDEST PUSH1 0x20 DUP4 ADD SWAP5 SWAP1 SWAP5 MSTORE POP PUSH1 0x40 ADD MSTORE SWAP2 SWAP1 POP JUMP JUMPDEST PUSH4 0x4E487B71 PUSH1 0xE0 SHL PUSH1 0x0 MSTORE PUSH1 0x32 PUSH1 0x4 MSTORE PUSH1 0x24 PUSH1 0x0 REVERT JUMPDEST DUP1 DUP3 ADD DUP1 DUP3 GT ISZERO PUSH2 0x821 JUMPI PUSH2 0x821 PUSH2 0x32C3 JUMP JUMPDEST DUP2 DUP2 SUB DUP2 DUP2 GT ISZERO PUSH2 0x821 JUMPI PUSH2 0x821 PUSH2 0x32C3 JUMP JUMPDEST PUSH32 0x68747470733A2F2F697066732E696F2F697066732F516D5469636B65744D6574 DUP2 MSTORE PUSH5 0x6164617461 PUSH1 0xD8 SHL PUSH1 0x20 DUP3 ADD MSTORE PUSH7 0x2F6576656E742F PUSH1 0xC8 SHL PUSH1 0x25 DUP3 ADD MSTORE PUSH1 0x0 DUP4 MLOAD PUSH2 0x34B7 DUP2 PUSH1 0x2C DUP6 ADD PUSH1 0x20 DUP9 ADD PUSH2 0x2CFB JUMP JUMPDEST PUSH8 0x2F7469636B65742F PUSH1 0xC0 SHL PUSH1 0x2C SWAP2 DUP5 ADD SWAP2 DUP3 ADD MSTORE DUP4 MLOAD PUSH2 0x34DF DUP2 PUSH1 0x34 DUP5 ADD PUSH1 0x20 DUP9 ADD PUSH2 0x2CFB JUMP JUMPDEST ADD PUSH1 0x34 ADD SWAP5 SWAP4 POP POP POP POP JUMP JUMPDEST PUSH1 0x1 PUSH1 0x1 PUSH1 0xA0 SHL SUB DUP6 DUP2 AND DUP3 MSTORE DUP5 AND PUSH1 0x20 DUP3 ADD MSTORE PUSH1 0x40 DUP2 ADD DUP4 SWAP1 MSTORE PUSH1 0x80 PUSH1 0x60 DUP3 ADD DUP2 SWAP1 MSTORE PUSH1 0x0 SWAP1 PUSH2 0x2FD4 SWAP1 DUP4 ADD DUP5 PUSH2 0x2D1F JUMP JUMPDEST PUSH1 0x0 PUSH1 0x20 DUP3 DUP5 SUB SLT ISZERO PUSH2 0x3530 JUMPI PUSH1 0x0 DUP1 REVERT JUMPDEST DUP2 MLOAD PUSH2 0x2CF4 DUP2 PUSH2 0x2CC1 JUMP JUMPDEST PUSH4 0x4E487B71 PUSH1 0xE0 SHL PUSH1 0x0 MSTORE PUSH1 0x12 PUSH1 0x4 MSTORE PUSH1 0x24 PUSH1 0x0 REVERT JUMPDEST PUSH1 0x0 DUP3 PUSH2 0x3560 JUMPI PUSH2 0x3560 PUSH2 0x353B JUMP JUMPDEST POP DIV SWAP1 JUMP JUMPDEST PUSH1 0x0 DUP3 PUSH2 0x3574 JUMPI PUSH2 0x3574 PUSH2 0x353B JUMP JUMPDEST POP MOD SWAP1 JUMP JUMPDEST PUSH4 0x4E487B71 PUSH1 0xE0 SHL PUSH1 0x0 MSTORE PUSH1 0x31 PUSH1 0x4 MSTORE PUSH1 0x24 PUSH1 0x0 REVERT INVALID LOG2 PUSH5 0x6970667358 0x22 SLT KECCAK256 0xB4 0x26 PUSH3 0x8987E0 PUSH7 0x75152BC81D0A1 STATICCALL PUSH0 0xE4 CHAINID 0xCF SUB EXTCODECOPY AND SIGNEXTEND 0xD3 DELEGATECALL 0xD PUSH24 0xE1396C2D6B64736F6C634300081400330000000000000000 "},"gasEstimates":{"creation":{"codeDepositCost":"2753000","executionCost":"infinite","totalCost":"infinite"},"external":{"approve(address,uint256)":"31560","balanceOf(address)":"2679","buyListedTicket(uint256)":"infinite","buyTicket(uint256)":"infinite","cancelListing(uint256)":"30456","createEvent(string,string,uint256,uint256,uint256)":"infinite","deactivateEvent(uint256)":"26814","eventIdCounter()":"2361","events(uint256)":"infinite","getActiveListings()":"infinite","getAllEvents()":"infinite","getApproved(uint256)":"infinite","getEvent(uint256)":"infinite","getMarketplaceListing(uint256)":"9190","getTicket(uint256)":"infinite","getTicketsByEventAndOwner(uint256,address)":"infinite","isApprovedForAll(address,address)":"infinite","listTicket(uint256,uint256)":"infinite","marketplaceListings(uint256)":"9000","name()":"infinite","owner()":"2442","ownerOf(uint256)":"infinite","renounceOwnership()":"infinite","safeTransferFrom(address,address,uint256)":"infinite","safeTransferFrom(address,address,uint256,bytes)":"infinite","setApprovalForAll(address,bool)":"26738","supportsInterface(bytes4)":"infinite","symbol()":"infinite","ticketIdCounter()":"2384","ticketToEvent(uint256)":"2570","tickets(uint256)":"infinite","tokenByIndex(uint256)":"6760","tokenOfOwnerByIndex(address,uint256)":"5042","tokenURI(uint256)":"infinite","totalSupply()":"2349","transferFrom(address,address,uint256)":"infinite","transferOwnership(address)":"28446"},"internal":{"_generateMetadataURI(uint256,uint256)":"infinite","_toString(uint256)":"infinite","_update(address,uint256,address)":"infinite"}},"methodIdentifiers":{"approve(address,uint256)":"095ea7b3","balanceOf(address)":"70a08231","buyListedTicket(uint256)":"50248853","buyTicket(uint256)":"67dd74ca","cancelListing(uint256)":"305a67a8","createEvent(string,string,uint256,uint256,uint256)":"3c2fc56c","deactivateEvent(uint256)":"957a632e","eventIdCounter()":"e01a0ebe","events(uint256)":"0b791430","getActiveListings()":"87c35bc0","getAllEvents()":"c27a500d","getApproved(uint256)":"081812fc","getEvent(uint256)":"6d1884e0","getMarketplaceListing(uint256)":"d5a87ecb","getTicket(uint256)":"7dc379fa","getTicketsByEventAndOwner(uint256,address)":"65ec74b0","isApprovedForAll(address,address)":"e985e9c5","listTicket(uint256,uint256)":"305a905a","marketplaceListings(uint256)":"48c32093","name()":"06fdde03","owner()":"8da5cb5b","ownerOf(uint256)":"6352211e","renounceOwnership()":"715018a6","safeTransferFrom(address,address,uint256)":"42842e0e","safeTransferFrom(address,address,uint256,bytes)":"b88d4fde","setApprovalForAll(address,bool)":"a22cb465","supportsInterface(bytes4)":"01ffc9a7","symbol()":"95d89b41","ticketIdCounter()":"8802255f","ticketToEvent(uint256)":"f6ac04da","tickets(uint256)":"50b44712","tokenByIndex(uint256)":"4f6ccce7","tokenOfOwnerByIndex(address,uint256)":"2f745c59","tokenURI(uint256)":"c87b56dd","totalSupply()":"18160ddd","transferFrom(address,address,uint256)":"23b872dd","transferOwnership(address)":"f2fde38b"}},"storageLayout":{"storage":[{"astId":317,"contract":"contracts/EventTicketNFT.sol:EventTicketNFT","label":"_name","offset":0,"slot":"0","type":"t_string_storage"},{"astId":319,"contract":"contracts/EventTicketNFT.sol:EventTicketNFT","label":"_symbol","offset":0,"slot":"1","type":"t_string_storage"},{"astId":323,"contract":"contracts/EventTicketNFT.sol:EventTicketNFT","label":"_owners","offset":0,"slot":"2","type":"t_mapping(t_uint256,t_address)"},{"astId":327,"contract":"contracts/EventTicketNFT.sol:EventTicketNFT","label":"_balances","offset":0,"slot":"3","type":"t_mapping(t_address,t_uint256)"},{"astId":331,"contract":"contracts/EventTicketNFT.sol:EventTicketNFT","label":"_tokenApprovals","offset":0,"slot":"4","type":"t_mapping(t_uint256,t_address)"},{"astId":337,"contract":"contracts/EventTicketNFT.sol:EventTicketNFT","label":"_operatorApprovals","offset":0,"slot":"5","type":"t_mapping(t_address,t_mapping(t_address,t_bool))"},{"astId":1447,"contract":"contracts/EventTicketNFT.sol:EventTicketNFT","label":"_ownedTokens","offset":0,"slot":"6","type":"t_mapping(t_address,t_mapping(t_uint256,t_uint256))"},{"astId":1451,"contract":"contracts/EventTicketNFT.sol:EventTicketNFT","label":"_ownedTokensIndex","offset":0,"slot":"7","type":"t_mapping(t_uint256,t_uint256)"},{"astId":1454,"contract":"contracts/EventTicketNFT.sol:EventTicketNFT","label":"_allTokens","offset":0,"slot":"8","type":"t_array(t_uint256)dyn_storage"},{"astId":1458,"contract":"contracts/EventTicketNFT.sol:EventTicketNFT","label":"_allTokensIndex","offset":0,"slot":"9","type":"t_mapping(t_uint256,t_uint256)"},{"astId":8,"contract":"contracts/EventTicketNFT.sol:EventTicketNFT","label":"_owner","offset":0,"slot":"10","type":"t_address"},{"astId":1913,"contract":"contracts/EventTicketNFT.sol:EventTicketNFT","label":"_status","offset":0,"slot":"11","type":"t_uint256"},{"astId":3436,"contract":"contracts/EventTicketNFT.sol:EventTicketNFT","label":"eventIdCounter","offset":0,"slot":"12","type":"t_uint256"},{"astId":3438,"contract":"contracts/EventTicketNFT.sol:EventTicketNFT","label":"ticketIdCounter","offset":0,"slot":"13","type":"t_uint256"},{"astId":3480,"contract":"contracts/EventTicketNFT.sol:EventTicketNFT","label":"events","offset":0,"slot":"14","type":"t_mapping(t_uint256,t_struct(Event)3457_storage)"},{"astId":3485,"contract":"contracts/EventTicketNFT.sol:EventTicketNFT","label":"tickets","offset":0,"slot":"15","type":"t_mapping(t_uint256,t_struct(Ticket)3466_storage)"},{"astId":3490,"contract":"contracts/EventTicketNFT.sol:EventTicketNFT","label":"marketplaceListings","offset":0,"slot":"16","type":"t_mapping(t_uint256,t_struct(MarketplaceListing)3475_storage)"},{"astId":3494,"contract":"contracts/EventTicketNFT.sol:EventTicketNFT","label":"ticketToEvent","offset":0,"slot":"17","type":"t_mapping(t_uint256,t_uint256)"}],"types":{"t_address":{"encoding":"inplace","label":"address","numberOfBytes":"20"},"t_array(t_uint256)dyn_storage":{"base":"t_uint256","encoding":"dynamic_array","label":"uint256[]","numberOfBytes":"32"},"t_bool":{"encoding":"inplace","label":"bool","numberOfBytes":"1"},"t_mapping(t_address,t_bool)":{"encoding":"mapping","key":"t_address","label":"mapping(address => bool)","numberOfBytes":"32","value":"t_bool"},"t_mapping(t_address,t_mapping(t_address,t_bool))":{"encoding":"mapping","key":"t_address","label":"mapping(address => mapping(address => bool))","numberOfBytes":"32","value":"t_mapping(t_address,t_bool)"},"t_mapping(t_address,t_mapping(t_uint256,t_uint256))":{"encoding":"mapping","key":"t_address","label":"mapping(address => mapping(uint256 => uint256))","numberOfBytes":"32","value":"t_mapping(t_uint256,t_uint256)"},"t_mapping(t_address,t_uint256)":{"encoding":"mapping","key":"t_address","label":"mapping(address => uint256)","numberOfBytes":"32","value":"t_uint256"},"t_mapping(t_uint256,t_address)":{"encoding":"mapping","key":"t_uint256","label":"mapping(uint256 => address)","numberOfBytes":"32","value":"t_address"},"t_mapping(t_uint256,t_struct(Event)3457_storage)":{"encoding":"mapping","key":"t_uint256","label":"mapping(uint256 => struct EventTicketNFT.Event)","numberOfBytes":"32","value":"t_struct(Event)3457_storage"},"t_mapping(t_uint256,t_struct(MarketplaceListing)3475_storage)":{"encoding":"mapping","key":"t_uint256","label":"mapping(uint256 => struct EventTicketNFT.MarketplaceListing)","numberOfBytes":"32","value":"t_struct(MarketplaceListing)3475_storage"},"t_mapping(t_uint256,t_struct(Ticket)3466_storage)":{"encoding":"mapping","key":"t_uint256","label":"mapping(uint256 => struct EventTicketNFT.Ticket)","numberOfBytes":"32","value":"t_struct(Ticket)3466_storage"},"t_mapping(t_uint256,t_uint256)":{"encoding":"mapping","key":"t_uint256","label":"mapping(uint256 => uint256)","numberOfBytes":"32","value":"t_uint256"},"t_string_storage":{"encoding":"bytes","label":"string","numberOfBytes":"32"},"t_struct(Event)3457_storage":{"encoding":"inplace","label":"struct EventTicketNFT.Event","members":[{"astId":3440,"contract":"contracts/EventTicketNFT.sol:EventTicketNFT","label":"id","offset":0,"slot":"0","type":"t_uint256"},{"astId":3442,"contract":"contracts/EventTicketNFT.sol:EventTicketNFT","label":"name","offset":0,"slot":"1","type":"t_string_storage"},{"astId":3444,"contract":"contracts/EventTicketNFT.sol:EventTicketNFT","label":"description","offset":0,"slot":"2","type":"t_string_storage"},{"astId":3446,"contract":"contracts/EventTicketNFT.sol:EventTicketNFT","label":"eventDate","offset":0,"slot":"3","type":"t_uint256"},{"astId":3448,"contract":"contracts/EventTicketNFT.sol:EventTicketNFT","label":"ticketPrice","offset":0,"slot":"4","type":"t_uint256"},{"astId":3450,"contract":"contracts/EventTicketNFT.sol:EventTicketNFT","label":"maxSupply","offset":0,"slot":"5","type":"t_uint256"},{"astId":3452,"contract":"contracts/EventTicketNFT.sol:EventTicketNFT","label":"soldTickets","offset":0,"slot":"6","type":"t_uint256"},{"astId":3454,"contract":"contracts/EventTicketNFT.sol:EventTicketNFT","label":"organizer","offset":0,"slot":"7","type":"t_address"},{"astId":3456,"contract":"contracts/EventTicketNFT.sol:EventTicketNFT","label":"isActive","offset":20,"slot":"7","type":"t_bool"}],"numberOfBytes":"256"},"t_struct(MarketplaceListing)3475_storage":{"encoding":"inplace","label":"struct EventTicketNFT.MarketplaceListing","members":[{"astId":3468,"contract":"contracts/EventTicketNFT.sol:EventTicketNFT","label":"ticketId","offset":0,"slot":"0","type":"t_uint256"},{"astId":3470,"contract":"contracts/EventTicketNFT.sol:EventTicketNFT","label":"seller","offset":0,"slot":"1","type":"t_address"},{"astId":3472,"contract":"contracts/EventTicketNFT.sol:EventTicketNFT","label":"price","offset":0,"slot":"2","type":"t_uint256"},{"astId":3474,"contract":"contracts/EventTicketNFT.sol:EventTicketNFT","label":"isActive","offset":0,"slot":"3","type":"t_bool"}],"numberOfBytes":"128"},"t_struct(Ticket)3466_storage":{"encoding":"inplace","label":"struct EventTicketNFT.Ticket","members":[{"astId":3459,"contract":"contracts/EventTicketNFT.sol:EventTicketNFT","label":"id","offset":0,"slot":"0","type":"t_uint256"},{"astId":3461,"contract":"contracts/EventTicketNFT.sol:EventTicketNFT","label":"eventId","offset":0,"slot":"1","type":"t_uint256"},{"astId":3463,"contract":"contracts/EventTicketNFT.sol:EventTicketNFT","label":"ticketNumber","offset":0,"slot":"2","type":"t_uint256"},{"astId":3465,"contract":"contracts/EventTicketNFT.sol:EventTicketNFT","label":"metadataURI","offset":0,"slot":"3","type":"t_string_storage"}],"numberOfBytes":"128"},"t_uint256":{"encoding":"inplace","label":"uint256","numberOfBytes":"32"}}},"userdoc":{"kind":"user","methods":{},"version":1}}}}